:1000000000800020BD010000B51F0000811F00001E
:10001000811F0000811F0000811F0000811F000060
:10002000811F0000811F0000811F0000B51F00001C
:10003000B51F0000811F0000ED1D0000B11E000073
:10004000B51F0000B51F0000B51F0000B51F000060
:10005000B51F0000B51F0000B51F0000B51F000050
:10006000B51F0000B51F0000B51F0000B51F000040
:10007000B51F0000B51F0000B51F0000B51F000030
:10008000B51F0000B51F0000B51F0000B51F000020
:10009000B51F0000B51F0000B51F0000B51F000010
:1000A000710A00007D0A0000B51F0000B51F0000A6
:1000B000B51F0000B51F0000B51F0000B51F0000F0
:1000C000B51F0000B51F0000B51F0000B51F0000E0
:1000D000B51F0000B51F0000B51F0000B51F0000D0
:1000E000B51F0000B51F0000B51F0000B51F0000C0
:1000F000B51F0000ED1F0000B51F00000921000022
:10010000B51F000025220000B51F0000B51F00002C
:10011000B51F0000B51F0000B51F0000B51F00008F
:10012000B51F0000B51F0000B51F0000B51F00007F
:10013000B51F0000B51F0000B51F0000B51F00006F
:10014000B51F0000B51F0000B51F0000B51F00005F
:10015000B51F0000B51F0000B51F0000B51F00004F
:10016000B51F000025100000B51F0000B51F0000DE
:10017000B51F0000B51F0000B51F0000B51F00002F
:10018000B51F0000B51F0000B51F0000B51F00001F
:10019000B51F0000B51F0000B51F0000B51F00000F
:1001A000B51F0000B51F0000B51F0000B51F0000FF
:1001B000B51F0000B51F0000B51F0000564B4CF2E4
:1001C000205210B51A804DF628121A8000BF00BFC9
:1001D00001F0F4FE514B4FF010621A60504A9A60E1
:1001E000504ADA60504A136813F4807301BF4F49D4
:1001F0000B604FF4A85313604D4B4E491A7810070B
:1002000042BF1A7842F008021A704B4B2A221A7029
:100210004A4A4B4B8B4204D252F8040F43F8040B6A
:10022000F8E7484B484A0021934202D243F8041BA6
:10023000FAE7464A4648002350F8231042F82310B4
:1002400001336F2BF8D1434B434A802103F8011B44
:100250009342FBD1414B3D4A1A60414B8A221A70AE
:10026000A3F5805324225A70A0221A709A7991071C
:10027000FCD59A79D206FCD43A4A937903F00C0360
:10028000082B384BF9D105221A7143225A719A79F9
:100290009406FCD533498A79324B5006FBD5324A55
:1002A0004FF0817111600521516020221A709A79F6
:1002B00002F00C020C2AFAD12C4B2D4A1A602D4B5D
:1002C0002D4A1A6000225A60072243F8042C2B4A58
:1002D000C3F80C2D62B600F0ADFD144B1B68DA07B5
:1002E00005D5274800F0BEFC264B274A1A60274B4D
:1002F0001B785B0609D5234C234B22689A4204D114
:100300001F4800F0AFFC0023236002F04DF801F01D
:100310005BFE00F0B9FBFEE70E2005403080044094
:10032000823F04000100002B10D0034014D0034092
:1003300002D00740548AFF1F00E00740D02500008C
:100340001C87FF1F548AFF1F248DFF1F0082FF1F81
:100350000000000000E400E05FE400E008ED00E0E1
:1003600000500640004006404480044004800440A1
:10037000C010050014E000E03F190100000020203B
:100380008855995D1CE00340A5C3945A00F00740CE
:10039000FFFFFFFFFFFFFFFFFFFFFFFFFFFFFFFF6D
:1003A000FFFFFFFFFFFFFFFFFFFFFFFFFFFFFFFF5D
:1003B000FFFFFFFFFFFFFFFFFFFFFFFFFFFFFFFF4D
:1003C000FFFFFFFFFFFFFFFFFFFFFFFFFFFFFFFF3D
:1003D000FFFFFFFFFFFFFFFFFFFFFFFFFFFFFFFF2D
:1003E000FFFFFFFFFFFFFFFFFFFFFFFFFFFFFFFF1D
:1003F000FFFFFFFFFFFFFFFFFFFFFFFFFFFFFFFF0D
:10040000FFFFFFFFFFFFFFFFFFFFFFFFDEF9FFFF23
:1004100010B5054C237833B9044B13B10448AFF33E
:1004200000800123237010BD548AFF1F00000000CC
:10043000D4250000084B10B51BB108490848AFF39C
:1004400000800848036803B910BD074B002BFBD0A0
:10045000BDE81040184700BF00000000588AFF1F89
:10046000D4250000548AFF1F0000000010B50B4C7B
:1004700001210C2000F026FC2046122100F0E2F8B9
:100480001321204600F00EF9204600F097F80021D5
:100490000C20BDE8104000F0F5BB00BFF887FF1F3F
:1004A00038B50F4C01210C2000F0ECFB0125102386
:1004B0000021204684F83B3084F85E5084F85D507B
:1004C00000F033F82946204600F056FA0C200021AF
:1004D00000F0D8FB4FF4FA70BDE8384000F094BC4F
:1004E000F887FF1F0020704790F8392090F83800F7
:1004F000101A704790F8383090F839209A4281BF2E
:100500005A1C1B1880F83820187E98BF4FF0FF3017
:10051000704790F8383090F839209A4286BF1B18FF
:10052000187E4FF0FF3070477047B0F85E302BB147
:1005300090F85D30202B03D9012303710020704710
:100540005A1C034480F85D2083F83B10012070475B
:1005500038B50446B0F85E001546A0B194F85D3099
:10056000C3F12102954282BF01201546207104F19A
:100570003B0018442A4600F08FFA94F85D302B4473
:1005800084F85D30284638BD43691A685B68126894
:100590001A420ED0074B9942036901D8282204E081
:1005A000054A914294BF19220A225A700369032214
:1005B0009A7170477F1A06003F420F0070B5002302
:1005C000456980F8383080F8393080F85C3080F840
:1005D0005D3080F85E3080F85F3029686A680E68A8
:1005E0004366324383660A6002699370466990F8F5
:1005F0006110124A31440D7A4B7B02EBC5051B0298
:100600006D6803F4E06343F064032B6090F862309C
:100610003344997CDB7D02EBC1021B02526808491E
:1006200003F4E06343F064031360FFF7ADFF036975
:1006300020225A71036980229A7070BD58240000EC
:10064000A086010070B5436990F861201A44147ABD
:100650008C4224D0DD1D002215F8016FFF2E1ED024
:100660008E4203D00132052AF6D170BD19680D689B
:1006700059680D4211D00A4901EBC404134464685F
:10068000002525601C7A5B7B01EBC4011B024968D5
:1006900003F4E06343F064030B6080F8612070BDF5
:1006A0005824000070B5436990F862201A44947C85
:1006B0008C4225D003F11105002215F8016FFF2EA1
:1006C0001ED08E4203D00132052AF6D170BD1968C2
:1006D0000D6859680D4211D00A4901EBC404134456
:1006E0006468002525609C7CDB7D01EBC4011B0256
:1006F000496803F4E06343F064030B6080F8622010
:1007000070BD00BF5824000010B50169CB78DBB282
:1007100013F0100F044603F0400201D12AB92CE077
:100720001020C870002AF9D110BD03F0040303F0B3
:10073000FF01374ACBB10023137084F85D30636E3C
:1007400003B1984794F85D3023B9012284F85D2005
:1007500084F83B302369D0229A70236994F83B20B7
:100760001A71012384F85C304EE001231370236971
:1007700084F83910C0229A701CE021698A7802F04E
:10078000100202F0FF00C2B113F0010310D194F87F
:100790005C2094F85D00904281BF531C121984F8CC
:1007A0005C3092F83B300B712369D0229A702BE0B9
:1007B000C0238B7023691B7926E0164B84F86000F8
:1007C0009C4206D1626994F86130134913440322B4
:1007D00008E0124B9C4208D1626994F861301049DC
:1007E00013440322187A00F09FFA23691A7994F8C7
:1007F00039301F2BD2B207D80549097821B1591CCD
:10080000234484F839101A7623690222DA7010BD65
:10081000708AFF1FF887FF1F810800006488FF1F90
:100820008D08000070B50369DB7803F020030446EF
:1008300003F0FF057BB9426990F861301344187AE0
:1008400000F0F2F9A36ED3B184F8385094F839006F
:10085000BDE87040184790F860300133DBB2012BDF
:1008600080F8603002D890F85F3043B9626994F83C
:1008700061301344BDE87040187A00F0D5B970BDFE
:100880000148FFF7CFBF00BFF887FF1F0148FFF700
:10089000C9BF00BF6488FF1F2DE9F347344D354FB2
:1008A0002B680093DDF80080044600217826226939
:1008B000D3789B0657D52B680193019BC8EB0303A4
:1008C0000F2BF4D9002946D1626994F861301344A2
:1008D0000521187A00F0F6F9626994F86130134442
:1008E000012193F812A0504600F0ECF94FF00909ED
:1008F0000021504600F0C6F93346013BFDD10121ED
:10090000504600F0BFF93346013BFDD1B9F1010972
:10091000EED1606994F861200244117A537B07EBB1
:10092000C1011B02496803F4E06343F064030B60F8
:1009300094F8623003449A7CDB7D07EBC2021B0211
:10094000526803F4E06343F064031360F023013B57
:10095000FDD10121ABE7102BA9D0002090702369B5
:1009600080229A7000E0012002B0BDE8F08700BF4D
:10097000748AFF1F582400002DE9FF4103691222E9
:10098000DA700269937803F0200304460D4603F001
:10099000FF0613B1B423937008E0FFF77DFF002832
:1009A00060D0236984F85F60B0229A702F4B216970
:1009B0001A680092009ECA7802F0200202F0FF003E
:1009C000002A45D00020022794F85D20C1B28A4257
:1009D00035D96618226996F83B6016711A68039239
:1009E000DDF80C802669F278D2B202F0020E0EF029
:1009F000FF0CBEF1000F0BD1920609D51A680292C6
:100A0000029AC8EB0202052AEDD986F802C026E058
:100A1000F7702669F278D2B212F0100F02D112F0FC
:100A2000200F03D18023B370042009E0D20700F126
:100A30000100C9D500290CBF0220032001E00020DD
:100A400015B1236980229A70002384F85E300AE091
:100A50001A680192019A921B042AACD98870236902
:100A600080229A70042004B0BDE8F081748AFF1FD0
:100A70000148FFF749BE00BFF887FF1F0148FFF795
:100A800043BE00BF6488FF1F08B5FFF7EFFCFFF708
:100A900007FD01F03DF9FAE7844641EA000313F04F
:100AA00003036DD1403A41D351F8043B40F8043B75
:100AB00051F8043B40F8043B51F8043B40F8043B38
:100AC00051F8043B40F8043B51F8043B40F8043B28
:100AD00051F8043B40F8043B51F8043B40F8043B18
:100AE00051F8043B40F8043B51F8043B40F8043B08
:100AF00051F8043B40F8043B51F8043B40F8043BF8
:100B000051F8043B40F8043B51F8043B40F8043BE7
:100B100051F8043B40F8043B51F8043B40F8043BD7
:100B200051F8043B40F8043B403ABDD2303211D377
:100B300051F8043B40F8043B51F8043B40F8043BB7
:100B400051F8043B40F8043B51F8043B40F8043BA7
:100B5000103AEDD20C3205D351F8043B40F8043B77
:100B6000043AF9D2043208D0D2071CBF11F8013B75
:100B700000F8013B01D30B8803806046704700BF3B
:100B8000082A13D38B078DD010F003038AD0C3F14A
:100B90000403D21ADB071CBF11F8013B00F8013B2C
:100BA00080D331F8023B20F8023B7BE7043AD9D3EB
:100BB000013A11F8013B00F8013BF9D20B780370C0
:100BC0004B7843708B788370604670477047FFFFA7
:100BD00000F14040A0F592237C2B12D9A0F594237C
:100BE0007C2B10D9A0F596237C2B0ED9A0F5982349
:100BF0007C2B0CD9A0F59A207C28064888BF0020C1
:100C000070470548704705487047054870470548D4
:100C1000704700BFA889FF1FD088FF1F0889FF1FEA
:100C20005889FF1F8889FF1F08B50C4B03EBC000D4
:100C300042681046FFF7CCFF70B172B6136823F01C
:100C4000877323F4803343F080731360C2F384020C
:100C5000034B40F8223062B608BD00BF58240000A4
:100C6000CD0B0000044B054900221A600A60044ABB
:100C7000106010221A60704714D0034004D0034063
:100C800000D00340212810B518D80D4B53F8302060
:100C900092F880423CB1012311B182F8803010BD3E
:100CA00082F8003110BD03EBC0035B681A6811B114
:100CB00042F0030201E022F002021A6010BD00BF00
:100CC00058240000212810B52BD8164A02EBC00387
:100CD00001295B68144601D004290FD154F8302053
:100CE000012082F880024FF4A2721A601A68042967
:100CF0000CBF42F0200222F0200211E052F8300036
:100D0000002280F8802211B94FF4807208E0022995
:100D100002D140F2031203E0032908BF4FF48172AD
:100D20001A6010BD58240000212870B50E463CD82A
:100D3000042A3AD8DFE802F0070905030B0009236B
:100D400006E00A2304E0082302E00C2300E00B2362
:100D50001D04164B03EBC0035C68216811F4E061CD
:100D600001D1FFF7AFFF124B124AC3F89C21124A80
:100D7000C3F8A021114AC3F8A421114AC3F8A8213D
:100D80002046104AC3F8AC21FFF722FF68B172B6C3
:100D9000226822F47022226042F08073C4F384023D
:100DA0002B4340F82260236062B670BD58240000D7
:100DB0000082FF1FCD87FF1FA187FF1F7587FF1FC1
:100DC0004987FF1F1D87FF1F72B60C4B0C4A0D4948
:100DD0001B681268096862B6490102D5322B88BFC8
:100DE0000132C3F58C33482003F23F13B3FBF0F319
:100DF0004FF47A7000FB0230704700BF18E000E04B
:100E0000748AFF1F04ED00E038B50446FFF7DCFFED
:100E1000054624B938BD013C0AD005F57A75FFF7BF
:100E2000D3FF401BB0F57A7FF5D200F071FFF6E7F3
:100E300038BDFFFF214B4FF4000210B51A604FF090
:100E400080721A604FF000721A604FF080621A6070
:100E50004FF000621A601A4B1A4A1B4C002048F6E9
:100E6000FF711860596028231360936013619361C8
:100E700013629362136393630922226004F5805422
:100E8000043420606160A360236144F8042C04F5FD
:100E9000FE2420600D4801600D490B608B600D4BF6
:100EA0001A6001F011F81920FFF7AEFF00F052FEB2
:100EB00040F21310BDE81040FFF7A6BF08E100E0C4
:100EC000048003400C8003400080034008800B40F6
:100ED0000C800B4000800B4030B472B62B4A137864
:100EE0001D0706D52A4B196A002936D0996A0029B0
:100EF00041D053781C0706D5254B196C00293ED0EC
:100F0000996C002939D09378190705D5204B196EB3
:100F1000002936D0996E89B1D3781B0707D51C4BB1
:100F2000D3F880207AB3D3F8882011213AB162B681
:100F3000184B00221A7030BC00F096BE0D21154CE3
:100F4000154D227843F8315003EBC1030830013AC4
:100F50005860227062B630BC704704220D4C0F4DB1
:100F6000217843F8325003EBC20308304A1E586020
:100F7000227062B6EFE70521E1E70921DFE70822E9
:100F8000ECE70C22EAE71022E8E700BF6825000042
:100F90000080FF1F4D8BFF1FC800400088004000ED
:100FA000431E032B1DD81B4A400140F0100030B4F3
:100FB000104472B6184CE25C032A1BD8DFE802F03A
:100FC0000212151703220D88E25410F0080F14BF07
:100FD000C823882343EA054308310360416062B6B1
:100FE00030BC704708300222EDE70522EBE70830FD
:100FF0000422E8E7094A52F8230038B1084A52F8B7
:101000002300416042F8231062B6E9E742F823105A
:10101000034AF7E70080FF1F5C8BFF1F248BFF1F35
:10102000348BFF1F2DE9F04FB54CB64E87B046E02C
:10103000B54F4FEA930B07EBCB08013DD8F80410EE
:1010400003F00803EDB2A1F1080003F0FF02002B4A
:1010500040F0108157F83B301B0C1FFA83FE21F83B
:1010600008EC002B00F0FD80A84B21F8062C41F87D
:10107000042C53F82520002A00F0DF82DFF8CCA2F0
:101080005AF825305860DFF8C8924AF8250039F838
:1010900015309E4429F815E000F0C8FD002800F046
:1010A000C5829B499B4B18F0080F00F1080018BF40
:1010B0000B46C8F8040047F83B3008232370257816
:1010C000EDB2690719D5944B1B78A3B193490A78FF
:1010D00002F0FF0322B1013BDBB20B7003B900BE8B
:1010E0008F490A7802F0FF032AB1013BDBB20B7093
:1010F000002B00F071820423237005F0080303F035
:10110000FF02002B00F0DC803378DBB21D098FD1A9
:101110009B087D4D55F8332005EBC301C2F38302D4
:10112000013A49680C2A00F29880DFE802F08C8CC2
:101130009696969696964D96969607000868DFF8CE
:10114000F4E14A68DFF80CB2764FCEF80420CEF80E
:10115000000082B240F281600021DFF8B49145F8CE
:1011600033904FF0010C8242CBF800102961A96145
:1011700087F800C0DFF8909100F2F080B2F5D06FF0
:1011800080F08F83B2F5817F00F0218300F2A88286
:10119000802A00F06283822A40F02083BEF8043067
:1011A00003F07F03042B00F219835F4A5F489B0022
:1011B0001A440170417013789B0740F17A8480F8DB
:1011C00000C04FF0020C4DE3DFF888B1DBF80030CF
:1011D00073B3DFF884A1534F554ABAF8001097F85B
:1011E00000E0107840298C4640F0020928BF4FF0FB
:1011F000400CBEF1000F8EF0010E87F800E0CCEB42
:1012000001010CBF8827C82705EBC90E89B280F001
:10121000010047EA0C47CEF80430AAF8001045F860
:10122000397063441070002900F04581CBF800301C
:10123000404B1A88B2F5A06F0FD13F4A99781170D0
:1012400000225A7009E03B4A108842F22102904283
:1012500000F036812E4A45F83320384A01231370B6
:101260002BE72B492B4B18F0080F18BF0B4647F8FC
:101270003B3022E700F0F8FC3148324A50F82510A4
:10128000002900F013824B6812F805C040F82530A1
:1012900001F10803C8F80430BCF1030F05D8DFE8FA
:1012A0000CF02C0229260223535518F0080F0A8847
:1012B0000CBF8823C82343EA024347F83B30FCE6CF
:1012C000E80700F18C81290600F10082AA0706D503
:1012D0001D4A0B4913780220DBB213700870EB062D
:1012E00002D5074B10221A7007B0BDE8F08F042317
:1012F0005355DAE705235355D7E703235355D4E76E
:1013000080200740902007400080FF1FD08AFF1FE9
:10131000C800400088004000588BFF1FE18AFF1F73
:10132000608BFF1FE08AFF1FC0200740508BFF1F0C
:101330004C8BFF1F448BFF1F9820074094200740D1
:10134000248BFF1F5C8BFF1F882007407C8AFF1FB8
:101350000E8DFF1F788AFF1F8C8AFF1F42F2210328
:101360009A4200F0358100F2D980B2F5086F00F0A2
:10137000B382B2F5106F40F03182B24AD9F8203012
:101380009EF8021011701A0600F14383AB6AAE4A50
:101390001B0600F139832B6BAB4A180600F14E8314
:1013A000AB6BA94A190600F144832B6CA64A1B06B5
:1013B00000F13A83AB6CA44A180600F130832B6D20
:1013C000A14A190600F16483AB6D9F4A1B0600F128
:1013D0005A832B6E9C4A180600F15083AB6E9A4AD2
:1013E000190600F146832B6F974A1B0600F13C83D8
:1013F000AB6F954A180600F13283D5F88030924AD7
:10140000190600F12683D5F888308F4A1B0600F1B3
:101410001A83D5F890308C4A180600F14483D5F829
:101420009830894A190600F1388300230193874BCD
:101430000293874B0393874B0593DFF860A2864B9B
:10144000DFF85C920493029B186830B1D0F80480F6
:1014500000F00AFC40460028F8D1039B1868029B64
:101460001A4600231360019B1A4600234AF82230D3
:1014700030B1D0F8048000F0F7FB40460028F8D1E6
:10148000039A049B114600220A60059A1B781146B4
:10149000002241F8042B019A0591023B4FF0000114
:1014A00029F81210032B00F23F81DFE813F08B01C3
:1014B00039018B013901BCF1400F18BF0023B5E69B
:1014C000664A0F784878177050708F78C878977090
:1014D000D07010680F79177186284F7989799171CA
:1014E000577108BF5E4A5F4F04BF0F2111705E4AFB
:1014F00038781178002881F0010E41F0020182F85D
:1015000000E00CBF8822C82245F8312005EBC1015C
:1015100080F00100002238704A609BE642F22123ED
:101520009A4240F0E781DFF87C91504B504A9EF898
:101530000200D9F800E0C3F800E00191CDF808C03E
:1015400010700021029B03918A4689460846464A4C
:1015500092F800E04EF0020C05EBCC08002BC8F826
:1015600004000CBF8820C82040EA0A0A9DF8043015
:1015700045F83CA08EF001003B701070DFF8C8C049
:10158000DFF8E080DFF8E0A0002940F02E81B9F11B
:10159000400F1DD140F0020005EBC005039B6B60BE
:1015A000019DDFF8A4C0002D40F036810D0445F008
:1015B00088084CF830809DF808503D7082F800E0B3
:1015C0000B44402904D100212A4ACBF80030118075
:1015D000294A0123137040E600F076FB8BE51A4B95
:1015E000254821491A614FF0020E80F800E0234F90
:1015F0000A70234919609960224E234D234C9A6149
:101600000D213970FF213170DFF89CE029702270C4
:101610001F4D204A8EF800109F27012406F8047CF5
:101620005D600470DA6007B0BDE8F08F1A4A47F8D1
:101630003B001378013313703FE543F82500DFF8D2
:101640005CA020E5588BFF1F0080FF1FD08AFF1F82
:10165000248BFF1F348BFF1F5C8BFF1F188DFF1F18
:10166000E18AFF1FE08AFF1F4C8BFF1F208DFF1FA9
:101670006C8BFF1F8C8AFF1F94200740C0200740FF
:1016800088004000882007408020074098200740BD
:10169000908AFF1FE48AFF1F4D8BFF1F7C8AFF1F6C
:1016A0000E8DFF1F748AFF1F8C200740535D032B94
:1016B00000F2CC8001A151F823F000BFBB10000064
:1016C000BB1000001B17000015170000BE49BF4BE0
:1016D00080220D2008701A70AA077FF500AEF7E58A
:1016E00040F202339A4240F0FC80BEF8042002F03F
:1016F0007F02042A72D8BEF80230002B6ED1B249A4
:10170000019392001144CDF808C00A7842F0020219
:101710000A7016E701235355CFE400235355CCE458
:10172000049B4FF001021A70029A019B043202924C
:10173000039A04320392049A01330132042B019379
:1017400004927FF480AEDFF8B492DFF8B4A299F887
:1017500000309F4A00218AF8001013701B0700F127
:101760000A8199F801309B4ADFF8988213701807B4
:101770004FF000022A63AA6300F1E88099F8023072
:10178000954ADFF88082137019074FF000022A652E
:10179000AA6500F10381914A99F803301370002281
:1017A0002A67AA671A07DFF85C9200F1B8803B78D5
:1017B0000293002283F001030193C5F89020C5F83D
:1017C0009820BEE6049B4FF000021A70ACE7BEF80A
:1017D000042002F07F02042A40F291807A4B0F220B
:1017E0001A707F4A0123137037E540297FF6D2AE85
:1017F00040F002000CEBC002039B5360019AC2B19F
:10180000784A9DF8085088F8005040398AF800E07E
:1018100040334CF83020D7E69DF808303B700D047B
:10182000039B82F800E045F0C8050B444CF83050AB
:10183000C7E69DF8083088F80030039B6A4A8AF8AA
:1018400000E0403940334CF83020BDE618F0080F76
:101850000CBF0223032353552FE464484FF0020CBE
:1018600001704170BEF80610614580F06181604AE8
:1018700092F800E04EF0020C05EBCC0340298946BB
:1018800028BF4FF04009586000EB09030393002381
:1018900001930123C9EB01014FEA094A0293C820D1
:1018A00062E6544B5868002898D0BEF80210BEF883
:1018B00004C003E00C33586800288FD01A888A428D
:1018C000F8D15A886245F5D1090A03290CBF90F86E
:1018D00000C0B3F808C0C5E7474B44481B78037005
:1018E000C0E7B2F5A06F7FF479AF00230193012325
:1018F000029326E642F221339A42F6D06EE7BEF812
:101900000230002B7FF46AAF2F49019392001144FB
:10191000CDF808C00A7822F002020A7011E600F041
:1019200085F9002800F0D08008302F4BC9F88400DA
:10193000C9F8803000F07AF9002800F0BD80083046
:10194000284BC5F88C00C5F8883030E700F06EF9F8
:10195000002800F0D6800830234BC8F84400C8F8AF
:10196000403000F063F9002800F0C48008301D4BBF
:10197000E864AB6402E700F059F9002800F0B38096
:101980000830194B68622B6200F050F9002800F013
:10199000A3800830134BE862AB62E2E600F046F940
:1019A000002800F0BD8008300F4BC8F86400C8F86C
:1019B000603000F03BF9002800F0AB800830094BA4
:1019C000E866AB66E7E600BFC0200740802007401E
:1019D000C4200740C8200740CC200740D020074043
:1019E00094200740C800400088004000508BFF1F33
:1019F0004C8BFF1F6C250000588BFF1F68250000D3
:101A00004D8BFF1F0080FF1FD06A083800F02CF9B3
:101A1000C1E4D9F82400083800F026F9B6E4D06C07
:101A2000083800F021F9CAE4506C083800F01CF9BD
:101A3000C0E4D06B083800F017F9B6E4506B0838F2
:101A400000F012F9ACE4D2F88C00083800F00CF980
:101A5000DFE4D2F88400083800F006F9D3E4D06F50
:101A6000083800F001F9C8E4506F083800F0FCF8BD
:101A7000BEE4D06E083800F0F7F8B4E4506E0838D1
:101A800000F0F2F8AAE4D06D083800F0EDF8A0E418
:101A9000506D083800F0E8F896E4D2F89C00083859
:101AA00000F0E2F8C1E4D2F89400083800F0DCF865
:101AB000B5E44FF0020CD5E69AF80030C5F888007E
:101AC00001338AF8003072E69AF80030C9F88000D5
:101AD00001338AF800302DE79AF80030A86201330C
:101AE0008AF800303DE69AF80030286201338AF81F
:101AF000003049E79AF80030A86401338AF80030D2
:101B00003CE69AF80030C8F8400001338AF800300B
:101B100027E79AF80030A86601338AF800303AE6E1
:101B20009AF80030C8F8600001338AF8003040E7C6
:101B3000BCF1400FE14628BF4FF0400900EB09031C
:101B40000393002301930123C9EB0C014FEA094AD7
:101B50000293FCE4F8B500F0CBFB294B29482A4C52
:101B60002A4F2B4DDFF8BCC0DFF8BCE0294E002225
:101B70001A605A609A60DA601A615A619A61DA6191
:101B80001A625A629A62DA621A635A639A63DA6371
:101B90001A645A649A64DA641A655A659A65DA6551
:101BA0001A665A669A66DA661A675A679A67DA6731
:101BB000C3F880200168C3F8842041F480210160CB
:101BC000C3F307212170C3F30740134938701B0E7C
:101BD0002B70FF238CF80030104D8EF80030104829
:101BE0000B700123337084F8642070264FF4007466
:101BF000102207F82C3C2E70046081F8F820F8BD04
:101C00000080FF1F348004409C200740B020074024
:101C1000B4200740942007401020074049E400E02A
:101C200008E100E0802007408820074010B572B628
:101C30000B480268B2FA82F10B2902DD62B600207D
:101C400010BD4FF00043CB4022EA0302026062B6AF
:101C5000044C48234B43E0180022E250426010BD80
:101C6000B089FF1FBC83FF1F0C4B4822C31AB3FB74
:101C7000F2F30B2B11D80A4A127822B1094A1278D2
:101C80000AB1FFF729B972B607494FF0004222FAAC
:101C900003F30A681A430A6062B67047BC83FF1FE9
:101CA0004D8BFF1F588BFF1FB089FF1F044B988877
:101CB000044B1A681AB1138852889B1A184470474B
:101CC0000E8DFF1F688BFF1F38B50E4B1B7803F07E
:101CD000FF05ABB90C4C216831B14B880B80042057
:101CE000FFF75EF9256038BDFFF7A0FF014620B180
:101CF0000420BDE83840FFF753B9044B01221A70A5
:101D000038BD00BF618BFF1F648BFF1F608BFF1FFF
:101D100038B51E4C2378002B36D101232370FFF7F2
:101D2000C5FF08B100F01EFB00F050F908B100F04B
:101D3000C7F800F0D9F908B100F0C3F800F062FA72
:101D400008B100F0BFF800232370EFF30583DBB97F
:101D5000EFF3108272B60E4D286810B10D4C217849
:101D600011B18AB962B638BD0123237043692B6073
:101D70000BB1996101E008490B6002B962B6002518
:101D8000457783689847257038BD00BF6D8BFF1F6E
:101D9000808BFF1F848BFF1F7C8BFF1FEFF3108056
:101DA00072B6B0FA80F04009704700B162B6704771
:101DB000F8B50C4E0C4F0025FFF7F0FF34680246D3
:101DC0006CB1636933600BB19D6100E03B6010460C
:101DD000FFF7EBFF6577A36820469847ECE7FFF72E
:101DE000E4FFF8BD708BFF1F748BFF1FFFF7E0BF90
:101DF00015490B6830B513B98360C36009E0046806
:101E00001A68944207D20025121B8360C560D8600F
:101E10001A60086015E002681C689968121B02606D
:101E200061B10C68A2420B46F5D28160C968C160FD
:101E3000D860C168A21A88601A6002E08160C3603D
:101E400098600223037530BD788BFF1F70B5164D67
:101E50002C680026BCB1236813B1013B236012E05B
:101E6000A26802B1D36020692A60036826751B68E6
:101E700022460021984763681BB123602046FFF784
:101E8000B7FF2C68E6E7FFF789FF084B00221C68C4
:101E90001A60FFF78AFF2CB1A5682046FFF7A8FF5C
:101EA0002C46F8E770BD00BF788BFF1F888BFF1FA3
:101EB000024A136801331360FFF7C8BF748AFF1F1B
:101EC000704770477047FFFF10B5204B20482149ED
:101ED00060221A70E1225A701F4B204A1C78204B56
:101EE000082C01D1012402E00A2C03D1192404603A
:101EF000132005E00C2C0CBF15243D240460122097
:101F0000086014601860174B17491B78174A03B113
:101F100001230B601360164B164A1978164B0129E2
:101F200001D880210BE0042901D8842107E0082989
:101F300001D8852103E0102994BF862187211160F3
:101F400019600E4B01221A7010BD00BF00400740FF
:101F500008B003400CB00340B489FF1F08B00B4029
:101F60000CB00B408D8BFF1F20B0034020B00B4006
:101F7000B589FF1F24B0034024B00B408C8BFF1F9A
:101F800008B50B4D2C462B68580301D5FFF74AF8CE
:101F90002368590501D500F029F823681A0501D5F1
:101FA00000F0B2F82368DB04EDD500F03BF9EAE776
:101FB0003480044008B5FFF7E3FFFFFF014B102218
:101FC0001A807047002005407047FFFF054B1878C6
:101FD000054B1A78C0B2D3B2984238BF4030C01A0D
:101FE000704700BF168CFF1F958BFF1FF0B534495B
:101FF0000B7913F0300F2FD072B68B7D03F0FF04F6
:1020000023B9CB7940234B7462B625E062B62D48E4
:102010002D4A037812782D4FDBB2D2B20546581CF8
:102020004028CE7928BF00209042F6B21CBF3E5413
:102030000346601E10F0FF04F1D1D9B22970244983
:10204000096849B1934236BFC2F140029B1A9B18FE
:10205000272BC4BF01230B70194AD178C9B20D06D2
:102060001ED513791C061BD51A4B1B481D78037807
:102070001A4EEDB2DBB2AB420AD00133402B28BF7F
:1020800000231479F45CE4B2D471147D072CF2D9E6
:10209000DBB203700A4B1A79100644BF7C22DA7057
:1020A00049060CD5064B1A79520608D50C4A002170
:1020B00011700C4A126802B111703C22DA70F0BD46
:1020C00000A00640168CFF1F958BFF1FD68BFF1FAD
:1020D000908BFF1F1C8CFF1F178CFF1F968BFF1F01
:1020E000948BFF1F188CFF1F054B1878054B1A782F
:1020F000C0B2D3B2984238BF4030C01A704700BF58
:102100008E8CFF1F258CFF1FF0B534490B7913F01F
:10211000300F2FD072B68B7D03F0FF0423B9CB793B
:1021200040234B7462B625E062B62D482D4A0378F1
:1021300012782D4FDBB2D2B20546581C4028CE791A
:1021400028BF00209042F6B21CBF3E540346601EDA
:1021500010F0FF04F1D1D9B229702449096849B1BE
:10216000934236BFC2F140029B1A9B18272BC4BF73
:1021700001230B70194AD178C9B20D061ED5137907
:102180001C061BD51A4B1B481D7803781A4EEDB25E
:10219000DBB2AB420AD00133282B28BF00231479CD
:1021A000F45CE4B2D471147D072CF2D9DBB2037075
:1021B0000A4B1A79100644BF7C22DA7049060CD506
:1021C000064B1A79520608D50C4A002111700C4AA8
:1021D000126802B111703C22DA70F0BD00B0064006
:1021E0008E8CFF1F258CFF1F4E8CFF1F208CFF1F26
:1021F000948CFF1F8F8CFF1F268CFF1F248CFF1FCA
:10220000908CFF1F054B1878054B1A78C0B2D3B2DB
:10221000984238BF4030C01A704700BF068DFF1F7C
:102220009D8CFF1F10B5284B1A79920620D527499F
:10223000DA790B782648013300783F2BC8BF00239A
:10224000834218BF2348D2B21EBFC254DAB20A700A
:10225000214A116861B1214A1278D2B2934236BF45
:10226000C2F140029B1A9B18272BC4BF01230B709D
:102270001549CA78D2B2140616D50B79180613D5AB
:10228000174B164C18782378DBB2984202D16C2396
:10229000CB7009E00133282B28BF00231148C05C14
:1022A000DBB2C0B2C871237051060CD5064B1A7947
:1022B000520608D50C4A002111700C4A126802B16E
:1022C00011702C22DA7010BD00C00640068DFF1F71
:1022D0009D8CFF1FC68CFF1F988CFF1F078DFF1F53
:1022E0000C8DFF1F9E8CFF1F9C8CFF1F088DFF1FF6
:1022F0001FB572B6154B70221A70154A4121117024
:102300000F2102F8011C80221A701A781206FCD5DF
:10231000104B186862B6104B984298BF0A2301AC64
:1023200098BF58430A22214600F01DF80B4A0023AB
:10233000E15C21B101330A2B22F8021BF8D1084AD3
:1023400001335B00137004B010BD00BF00000240F9
:1023500007000240080002407F969800408AFF1F55
:102360003E8AFF1F704730B503460020B3FBF2F4EE
:1023700002FB1433092B94BF30333733DBB20B54D9
:1023800023460CB10130F1E70A1823465470C41AF1
:10239000A34206DACC5C1578CD5402F8014901332A
:1023A000F5E7084630BDFFFF70B50E4B0E4CE41A42
:1023B000A41000251E46A54204D056F825309847A3
:1023C0000135F8E700F0FCF8084C094BE41AA410BA
:1023D00000251E46A54204D056F825309847013501
:1023E000F8E770BDCC250000CC250000D02500000A
:1023F000CC25000034800440400000001211FFFF93
:10240000FF02020000001310FFFFFF0202000000A5
:102410001800000034800440800000001EFFFFFF11
:10242000FF02000000001DFFFFFFFF020000000090
:102430001900000000000000000000002B05000053
:1024400051050000E504000029050000E904000032
:10245000F5040000130500004008FE4340A00440BE
:102460004408FE4344A004400018FE4300C004405A
:102470003000FE43309004403400FE43349004406A
:102480001C18FE431CC004401018FE4310C004403A
:102490000818FE4308C004400C18FE430CC004405A
:1024A0000C10FE430CB004401010FE4310B004406A
:1024B0001810FE4318B004401C10FE431CB004402A
:1024C0001410FE4314B004400418FE4304C004403A
:1024D0000010FE4300B004400008FE4300A004408A
:1024E0000408FE4304A004400C08FE430CA0044072
:1024F0000808FE4308A004401418FE4314C004401A
:102500001818FE4318C004400410FE4304B00440F1
:102510000810FE4308B004401400FE431490044029
:102520004C08FE434CA004400420FE4304D0044069
:102530002410FE4324B004402010FE4320B0044089
:102540002810FE4328B004402C10FE432CB0044059
:102550000020FE4300D004404808FE4348A0044049
:102560001000FE43109004400015191500010000F2
:10257000B689FF1F1200000000020000E089FF1F63
:1025800043000000000300003A8AFF1F0000000023
:1025900001030904C889FF1F0000000002030904A9
:1025A000248AFF1F00000000030309043E8AFF1F66
:1025B000000000000000000000000000000000001B
:1025C000F8B500BFF8BC08BC9E4670473504000053
:0425D000F8B500BF9B
:1025D40038B5084B084D1C681C604CB194FAA4F340
:1025E400B3FA83F355F823309847631E1C40F4D1A3
:1025F40038BD00BFA0D00440A889FF1F38B5084BE0
:10260400084D1C681C604CB194FAA4F3B3FA83F32C
:1026140055F823309847631E1C40F4D138BD00BFE1
:10262400A0C004408889FF1F38B5084B084D1C68BA
:102634001C604CB194FAA4F3B3FA83F355F8233035
:102644009847631E1C40F4D138BD00BFA0B00440BD
:102654005889FF1F38B5084B084D1C681C604CB1E5
:1026640094FAA4F3B3FA83F355F823309847631E1E
:102674001C40F4D138BD00BFA0A004400889FF1F4E
:1026840038B5084B084D1C681C604CB194FAA4F38F
:10269400B3FA83F355F823309847631E1C40F4D1F2
:1026A40038BD00BFA0900440D088FF1F3C24000028
:1026B40000000000E8030000000000000060064085
:1026C400F4230000000000000000000000000000EF
:1026D40000000000000000000000000000000000F6
:1026E40000000000000000000000000000000000E6
:1026F40000000000000000000000000000000000D6
:1027040000000000000000000000000000000000C5
:1027140000000000000000003C2400000000000055
:10272400E8030000000000000070064014240000CC
:102734000000000000000000000000000000000095
:102744000000000000000000000000000000000085
:102754000000000000000000000000000000000075
:102764000000000000000000000000000000000065
:102774000000000000000000000000000000000055
:1027840000000000CD0B0000CD0B0000CD0B0000BD
:10279400CD0B0000CD0B0000CD0B0000CD0B0000D5
:1027A400CD0B0000CD0B0000CD0B0000CD0B0000C5
:1027B400CD0B0000CD0B0000CD0B0000CD0B0000B5
:1027C400CD0B0000CD0B0000CD0B0000CD0B0000A5
:1027D400CD0B0000CD0B0000CD0B0000CD0B000095
:1027E400CD0B0000CD0B0000CD0B0000CD0B000085
:1027F400CD0B0000CD0B0000CD0B0000CD0B000075
:10280400CD0B0000CD0B0000CD0B0000CD0B000064
:10281400CD0B0000CD0B0000CD0B0000CD0B000054
:10282400CD0B0000CD0B0000CD0B0000CD0B000044
:10283400CD0B0000CD0B0000CD0B0000CD0B000034
:10284400CD0B0000CD0B0000CD0B0000CD0B000024
:10285400CD0B0000CD0B0000CD0B0000CD0B000014
:10286400CD0B0000FFFFFFFF0A041201100102005C
:102874000040C016830475020102030118035400CA
:10288400650065006E0073007900640075006900DE
:102894006E006F0009024300020100C03209040007
:1028A40000010202010005240010010524010101B8
:1028B40004240206052406000107058203100040D3
:1028C40009040100020A0000000705030240000099
:1028D400070584024000000016035500530042001F
:1028E4002000530065007200690061006C0004035D
:1028F40009040C03000000000000000000000000B8
:082904000000000000000000CB
:00000001FF
