:1000000000000320D1010000351B0000011B00008F
:10001000011B0000011B0000011B0000011B000070
:10002000011B0000011B0000011B0000351B00002C
:10003000351B0000011B0000693000002D3100005D
:10004000351B0000351B0000351B0000351B000070
:10005000351B0000351B0000351B0000351B000060
:10006000351B0000351B0000351B0000351B000050
:10007000351B0000351B0000351B0000351B000040
:10008000351B0000351B0000351B0000351B000030
:10009000351B0000351B0000351B0000351B000020
:1000A000B90E0000C50E0000351B0000351B000016
:1000B000351B0000351B0000351B000021320000FD
:1000C000351B00003D330000351B00005934000093
:1000D000351B000045350000351B0000351B0000B6
:1000E000351B0000351B0000351B0000351B0000D0
:1000F000351B0000351B0000351B0000351B0000C0
:10010000351B0000351B0000351B0000351B0000AF
:10011000351B0000E11F0000351B0000351B0000EF
:10012000351B0000351B0000351B0000351B00008F
:10013000351B0000351B0000351B0000351B00007F
:10014000351B0000351B000031360000351B000058
:10015000351B0000351B0000351B0000351B00005F
:10016000351B0000351B0000D10E0000351B0000C0
:10017000351B0000351B0000351B0000351B00003F
:10018000351B0000351B0000351B0000351B00002F
:10019000351B0000351B00001D370000351B00001B
:1001A000351B0000351B0000351B0000351B00000F
:1001B000351B0000351B0000351B0000351B0000FF
:1001C000351B0000351B0000351B0000351B0000EF
:1001D0005C4B4CF2205210B51A804DF628121A8052
:1001E00000BF00BF01F0AAFC574B4FF030621A600D
:1001F000564A9A60564ADA60564B4FF470021A60BB
:10020000554B564A1A60564B1A78110748BF1A7850
:10021000544944BF42F008021A70534BAA221A7084
:10022000524A534B8B4204D252F8040F43F8040B4A
:10023000F8E7504B504A0021934202D243F8041B86
:10024000FAE74E4A4E48002350F8231042F8231094
:100250000133742BF8D14B4B4B4A802103F8011B1F
:100260009342FBD1494B454A1A60494B8A221A7086
:10027000A3F5805324225A70A0221A709A7992070B
:10028000FCD59A79D406FCD4424A937903F00C0346
:10029000082BFAD1404B60221A70404A1378802B09
:1002A000FCD13C4B01221A715D225A719A79900659
:1002B000FCD59979374A4906FBD5394B394919603C
:1002C0000021596020231370937903F00C030C2B49
:1002D000FAD1354B354A1A60354A364C136813F457
:1002E000807302BF23604FF4A8531360324B334A2C
:1002F0001A6000225A60072243F8042C304AC3F8DF
:100300000C2D62B601F00EFD2368DA0705D52D48E5
:1003100001F070FC2C4B2D4A1A602D4B1B785B06AC
:1003200009D5294C294B22689A4204D1254801F06D
:1003300061FC0023236004F0C9F801F005FC01F022
:100340001BFBFEE70E20054030800440823F040086
:100350000100002B88ED00E0002008E0030000858C
:1003600002D007407409FF1F00E00740F848000072
:100370003007FF1F7809FF1F180FFF1F0002FF1F24
:100380000000000000E400E064E400E008ED00E0AC
:10039000005006400040064001E0074003E00740EF
:1003A000448004400000060204800440C01007009E
:1003B00010D0034014D0034014E000E01FBF02003F
:1003C00000002020951F095E1CE00340A5C3945A3D
:1003D00000F00740FFFFFFFFFFFFFFFFFFFFFFFFF2
:1003E000FFFFFFFFFFFFFFFFFFFFFFFFFFFFFFFF1D
:1003F000FFFFFFFFFFFFFFFFFFFFFFFFFFFFFFFF0D
:10040000FFFFFFFFFFFFFFFFFFFFFFFFDEF9FFFF23
:1004100010B5054C237833B9044B13B10448AFF33E
:1004200000800123237010BD7809FF1F0000000029
:10043000FC480000084B10B51BB108490848AFF351
:1004400000800848036803B910BD074B002BFBD0A0
:10045000BDE81040184700BF000000007C09FF1FE6
:10046000FC4800007409FF1F0000000038B5C9B245
:10047000054601F0C5F90446284601F075F9204407
:1004800038BDFFFF73B50E462049C0F8B810C0F85C
:10049000BC10044600F1B80593E803001C4B1B6830
:1004A000019385E80300019BC4F8B4600025202671
:1004B000C4F8C830C4F8B02029463246C4F8C05049
:1004C000C4F8CC50204601F0F9FA32462946A0196A
:1004D00001F0F4FA3246294604F1400001F0EEFA48
:1004E00032462946182604F1600001F0E7FA324648
:1004F000294604F1800001F0E1FA3246294604F170
:10050000980001F0DBFA204602B070BD00007A448A
:10051000FC0AFF1F064B82B01B680193019BC0F8C9
:10052000C8300023C0F8CC30012002B0704700BFB3
:10053000FC0AFF1F2DE9F04F2DED028BA74AD0F8E2
:10054000C8101368D0ED307A83B0B8EE678A009394
:10055000009B5B1A07EE903AD0F8B010C0F8C0309C
:10056000F8EE677A8B42044637EEC88A28D91368BA
:1005700001930027019BC0F8C83000F14006C0F885
:10058000CC70C0F8C07005460FCE0FC596E80F00BE
:1005900004F1600685E80F000FCE04F120050FC5B9
:1005A00096E80F0085E80F002022394604F140004C
:1005B00001F084FA2022394604F1600001F07EFA4D
:1005C00004F180060FCE04F198050FC596E80300EC
:1005D00085E80300D4F8B40000F01AFF98B3D4F80B
:1005E000B40000F0BBFFD4F8B400B0F9321000F052
:1005F000D9FCDFED7B7A20EE270AF7EE007AB5EE24
:10060000C00AF1EE10FA84ED200AD8BFB1EE400A1C
:10061000B4EEE70AF1EE10FA07D50023C4F88030F3
:100620000121D4F8B40000F0FDFF94ED207AD4ED60
:10063000287AE8EE077A94ED297AC4ED227AA8EEBA
:10064000277A84ED237AD4F8B40000F0B9FFD4F807
:10065000B400B0F9301000F09CFCD4ED277A84EDA2
:10066000210A70EE677A022187EE887A5D48D4ED20
:100670002B7A84ED247AE8EE007AC4ED257A02F034
:1006800083FB594801F070F8D4F8900003F0DEFACB
:1006900041EC100B02215448FFF7E8FED4F8840027
:1006A00003F0D4FA41EC100B02214F48FFF7DEFEB5
:1006B000D4F8940003F0CAFA41EC100B02214A4826
:1006C000FFF7D4FED4E9168994ED218AD4ED277A78
:1006D00094ED2F7AD4E91E0178EE677A18F10106BD
:1006E000F5EEC07A49F1000710F1010A41F1000B63
:1006F000F1EE10FAD8BFF1EE677AF4EEC77AF1EEB8
:1007000010FAC4E91667C4E91EAB25D503F08AFECA
:10071000594608EE900A504603F084FED4ED1C6A58
:1007200094ED247AA6EEA87A07EE900AC7EE276A1F
:1007300094ED1A7AC4ED1C6AA8EE878AD4ED186A83
:1007400088EE277A84ED1A7A94ED257AA8EEA67AB7
:10075000C7EE276AC4ED186A94ED208AD4ED267A94
:1007600094ED2E7A78EE677AF5EEC07AF1EE10FA13
:10077000D8BFF1EE677AF4EEC77AF1EE10FA27D51A
:100780004946404603F04EFE394608EE900A304690
:1007900003F048FE94ED147AD4ED126AA7EE288A8D
:1007A00007EE900A88EE277A84ED147A94ED227A87
:1007B000A8EEA67AC7EE276A94ED237AC4ED126AF2
:1007C000D4ED106AA8EEA67AC7EE276AC4ED106AC7
:1007D000012003B0BDEC028BBDE8F08FFC0AFF1FC7
:1007E000CDCC1C41284500008008FF1F7047FFFF4B
:1007F00007B5124B12481B680193124B019A1A60FD
:1008000000225A60FFF786FE0F4800F0B9F80E4B41
:100810000E481E226B2100F024FE40B907210C482F
:1008200002F0B2FA4FF47A7001F066FAF6E70121AD
:10083000064800F0F7FE03B05DF804FBFC0AFF1F5A
:10084000280AFF1F9809FF1FA807FF1FA009FF1F05
:100850002B45000008B50448FFF76CFE4FF47A7092
:10086000BDE8084001F048BA280AFF1F38B5094D15
:10087000094C284600F03DFB2946084B42F2107215
:100880002046FFF7FFFD2046054A0649BDE83840EF
:1008900002F0EEBFA009FF1F280AFF1F3407FF1F49
:1008A0003007FF1FED0700000020704790F8392047
:1008B00090F83800101A704790F8383090F83920C6
:1008C0009A4281BF5A1C1B1880F83820187E98BFA6
:1008D0004FF0FF30704790F8383090F839209A4246
:1008E00086BF1B18187E4FF0FF3070477047B0F876
:1008F0005E302BB190F85D30202B03D901230371BA
:10090000002070475A1C034480F85D2083F83B1098
:100910000120704738B50446B0F85E001546A0B116
:1009200094F85D30C3F12102954282BF0120154643
:10093000207104F13B0018442A4601F025F894F890
:100940005D302B4484F85D30284638BD43691A6811
:100950005B6812681A420ED0074B9942036901D8AE
:100960002C2204E0054A914294BF1C2212225A70A4
:10097000036904229A7170477F1A06003F420F00F4
:1009800070B50023456980F8383080F8393080F838
:100990005C3080F85D3080F85E3080F85F30296828
:1009A0006A680E684366324383660A600269937020
:1009B000466990F86110124A31440D7A4B7B02EB84
:1009C000C5051B026D6803F4E06343F064032B600C
:1009D00090F862303344997CDB7D02EBC1021B024C
:1009E0005268084903F4E06343F064031360FFF7BF
:1009F000ADFF036920225A71036980229A7070BD8D
:100A0000D0450000A086010038B50269D578EDB266
:100A100015F0100F044605F0400303D103F0FF0169
:100A20002BB92AE01021D170002BF7D138BD05F089
:100A3000040505F0FF02374BCDB100221A70636E3A
:100A400084F85D2003B1984794F85D3023B9012202
:100A500084F85D2084F83B302369D0229A702369A2
:100A600094F83B201A71012384F85C304DE0012199
:100A7000197084F8392023692DE022699379DBB25B
:100A800003F06000602809D103F0DF039371A36EC7
:100A900023B184F8381094F83900984723699A787C
:100AA00002F0100202F0FF01D2B115F0010512D1DF
:100AB00094F85C2094F85D10914281BF511C12198A
:100AC00084F85C1092F83B208CBF1A711D71236969
:100AD000D0229A7019E0C0229A7023691B7914E021
:100AE00084F860109A7942F020029A7123691A7989
:100AF00094F839301F2BD2B207D80649097821B1B2
:100B0000591C234484F839101A7623690222DA70BA
:100B100038BD00BFF80AFF1F2DE9F347354D364FAA
:100B20002B680093DDF80080044600214FF4967690
:100B30002269D3789B0658D52B680193019BC8EB9B
:100B400003030F2BF4D9002947D1626994F861306F
:100B500013440521187A01F07DF8626994F8613038
:100B60001344012193F812A0504601F073F84FF09E
:100B700009090021504601F04DF83346013BFDD1F3
:100B80000121504601F046F83346013BFDD1B9F151
:100B90000109EED1606994F861200244117A537B17
:100BA00007EBC1011B02496803F4E06343F06403EF
:100BB0000B6094F8623003449A7CDB7D07EBC20241
:100BC0001B02526803F4E06343F0640313604FF4C4
:100BD0001673013BFDD10121AAE7102BA8D00020FC
:100BE0009070236980229A7000E0012002B0BDE875
:100BF000F08700BFFC0AFF1FD04500002DE9FF4130
:100C000003691222DA700269937803F02003044624
:100C10000D4603F0FF0613B1B423937008E0FFF70D
:100C20007BFF002860D0236984F85F60B0229A704F
:100C30002F4B21691A680092009ECA7802F02002A8
:100C400002F0FF00002A45D00020022794F85D2022
:100C5000C1B28A4235D96618226996F83B6016718E
:100C60001A680392DDF80C802669F278D2B202F09D
:100C7000020E0EF0FF0CBEF1000F0BD1920609D54B
:100C80001A680292029AC8EB0202052AEDD986F888
:100C900002C026E0F7702669F278D2B212F0100F87
:100CA00002D112F0200F03D18023B370042009E099
:100CB000D20700F10100C9D500290CBF0220032092
:100CC00001E0002015B1236980229A70002384F886
:100CD0005E300AE01A680192019A921B042AACD98C
:100CE0008870236980229A70042004B0BDE8F081E6
:100CF000FC0AFF1F2DE9F0439946002380F83830A5
:100D000080F83930036917461222DA700269937845
:100D100003F0200389B00546884603F0FF0413B1B1
:100D2000B423937009E0FFF7F7FE002800F0BD80C0
:100D30002B6985F85F40B0229A705E4E2A6933684D
:100D400000930099D37803F0200303F0FF0433B934
:100D500033680193019B5B1A042BF3D917E04FEA28
:100D6000480848F001085FFA88F882F80480336880
:100D7000029302992A69D37803F0020303F0FF0477
:100D80004BB933680393039B5B1A052BF3D994701B
:100D90002B69802210E00223D3702B69D87810F0E1
:100DA000110403D080229A7000247EE037B9B9F193
:100DB000000F14BF8022A0229A7076E0012F0CBF92
:100DC000A822A0229A702B691B7900200221A82456
:100DD000012F2A6933682BD00493DDF810C0D37833
:100DE00003F0020303F0FF0E4BB933680593059B34
:100DF000CCEB0303052BF2D982F802E04FE0D1706F
:100E00002A69D378DBB213F0100F4DD19B064BD576
:100E1000013FFFB2012F08BF94702B691F289FBFAD
:100E2000421C40191B7903768CBF1B79D0B2CFE7E7
:100E30000693069CD37803F0020303F0FF013BB94D
:100E400033680793079B1B1B052BF3D9917026E092
:100E50000223D3702A69D378DBB2D9060BD51023CD
:100E6000D3704FF49673013BFDD12A69937803F058
:100E7000F703937018E09B0616D5B02393701F28D4
:100E80002B699FBF421C40191B7903768CBF1B79CD
:100E9000D0B200BF00BF00BFB9F1000F02D02B6974
:100EA00080229A7085F839000446204609B0BDE8D2
:100EB000F08300BFFC0AFF1F0148FFF7A5BD00BF7C
:100EC000A807FF1F0148FFF79FBD00BF1408FF1FC1
:100ED0000148FFF799BD00BF3C07FF1F03684FF0B3
:100EE0000042DA625963DA6A002AFCDA986BC0B20F
:100EF00070477047062101730177FF2180F82010A9
:100F00000421F52380F824100721012230B5438104
:100F10000224002380F82510032102724275827595
:100F2000C2750276827642778277C277C47680F87D
:100F3000232080F8271080F8281043738373C3732D
:100F4000037443748374C374037580F8213080F88C
:100F5000223080F8263080F82930054680F82A3083
:100F6000044680F82B200A460021013A2964E964EE
:100F7000A96504F10204A4F86230A4F86830A4F86A
:100F80006E3005F10405F0D14FF0000380F8843095
:100F900030BD07EE901AB8EEE70AD0ED1E7A20EECB
:100FA000270A704707EE901AB8EEE70AD0ED1F7ACD
:100FB00020EE270A7047FFFF4389B3F5FA7F06D07A
:100FC000B3F5FA6F05D0F52B05D1034B02E0034BC7
:100FD00000E0034B83677047295C0F3C295C8F3C22
:100FE000295C8F3DC37E042B0AD002D8022B05D08A
:100FF0007047082B06D0102B06D07047044B04E036
:10100000044B02E0044B00E0044BC367704700BF91
:1010100040DA7F3840DAFF3840DA7F39B0E33F3AD0
:1010200090F82430043B0C2B11D8DFE803F00710B4
:101030001010091010100B1010100D00044B04E0DC
:10104000044B02E0044B00E0044BC0F880307047D2
:10105000F7CC1239240B98399F71E139240B183AD7
:101060004389F52B07D0B3F5FA7F04D0B3F5FA6FB7
:101070001CBFF5234381C27E102A03D8084BD340FE
:10108000DA0701D40223C37690F82420102A03D86B
:10109000044BD340DB0702D4042380F8243070478C
:1010A0001401010010110100F8B50C460A4D174655
:1010B000204600211E4600F0ADFD07F03F01284606
:1010C000FFF70CFF31462846FFF708FF20460121B5
:1010D000BDE8F84000F09EBD3409FF1FF8B51F467B
:1010E00090F876309DF8185002F03F028B420E4681
:1010F00042F0800403D1012D88BF44F04004002158
:10110000304600F087FD21460948FFF7E7FE3C46E0
:10111000E31B9D4206DD00210548FFF7DFFE04F8D2
:10112000010BF5E73046012100F074FD2846F8BDBB
:101130003409FF1F1FB5012300930DF10F03FFF7C3
:10114000CDFF9DF80F0005B05DF804FB70B50446B7
:1011500040680125490080F83B1080F85E5080F817
:101160005D5060681E46036811461B6898476068BA
:10117000036831461A68904729466068BDE87040A8
:10118000FFF73CBD13460278012A10B406D10A4687
:101190005DF8044B90F87710FFF7D8BF32B90A46D4
:1011A0005DF8044B90F87710FFF77EBF5DF8044BB5
:1011B000704710B5037A044613B1037B5B01DBB2C1
:1011C0006289B2F5FA7F05D0B2F5FA6F04D143F027
:1011D000180301E043F00803627B02F003021A43A4
:1011E00010212046FFF7CEFF002211212046FFF7F5
:1011F000C9FFA37B002BE37B14BF802200222BB10D
:10120000237C03F00F0343F040031A4312212046CE
:10121000FFF7B8FFE37D002BA37D0CBF0022202247
:1012200013B142F01002D2B2637D0BB142F008025A
:10123000237E0BB142F002021E212046FFF7A2FFDF
:10124000637C002BA37C0CBF0022202213B142F050
:101250001002D2B2E37C0BB142F008022046132107
:10126000BDE81040FFF78EBF10B5C37F002B837F12
:1012700004460CBF0022202213B142F01002D2B269
:10128000637F0BB142F008021F212046FFF77AFF6F
:10129000A27E12B1227F5201D2B2E37E082B06D089
:1012A000102B07D0042B07D142F0100204E042F0CB
:1012B000180201E042F0080294F92030002BA2BF8E
:1012C00003F003031A4342F0040220212046FFF7F3
:1012D00059FF94F8212032B194F82220520102F0F3
:1012E000600242F0800220462121BDE81040FFF755
:1012F00049BF13460278012A10B406D10A465DF8A8
:10130000044B90F87610FFF721BF32B90A465DF81A
:10131000044B90F87610FFF7C7BE5DF8044B70479A
:1013200010B590F82630002B90F827304FEA431381
:1013300003F0600190F825304FEA830303F01C03AB
:10134000044643EA01030CBF002280221A432021F5
:10135000FFF7CFFF94F82430083BDBB2082B96BF91
:10136000124A0022D25C20462121FFF7C2FF94F8E6
:101370002930002B94F82A300CBF0022202203F0E1
:1013800003031A4320462221FFF7B3FF94F82820D5
:101390009200204602F00C022321FFF7AAFF20460C
:1013A00000222421BDE81040FFF7A3BFB84500008C
:1013B000436870B501250E46490083F83B1083F859
:1013C0005E5083F85D5004464068036811461B6810
:1013D000984700216068FFF711FC2B462A463146EA
:1013E0006068FFF787FC606803685B699847C0B274
:1013F00070BD0A460178012903D190F87710FFF7F4
:10140000D7BF19B990F87710FFF794BEFF20704747
:1014100008B52721FFF7EDFF00F0010008BD38B542
:101420000D4623210446FFF7E4FF1DB140F0020200
:10143000D2B201E000F0FD0220462321BDE8384091
:10144000FFF7A0BE0A460178012903D190F8761073
:10145000FFF7AEBF19B990F87610FFF76BBEFF200B
:10146000704738B50125436005704170827080F87F
:10147000771080F876200446FFF73CFDFFF7F0FD7B
:10148000FFF79AFDFFF7CCFDFFF7ACFD0F21FFF74B
:10149000D9FF0F2105462046FFF7ABFF45EA0020A4
:1014A00005B246F63D039D420AD12046FFF781FE74
:1014B0002046FFF7D9FE2046FFF732FF284638BD09
:1014C000002038BD2DE9F0411F4643689DF81860A3
:1014D00001258846490083F83B1083F85E5083F865
:1014E0005D5004464068036842F080011B689847DD
:1014F00000216068FFF782FB98B92B4632464146CF
:101500006068FFF7F7FBB04205460AD13E46F31B81
:101510009D4207DD606803685B69984706F8010B28
:10152000F5E700252846BDE8F08137B50D4601787E
:10153000012907D190F87710009313462A46FFF748
:10154000C1FF09E039B990F87710009313462A4695
:10155000FFF7C4FD00E0FF2003B030BD13B5062344
:101560006A4628210446FFF7E0FF062826D19DF8A9
:1015700000309DF801109DF803209DF8050043EA16
:1015800001219DF8023043EA02229DF8043043EA2B
:10159000002394F8840009B212B21BB26186A286BD
:1015A000E38658B1B4F86A00091A6186B4F86C1081
:1015B000521AA286B4F86E209B1AE38602B010BDC0
:1015C00013B506236A4618210446FFF7AEFF062826
:1015D00026D19DF800309DF801109DF803209DF85C
:1015E000050043EA01219DF8023043EA02229DF8FA
:1015F000043043EA002394F8840009B212B21BB20B
:10160000A185E285238658B1B4F86400091AA18542
:10161000B4F86610521AE285B4F868209B1A238643
:1016200002B010BDF0B52DED028B89B00023044649
:101630000D460121029303930493059306930793A8
:10164000FFF7EDFE3F222E212046FFF79BFD2F21C5
:101650002046FFF7CEFE00F03F061E2EF7D90027EA
:10166000B7EE008AB74230DA2046FFF7A9FF059AA5
:10167000B4F92C3013440593069AB4F92E30134470
:101680000693079AB4F93030204613440793FFF7C6
:1016900065FF94ED1F7A029AB4F93230C8EE077AEA
:1016A00013440293039AB4F9343013440393B4F906
:1016B00036300137FDEEE77ACDED017ABDF9042031
:1016C0009B1A049A13440493CCE7D4ED1E6A94ED5C
:1016D0001F7A04F1620E04F1400704F1680004F17E
:1016E0004C01002205AB53F8223093FBF6F31BB2FA
:1016F00007EE903AF8EEE77A2EF8023F02AB67EE7B
:10170000A67A53F8223093FBF6F31BB2E7EC017A8A
:1017100007EE903AF8EEE77A013267EE877A032A0D
:1017200020F8023FE1EC017ADCD100212046FFF7EE
:1017300076FE00222E212046FFF724FD15B101235D
:1017400084F8843009B0BDEC028BF0BD70B504465E
:1017500008460D4602F0E0FE236802462946204670
:101760005B68BDE87040184707B5064B1B88ADF8AD
:101770000430036802225B6801A9984703B05DF852
:1017800004FB00BFC145000070B505468AB022B910
:101790000368C9B21B6898472FE0012A08BF0A22D4
:1017A00009B1212004E030228DF82520212014E009
:1017B000B1FBF2F602FB1611CCB2092994BF04F179
:1017C000300104F137010AAC0444C9B204F8241C06
:1017D000314616B10138C0B2EAE733B10138C0B2C0
:1017E0000AAB03442D2203F8242C2B6801A9C0F175
:1017F000220201445B68284698470AB070BDFFFF8B
:101800002DE9F04F55EC104B85B007460E4610EE13
:10181000102A2B4610EE100A294602F005FD08B1E9
:101820004D4912E025F000494FF0FF324B4B204666
:10183000494602F0F9FC68B94FF0FF32474B2046A9
:10184000494602F0D3FC28B945493846FFF77EFFE8
:10185000804677E04FF06042424B2046294602F036
:10186000D9FC08B14049F0E74FF060423F4B2046B9
:10187000294602F0B1FC0028F4D1002200232046C2
:10188000294602F0A9FC28B105F100431D464FF09E
:10189000010800E0804636494FF0000900205FFA59
:1018A00089F39E4207D92AA3D3E9002302F022FA42
:1018B00009F10109F3E702460B462046294602F0EA
:1018C00067F80D46044602F0C5FC434601468146D2
:1018D0000A223846FFF758FF80469EB3484602F07A
:1018E00093F90B4602462946204602F04FF80F2E88
:1018F0004FF02E0328BF0F268DF800300DF10105A3
:101900003446013CE4B2FF2C15D00022194B02F002
:10191000F1F98B46824602F09DFCC0B200F1300323
:1019200005F8013B02F080F902460B465046594645
:1019300002F02CF8E5E73B68721C5B68D2B269469E
:1019400038469847404605B0BDE8F08FAFF30080B9
:10195000000000A09999B93FC3450000FFFFEF7F49
:10196000CB450000FFFFEF41C7450000FFFFEFC17F
:101970000000E03F0000244008B5FEF739FFFEF705
:1019800069FF01F0F5FAFAE7844641EA000313F033
:1019900003036DD1403A41D351F8043B40F8043B76
:1019A00051F8043B40F8043B51F8043B40F8043B39
:1019B00051F8043B40F8043B51F8043B40F8043B29
:1019C00051F8043B40F8043B51F8043B40F8043B19
:1019D00051F8043B40F8043B51F8043B40F8043B09
:1019E00051F8043B40F8043B51F8043B40F8043BF9
:1019F00051F8043B40F8043B51F8043B40F8043BE9
:101A000051F8043B40F8043B51F8043B40F8043BD8
:101A100051F8043B40F8043B403ABDD2303211D378
:101A200051F8043B40F8043B51F8043B40F8043BB8
:101A300051F8043B40F8043B51F8043B40F8043BA8
:101A4000103AEDD20C3205D351F8043B40F8043B78
:101A5000043AF9D2043208D0D2071CBF11F8013B76
:101A600000F8013B01D30B8803806046704700BF3C
:101A7000082A13D38B078DD010F003038AD0C3F14B
:101A80000403D21ADB071CBF11F8013B00F8013B2D
:101A900080D331F8023B20F8023B7BE7043AD9D3EC
:101AA000013A11F8013B00F8013BF9D20B780370C1
:101AB0004B7843708B7883706046704701B5EAB10C
:101AC000102A17DB00F0070333B1C3F10803D21A61
:101AD000013B00F8011BFBDCC9B241EA012141EAEC
:101AE00001418C46D308013BE0E8021CFBDC12F00C
:101AF000070203D0013A00F8011BFBDC01BD00BF67
:101B000008B50B4D2C462B68580301D500F068FA38
:101B10002368590501D501F083FB23681A0501D517
:101B200001F00CFC2368DB04EDD501F095FCEAE73D
:101B30003480044008B5FFF7E3FFFFFF014B10229C
:101B40001A807047002005407047FFFF094B1A7844
:101B5000802A0DD1084A0949116002F5573202F274
:101B6000BD32002111701A78802AFCD00120704704
:101B70000020704703E00740448004400000282212
:101B8000094B1A78012A0DD102F1804202F5FC229C
:101B9000602111701A78802AFCD1044B044A1A6023
:101BA000012070470020704703E007404480044054
:101BB0000000060230B503460020B3FBF2F402FB3E
:101BC0001433092B94BF30333733DBB20B54234625
:101BD0000CB10130F1E70A1823465470C41AA3422D
:101BE00006DACC5C1578CD5402F801490133F5E7EB
:101BF000084630BD044B054900221A600A60044AB9
:101C0000106010221A60704714D0034004D00340C3
:101C100000D003403F2810B518D80D4B53F83020A2
:101C200092F880423CB1012311B182F8803010BD9E
:101C300082F8003110BD03EBC0035B681A6811B174
:101C400042F0030201E022F002021A6010BD00BF60
:101C5000D04500003F2810B52BD8164A02EBC00330
:101C600001295B68144601D004290FD154F83020B3
:101C7000012082F880024FF4A2721A601A680429C7
:101C80000CBF42F0200222F0200211E052F8300096
:101C9000002280F8802211B94FF4807208E00229F6
:101CA00002D140F2031203E0032908BF4FF481720E
:101CB0001A6010BDD045000072B60C4B0C4A0D499D
:101CC0001B681268096862B6490102D5322B88BFC9
:101CD0000132C3F52F33B42003F21F33B3FBF0F30B
:101CE0004FF47A7000FB0230704700BF18E000E04C
:101CF000FC0AFF1F04ED00E038B50446FFF7DCFFE7
:101D0000054624B938BD013C0AD005F57A75FFF7C0
:101D1000D3FF401BB0F57A7FF5D201F029F9F6E741
:101D200038BDFFFF374B38494FF0006270B51A607D
:101D30004FF080521A604FF000521A604FF080420C
:101D40001A604FF000421A60304B314D314C324E28
:101D500000224EF6FF701A60586028230B608B60DB
:101D60000B618B610B628B620B638B63103101F52E
:101D700001212B6023600B608B600B618B610B6218
:101D80008B620921316006F580560436326070603E
:101D9000B360336146F8041C06F5FE2632607060BD
:101DA000B360336146F8041C06F5805632607060FB
:101DB0001A482B6023600160A0F5E120A0F2D470E6
:101DC000016841F40071016050F8281C41F0007175
:101DD00040F8281C12490A60124A47F6FF71116048
:101DE0005360D360104B08221A6001F0ADF919203E
:101DF000FFF782FF00F08CFE40F21310BDE8704048
:101E0000FFF77ABF04E100E00C8003400480034048
:101E10000C900B4014900B400080034000900B404E
:101E200004900C4008900C4000900C40431E032B83
:101E300014D872B60A4951F8230068B170B4094C3D
:101E4000058834F81320466841F82360521B24F8B3
:101E5000132062B670BC704762B6704700207047AE
:101E6000580BFF1F020FFF1F013803280BD872B653
:101E7000074B53F8203043B100205B680130002B42
:101E8000FBD162B67047002070471846F9E700BFE3
:101E9000AC0BFF1F30B472B62B4A13781D0706D562
:101EA0002A4B196A002936D0996A002941D0537803
:101EB0001C0706D5254B196C00293ED0996C0029CA
:101EC00039D09378190705D5204B196E002936D0E3
:101ED000996E89B1D3781B0707D51C4BD3F88020A6
:101EE0007AB3D3F8882011213AB162B6184B002298
:101EF0001A7030BC00F0BEBE0D21154C154D227875
:101F000043F8315003EBC1030830013A58602270A6
:101F100062B630BC704704220D4C0F4D217843F857
:101F2000325003EBC20308304A1E5860227062B67A
:101F3000EFE70521E1E70921DFE70822ECE70C22C2
:101F4000EAE71022E8E700BFF84700000000FF1FA3
:101F5000D50BFF1FC800400088004000431E032B24
:101F60001DD81B4A400140F0100030B4104472B636
:101F7000184CE25C032A1BD8DFE802F002121517A6
:101F800003220D88E25410F0080F14BFC8238823E1
:101F900043EA054308310360416062B630BC7047D4
:101FA00008300222EDE70522EBE708300422E8E7DB
:101FB000094A52F8230038B1084A52F82300416018
:101FC00042F8231062B6E9E742F82310034AF7E724
:101FD0000000FF1FE40BFF1FAC0BFF1FBC0BFF1F1C
:101FE0002DE9F04FB54CB64E87B046E0B54F4FEAFD
:101FF000930B07EBCB08013DD8F8041003F008035E
:10200000EDB2A1F1080003F0FF02002B40F01081B7
:1020100057F83B301B0C1FFA83FE21F808EC002B0D
:1020200000F0FD80A84B21F8062C41F8042C53F851
:102030002520002A00F0DF82DFF8CCA25AF82530F4
:102040005860DFF8C8924AF8250039F815309E44E8
:1020500029F815E000F0F0FD002800F0C5829B494A
:102060009B4B18F0080F00F1080018BF0B46C8F88A
:10207000040047F83B30082323702578EDB2690748
:1020800019D5944B1B78A3B193490A7802F0FF034A
:1020900022B1013BDBB20B7003B900BE8F490A7855
:1020A00002F0FF032AB1013BDBB20B70002B00F002
:1020B00071820423237005F0080303F0FF02002B54
:1020C00000F0DC803378DBB21D098FD19B087D4D99
:1020D00055F8332005EBC301C2F38302013A496886
:1020E0000C2A00F29880DFE802F08C8C9696969687
:1020F00096964D96969607000868DFF8F4E14A68D0
:10210000DFF80CB2764FCEF80420CEF8000082B291
:1021100040F281600021DFF8B49145F833904FF030
:10212000010C8242CBF800102961A96187F800C038
:10213000DFF8909100F2F080B2F5D06F80F08F83DD
:10214000B2F5817F00F0218300F2A882802A00F09E
:102150006283822A40F02083BEF8043003F07F03BC
:10216000042B00F219835F4A5F489B001A440170F8
:10217000417013789B0740F17A8480F800C04FF0DB
:10218000020C4DE3DFF888B1DBF8003073B3DFF801
:1021900084A1534F554ABAF8001097F800E0107820
:1021A00040298C4640F0020928BF4FF0400CBEF198
:1021B000000F8EF0010E87F800E0CCEB01010CBFA0
:1021C0008827C82705EBC90E89B280F0010047EACD
:1021D0000C47CEF80430AAF8001045F83970634473
:1021E0001070002900F04581CBF80030404B1A8870
:1021F000B2F5A06F0FD13F4A9978117000225A7042
:1022000009E03B4A108842F22102904200F03681F8
:102210002E4A45F83320384A012313702BE72B4907
:102220002B4B18F0080F18BF0B4647F83B3022E73E
:1022300000F020FD3148324A50F82510002900F006
:1022400013824B6812F805C040F8253001F10803ED
:10225000C8F80430BCF1030F05D8DFE80CF02C02FD
:1022600029260223535518F0080F0A880CBF88232B
:10227000C82343EA024347F83B30FCE6E80700F195
:102280008C81290600F10082AA0706D51D4A0B4958
:1022900013780220DBB213700870EB0602D5074BEF
:1022A00010221A7007B0BDE8F08F04235355DAE707
:1022B00005235355D7E703235355D4E78020074020
:1022C000902007400000FF1F580BFF1FC800400070
:1022D00088004000E00BFF1F690BFF1FE80BFF1F8A
:1022E000680BFF1FC0200740D80BFF1FD40BFF1F38
:1022F000CC0BFF1F9820074094200740AC0BFF1F1A
:10230000E40BFF1F88200740040BFF1F020FFF1F75
:10231000000BFF1F140BFF1F42F221039A4200F033
:10232000358100F2D980B2F5086F00F0B382B2F5C2
:10233000106F40F03182B24AD9F820309EF8021076
:1023400011701A0600F14383AB6AAE4A1B0600F116
:1023500039832B6BAB4A180600F14E83AB6BA94A4D
:10236000190600F144832B6CA64A1B0600F13A8340
:10237000AB6CA44A180600F130832B6DA14A1906F4
:1023800000F16483AB6D9F4A1B0600F15A832B6EEC
:102390009C4A180600F15083AB6E9A4A190600F168
:1023A00046832B6F974A1B0600F13C83AB6F954A1F
:1023B000180600F13283D5F88030924A190600F1F0
:1023C0002683D5F888308F4A1B0600F11A83D5F88A
:1023D00090308C4A180600F14483D5F89830894A29
:1023E000190600F1388300230193874B0293874B32
:1023F0000393874B0593DFF860A2864BDFF85C926E
:102400000493029B186830B1D0F8048000F032FCCD
:1024100040460028F8D1039B1868029B1A46002307
:102420001360019B1A4600234AF8223030B1D0F8DD
:10243000048000F01FFC40460028F8D1039A049B5A
:10244000114600220A60059A1B781146002241F8C5
:10245000042B019A0591023B4FF0000129F812105C
:10246000032B00F23F81DFE813F08B0139018B0170
:102470003901BCF1400F18BF0023B5E6664A0F785A
:102480004878177050708F78C8789770D07010683F
:102490000F79177186284F7989799171577108BF23
:1024A0005E4A5F4F04BF0F2111705E4A3878117881
:1024B000002881F0010E41F0020182F800E00CBF1B
:1024C0008822C82245F8312005EBC10180F00100C7
:1024D000002238704A609BE642F221239A4240F083
:1024E000E781DFF87C91504B504A9EF80200D9F802
:1024F00000E0C3F800E00191CDF808C010700021A1
:10250000029B03918A4689460846464A92F800E0B3
:102510004EF0020C05EBCC08002BC8F804000CBFF1
:102520008820C82040EA0A0A9DF8043045F83CA0FB
:102530008EF001003B701070DFF8C8C0DFF8E0805B
:10254000DFF8E0A0002940F02E81B9F1400F1DD145
:1025500040F0020005EBC005039B6B60019DDFF8B6
:10256000A4C0002D40F036810D0445F088084CF8D9
:1025700030809DF808503D7082F800E00B444029FF
:1025800004D100212A4ACBF800301180294A0123C6
:10259000137040E600F0C8FC8BE51A4B2548214932
:1025A0001A614FF0020E80F800E0234F0A702349B1
:1025B00019609960224E234D234C9A610D21397088
:1025C000FF213170DFF89CE0297022701F4D204AF6
:1025D0008EF800109F27012406F8047C5D600470CB
:1025E000DA6007B0BDE8F08F1A4A47F83B0013786D
:1025F000013313703FE543F82500DFF85CA020E5C8
:10260000E00BFF1F0000FF1F580BFF1FAC0BFF1F4D
:10261000BC0BFF1FE40BFF1F0C0FFF1F690BFF1FFD
:10262000680BFF1FD40BFF1F140FFF1FF80BFF1FBA
:10263000140BFF1F94200740C02007408800400073
:10264000882007408020074098200740180BFF1F74
:102650006C0BFF1FD50BFF1F040BFF1F020FFF1F8B
:10266000FC0AFF1F8C200740535D032B00F2CC8037
:1026700001A151F823F000BF77200000772000006F
:10268000D7260000D1260000BE49BF4B80220D2076
:1026900008701A70AA077FF500AEF7E540F2023322
:1026A0009A4240F0FC80BEF8042002F07F02042A27
:1026B00072D8BEF80230002B6ED1B249019392005D
:1026C0001144CDF808C00A7842F002020A7016E7F9
:1026D00001235355CFE400235355CCE4049B4FF022
:1026E00001021A70029A019B04320292039A043288
:1026F0000392049A01330132042B019304927FF474
:1027000080AEDFF8B492DFF8B4A299F800309F4AA7
:1027100000218AF8001013701B0700F10A8199F854
:1027200001309B4ADFF89882137018074FF00002BF
:102730002A63AA6300F1E88099F80230954ADFF82D
:102740008082137019074FF000022A65AA6500F114
:102750000381914A99F80330137000222A67AA670F
:102760001A07DFF85C9200F1B8803B7802930022F0
:1027700083F001030193C5F89020C5F89820BEE6C8
:10278000049B4FF000021A70ACE7BEF8042002F080
:102790007F02042A40F291807A4B0F221A707F4AFE
:1027A0000123137037E540297FF6D2AE40F00200D6
:1027B0000CEBC002039B5360019AC2B1784A9DF8AA
:1027C000085088F8005040398AF800E040334CF84F
:1027D0003020D7E69DF808303B700D04039B82F84B
:1027E00000E045F0C8050B444CF83050C7E69DF8B2
:1027F000083088F80030039B6A4A8AF800E04039C4
:1028000040334CF83020BDE618F0080F0CBF02230F
:10281000032353552FE464484FF0020C01704170BC
:10282000BEF80610614580F06181604A92F800E0D0
:102830004EF0020C05EBCC034029894628BF4FF02F
:102840004009586000EB090303930023019301231F
:10285000C9EB01014FEA094A0293C82062E6544BD2
:102860005868002898D0BEF80210BEF804C003E0F3
:102870000C33586800288FD01A888A42F8D15A88B9
:102880006245F5D1090A03290CBF90F800C0B3F8DE
:1028900008C0C5E7474B44481B780370C0E7B2F552
:1028A000A06F7FF479AF002301930123029326E602
:1028B00042F221339A42F6D06EE7BEF80230002B86
:1028C0007FF46AAF2F49019392001144CDF808C0FC
:1028D0000A7822F002020A7011E600F0ADF9002831
:1028E00000F0D08008302F4BC9F88400C9F8803040
:1028F00000F0A2F9002800F0BD800830284BC5F890
:102900008C00C5F8883030E700F096F9002800F018
:10291000D6800830234BC8F84400C8F8403000F097
:102920008BF9002800F0C48008301D4BE864AB64CC
:1029300002E700F081F9002800F0B3800830194B5D
:1029400068622B6200F078F9002800F0A38008305C
:10295000134BE862AB62E2E600F06EF9002800F08B
:10296000BD8008300F4BC8F86400C8F8603000F034
:1029700063F9002800F0AB800830094BE866AB66CD
:10298000E7E600BFC020074080200740C420074082
:10299000C8200740CC200740D020074094200740A3
:1029A000C800400088004000D80BFF1FD40BFF1F59
:1029B000FC470000E00BFF1FF8470000D50BFF1F8E
:1029C0000000FF1FD06A083800F054F9C1E4D9F8BC
:1029D0002400083800F04EF9B6E4D06C083800F056
:1029E00049F9CAE4506C083800F044F9C0E4D06BEF
:1029F000083800F03FF9B6E4506B083800F03AF9B7
:102A0000ACE4D2F88C00083800F034F9DFE4D2F8F6
:102A10008400083800F02EF9D3E4D06F083800F0B5
:102A200029F9C8E4506F083800F024F9BEE4D06EEC
:102A3000083800F01FF9B4E4506E083800F01AF9B5
:102A4000AAE4D06D083800F015F9A0E4506D0838FC
:102A500000F010F996E4D2F89C00083800F00AF96A
:102A6000C1E4D2F89400083800F004F9B5E44FF05E
:102A7000020CD5E69AF80030C5F8880001338AF8D0
:102A8000003072E69AF80030C9F8800001338AF805
:102A900000302DE79AF80030A86201338AF8003040
:102AA0003DE69AF80030286201338AF8003049E7A1
:102AB0009AF80030A86401338AF800303CE69AF8AE
:102AC0000030C8F8400001338AF8003027E79AF850
:102AD0000030A86601338AF800303AE69AF80030F0
:102AE000C8F8600001338AF8003040E7BCF1400FBD
:102AF000E14628BF4FF0400900EB09030393002390
:102B000001930123C9EB0C014FEA094A0293FCE44B
:102B10002DE9F04100F06EFE314C324B3248DFF8C7
:102B2000E480324EDFF8E0C0314F324DDFF8DCE0B8
:102B300000221A605A609A60DA601A615A619A61DA
:102B4000DA611A625A629A62DA621A635A639A63A3
:102B5000DA631A645A649A64DA641A655A659A6583
:102B6000DA651A665A669A66DA661A675A679A6763
:102B7000DA67C3F880202168C3F8842041F48021FB
:102B80002160016841F040710160032188F8001064
:102B9000A020C3F307218CF8000004F5283431701D
:102BA000C3F30740144938701B0E2B70CC34FF233D
:102BB0008EF80030114D0CF8B83C11480B70012311
:102BC00006F8083C227070264FF40014102207F813
:102BD0002C3C2E70046081F8F820BDE8F08100BF25
:102BE000348004400000FF1F00D800409C200740B4
:102BF000B0200740B42007401020074035E400E033
:102C000004E100E0442107404021074080200740C4
:102C100000F0A2B800F076B800F04EB800F08EB820
:102C200000F054B900F02EB90846114600F0ACB8D7
:102C3000084600F01BB9704710B572B60B48026821
:102C4000B2FA82F10B2902DD62B6002010BD4FF00E
:102C50000043CB4022EA0302026062B6044C4823E0
:102C60004B43E0180022E250426010BD9008FF1F65
:102C7000D003FF1F0C4B4822C31AB3FBF2F30B2BFC
:102C800011D80A4A127822B1094A12780AB1FFF71C
:102C900001B972B607494FF0004222FA03F30A68FD
:102CA0001A430A6062B67047D003FF1FD50BFF1F9F
:102CB000E00BFF1F9008FF1F10B5104C23686BB18D
:102CC000206843885A1C03441C7A03889A4212D312
:102CD000FFF7D0FF094B00221A600DE0084B1B786C
:102CE00013B94FF0FF3010BD0320FFF79FF82060AD
:102CF0000028E5D1F5E74280204610BDF40BFF1F08
:102D0000E00BFF1F10B50B4C236813B122686AB9A2
:102D100002E0094B1B7813B94FF0FF3010BD0320C0
:102D2000FFF784F820600028F0D1F5E753881344BA
:102D3000187A10BDF40BFF1FE00BFF1F044B98889F
:102D4000044B1A681AB1138852889B1A18447047AA
:102D5000020FFF1FF40BFF1F10B5094B1B786BB15F
:102D6000084C206818B1FFF785FF0023236003207B
:102D7000FFF75CF810B1FFF77DFFF8E710BD00BF6B
:102D8000E00BFF1FF40BFF1F2DE9F84F314DDFF86B
:102D9000D490012382460C462B700E464F46002EDF
:102DA00053D0D9F800303BBBDFF8BC80DFF8ACB0C3
:102DB000294B1B7803F0FF010BB9297015E00420A3
:102DC000FFF752F8072807D801232B70FFF734FFCD
:102DD000386088B91F4B1870B8F1010802D09BF811
:102DE000003033B11D4B01221A704FF0FF30BDE8A7
:102DF000F88F00F0BDF8DBE7184B00211970396837
:102E00004B88C3F14000B04228BF304603EB000EB0
:102E10000B44A1F802E0361A07330AEB0008C2455A
:102E200004D01AF8010B03F8010FF8E74B883F2B89
:102E300006D940230B800420FFF790F800233B6065
:102E4000074B05221A70C246A9E72E702046BDE83E
:102E5000F88F00BFE90BFF1FE00BFF1FF00BFF1FF8
:102E6000E80BFF1FEC0BFF1F2148010007B502AB69
:102E7000012103F8010D1846FFF786FF03B05DF846
:102E800004FBFFFF38B50E4C0E4D012323702B6859
:102E90007BB90D4B1B7813B90020207038BD04207E
:102EA000FEF7E2FF0728F7D8FFF7C6FE28600028E4
:102EB000F2D02B68588800232370C0F1400038BD41
:102EC000E90BFF1FEC0BFF1FE00BFF1F2DE9F0418B
:102ED000114B1B78F3B1114F114B3C68114D01267A
:102EE0001E7098464CB1002663882E7021462380C0
:102EF0000420FFF733F83E6009E0FFF79DFE01462E
:102F000020B104202C70FFF729F800E02E70002378
:102F100088F80030BDE8F081E00BFF1FEC0BFF1FCD
:102F2000E90BFF1FE80BFF1F38B50E4B1B7803F0B2
:102F3000FF05ABB90C4C216831B14B880B800420E4
:102F4000FFF70CF8256038BDFFF776FE014620B18B
:102F50000420BDE83840FFF701B8044B01221A7085
:102F600038BD00BFE90BFF1FEC0BFF1FE80BFF1F75
:102F700038B5254C2378002B45D101232370FFF76A
:102F8000DDFE08B1FFF757FE00F03AF908B100F096
:102F9000D5F800F0C3F908B100F0D1F800F04CFA10
:102FA00008B100F0CDF800F0BDFA08B100F0C9F8A2
:102FB00000F02EFB08B100F0C5F800F09FFB08B14F
:102FC00000F0C1F800232370EFF30583DBB9EFF3C2
:102FD000108272B60D4D286810B10D4C217811B1D8
:102FE0008AB962B638BD0123237043692B600BB1E7
:102FF000996101E007490B6002B962B60025457787
:1030000083689847257038BDF90BFF1F0C0CFF1F14
:10301000100CFF1F080CFF1FEFF3108072B6B0FA00
:1030200080F04009704700B162B67047F8B50C4EA9
:103030000C4F0025FFF7F0FF346802466CB163695E
:1030400033600BB19D6100E03B601046FFF7EBFF82
:103050006577A36820469847ECE7FFF7E4FFF8BDE3
:10306000FC0BFF1F000CFF1FFFF7E0BF15490B68AB
:1030700030B513B98360C36009E004681A689442EC
:1030800007D20025121B8360C560D8601A600860F3
:1030900015E002681C689968121B026061B10C6837
:1030A000A2420B46F5D28160C968C160D860C16890
:1030B000A21A88601A6002E08160C36098600223EF
:1030C000037530BD040CFF1F70B5164D2C6800262B
:1030D000BCB1236813B1013B236012E0A26802B1C6
:1030E000D36020692A60036826751B682246002188
:1030F000984763681BB123602046FFF7B7FF2C6831
:10310000E6E7FFF789FF084B00221C681A60FFF70B
:103110008AFF2CB1A5682046FFF7A8FF2C46F8E7E8
:1031200070BD00BF040CFF1F140CFF1F024A136880
:1031300001331360FFF7C8BFFC0AFF1F70477047D9
:10314000704770477047704710B5204B20482149A1
:1031500060221A70E1225A701F4B204A1C78204BC3
:10316000082C01D1212402E00A2C03D13924046067
:10317000132005E00C2C0CBF35245D2404601220C4
:10318000086014601860174B17491B78174A03B181
:1031900001230B601360164B164A1978164B012950
:1031A00001D880210BE0042901D8842107E00829F7
:1031B00001D8852103E0102994BF86218721116061
:1031C00019600E4B01221A7010BD00BF004007406D
:1031D00008B003400CB003409408FF1F08B00B4038
:1031E0000CB00B40190CFF1F20B0034020B00B4067
:1031F0009508FF1F24B0034024B00B40180CFF1F9C
:10320000054B1878054B1A78C0B2D3B2984238BF34
:103210004030C01A704700BFA20CFF1F210CFF1FD7
:10322000F0B534490B7913F0300F2FD072B68B7D87
:1032300003F0FF0423B9CB7940234B7462B625E039
:1032400062B62D482D4A037812782D4FDBB2D2B2E8
:103250000546581C4028CE7928BF00209042F6B27F
:103260001CBF3E540346601E10F0FF04F1D1D9B2DA
:1032700029702449096849B1934236BFC2F140021E
:103280009B1A9B18272BC4BF01230B70194AD178B6
:10329000C9B20D061ED513791C061BD51A4B1B4847
:1032A0001D7803781A4EEDB2DBB2AB420AD001337F
:1032B000402B28BF00231479F45CE4B2D471147D50
:1032C000072CF2D9DBB203700A4B1A79100644BFFF
:1032D0007C22DA7049060CD5064B1A79520608D5BD
:1032E0000C4A002111700C4A126802B111703C2284
:1032F000DA70F0BD00A00640A20CFF1F210CFF1FDA
:10330000620CFF1F1C0CFF1FA80CFF1FA30CFF1F4C
:10331000220CFF1F200CFF1FA40CFF1F054B187869
:10332000054B1A78C0B2D3B2984238BF4030C01AA9
:10333000704700BF1A0DFF1FB10CFF1FF0B53449D5
:103340000B7913F0300F2FD072B68B7D03F0FF0492
:1033500023B9CB7940234B7462B625E062B62D4881
:103360002D4A037812782D4FDBB2D2B20546581C95
:103370004028CE7928BF00209042F6B21CBF3E54B0
:103380000346601E10F0FF04F1D1D9B22970244920
:10339000096849B1934236BFC2F140029B1A9B189B
:1033A000272BC4BF01230B70194AD178C9B20D066F
:1033B0001ED513791C061BD51A4B1B481D780378A4
:1033C0001A4EEDB2DBB2AB420AD00133282B28BF34
:1033D00000231479F45CE4B2D471147D072CF2D983
:1033E000DBB203700A4B1A79100644BF7C22DA70F4
:1033F00049060CD5064B1A79520608D50C4A00210D
:1034000011700C4A126802B111703C22DA70F0BDE2
:1034100000B006401A0DFF1FB10CFF1FDA0CFF1F92
:10342000AC0CFF1F200DFF1F1B0DFF1FB20CFF1F59
:10343000B00CFF1F1C0DFF1F054B1878054B1A78A9
:10344000C0B2D3B2984238BF4030C01A704700BFF4
:10345000920DFF1F290DFF1F10B5284B1A799206F8
:1034600020D52749DA790B782648013300783F2B9D
:10347000C8BF0023834218BF2348D2B21EBFC25424
:10348000DAB20A70214A116861B1214A1278D2B2C7
:10349000934236BFC2F140029B1A9B18272BC4BF30
:1034A00001230B701549CA78D2B2140616D50B79D0
:1034B000180613D5174B164C18782378DBB29842B0
:1034C00002D16C23CB7009E00133282B28BF0023E5
:1034D0001148C05CDBB2C0B2C871237051060CD574
:1034E000064B1A79520608D50C4A002111700C4A75
:1034F000126802B111702C22DA7010BD00C00640B3
:10350000920DFF1F290DFF1F520DFF1F240DFF1FDE
:10351000930DFF1F980DFF1F2A0DFF1F280DFF1F82
:10352000940DFF1F054B1878054B1A78C0B2D3B223
:10353000984238BF4030C01A704700BF0A0EFF1FC4
:10354000A10DFF1F10B5284B1A79920620D52749E7
:10355000DA790B782648013300783F2BC8BF002367
:10356000834218BF2348D2B21EBFC254DAB20A70D7
:10357000214A116861B1214A1278D2B2934236BF12
:10358000C2F140029B1A9B18272BC4BF01230B706A
:103590001549CA78D2B2140616D50B79180613D578
:1035A000174B164C18782378DBB2984202D16C2363
:1035B000CB7009E00133282B28BF00231148C05CE1
:1035C000DBB2C0B2C871237051060CD5064B1A7914
:1035D000520608D50C4A002111700C4A126802B13B
:1035E00011702C22DA7010BD00D006400A0EFF1FA9
:1035F000A10DFF1FCA0DFF1F9C0DFF1F0B0EFF1F0C
:10360000100EFF1FA20DFF1FA00DFF1F0C0EFF1FAE
:10361000054B1878054B1A78C0B2D3B2984238BF20
:103620004030C01A704700BF820EFF1F190EFF1FE7
:1036300010B5284B1A79920620D52749DA790B78EC
:103640002648013300783F2BC8BF0023834218BFB0
:103650002348D2B21EBFC254DAB20A70214A11689E
:1036600061B1214A1278D2B2934236BFC2F1400210
:103670009B1A9B18272BC4BF01230B701549CA78CE
:10368000D2B2140616D50B79180613D5174B164C63
:1036900018782378DBB2984202D16C23CB7009E012
:1036A0000133282B28BF00231148C05CDBB2C0B215
:1036B000C871237051060CD5064B1A79520608D5ED
:1036C0000C4A002111700C4A126802B111702C22B0
:1036D000DA7010BD00A00E40820EFF1F190EFF1FF2
:1036E000420EFF1F140EFF1F830EFF1F880EFF1FC9
:1036F0001A0EFF1F180EFF1F840EFF1F054B1878B0
:10370000054B1A78C0B2D3B2984238BF4030C01AC5
:10371000704700BFFA0EFF1F910EFF1F10B5294B17
:103720005A6892021FD52849DA680B782748013376
:103730003F2B0078C8BF0023834204D02448D2B274
:10374000C254DAB20A70234A116861B1224A12786F
:10375000D2B2934236BFC2F140029B1A9B18272B6C
:10376000C4BF01230B70174A906804021AD553682E
:10377000190217D5194B184C19782378DBB29942E6
:1037800006D1174B00221A60012243F8042C09E0ED
:103790000133282B28BF00231249C95CDBB2C9B210
:1037A000D160237042020CD5064B5B685B0208D5E2
:1037B0000D4A002313700D4A126802B113700C4AAF
:1037C000136010BD00400C40FA0EFF1F910EFF1F4A
:1037D000BA0EFF1F8C0EFF1FFB0EFF1F000FFF1FF7
:1037E0005C018843920EFF1F900EFF1FFC0EFF1F0F
:1037F0005801884330B585B072B6FEF7A7F9154B6E
:10380000154970221A70154A116080221A701A78B0
:103810001206FCD5124B1C68FEF7B2F962B6114BCA
:103820009C429CBF0A235C4301AD0A2229462046E4
:10383000FEF7C0F90C4A0023E95C21B101330A2BE1
:1038400022F8021BF8D1094A01335B00137005B05E
:1038500030BD00BF000002400000074104000240EC
:103860000C0002407F9698002009FF1F1E09FF1FD1
:103870000B460146184600F01BBEC38B1B0441BF1C
:10388000C38BC1F3080103F47E43194358BFC1F34E
:103890000E01C183C38B9BB2C382704770B5836B2B
:1038A0001A79304B1A70436B1A792F4B1A70826B4E
:1038B00012791A70026B0446002A3FD04368D96817
:1038C0008A4203D9521A0263012110E0436B511E50
:1038D0001868FFF7D2FFA36B216B1868FFF7CDFFC5
:1038E000216B002311F1FF3118BF01212363636BAA
:1038F0001B68186804F12C029042226805D1D36835
:1039000094F82C3043F000430EE0D06810F0804F64
:10391000186815BF1D681D680088007814BF02353F
:1039200001351D6040F000435363A36B1A790F4BC0
:103930001A70A9B1626B12791A7070BD03680C49D4
:103940001A63D962D96821F08041D960032380F8D5
:103950002D30C06B036811461B68BDE870401847E6
:1039600070BD00BF1F8000401C8000401B800040D5
:1039700000000FFF08B50248FFF790FF08BD00BF29
:103980003409FF1F81F0004102E000BF83F00043D3
:1039900030B54FEA41044FEA430594EA050F08BFEA
:1039A00090EA020F1FBF54EA000C55EA020C7FEAAE
:1039B000645C7FEA655C00F0E2804FEA5454D4EB2B
:1039C0005555B8BF6D420CDD2C4480EA020281EAF5
:1039D000030382EA000083EA010180EA020281EA2D
:1039E0000303362D88BF30BD11F0004F4FEA01317F
:1039F0004FF4801C4CEA113102D0404261EB41018E
:103A000013F0004F4FEA03334CEA133302D0524213
:103A100063EB430394EA050F00F0A780A4F10104CF
:103A2000D5F1200E0DDB02FA0EFC22FA05F2801809
:103A300041F1000103FA0EF2801843FA05F35941EF
:103A40000EE0A5F120050EF1200E012A03FA0EFC6E
:103A500028BF4CF0020C43FA05F3C01851EBE37198
:103A600001F0004507D54FF0000EDCF1000C7EEBB5
:103A700000006EEB0101B1F5801F1BD3B1F5001FF3
:103A80000CD349085FEA30004FEA3C0C04F1010412
:103A90004FEA445212F5800F80F09A80BCF1004F3B
:103AA00008BF5FEA500C50F1000041EB045141EABD
:103AB000050130BD5FEA4C0C404141EB010111F4BE
:103AC000801FA4F10104E9D191F0000F04BF014669
:103AD0000020B1FA81F308BF2033A3F10B03B3F147
:103AE00020020CDA0C3208DD02F1140CC2F10C02D7
:103AF00001FA0CF021FA02F10CE002F11402D8BF35
:103B0000C2F1200C01FA02F120FA0CFCDCBF41EA00
:103B10000C019040E41AA2BF01EB0451294330BDCF
:103B20006FEA04041F3C1CDA0C340EDC04F11404AC
:103B3000C4F1200220FA04F001FA02F340EA030083
:103B400021FA04F345EA030130BDC4F10C04C4F1C9
:103B5000200220FA02F001FA04F340EA03002946A9
:103B600030BD21FA04F0294630BD94F0000F83F4F3
:103B7000801306BF81F480110134013D4EE77FEAD6
:103B8000645C18BF7FEA655C29D094EA050F08BF22
:103B900090EA020F05D054EA000C04BF1946104603
:103BA00030BD91EA030F1EBF0021002030BD5FEA47
:103BB000545C05D14000494128BF41F0004130BD6F
:103BC00014F580043CBF01F5801130BD01F00045C3
:103BD00045F0FE4141F470014FF0000030BD7FEA36
:103BE000645C1ABF194610467FEA655C1CBF0B4631
:103BF000024650EA013406BF52EA033591EA030F48
:103C000041F4002130BD00BF90F0000F04BF00213F
:103C1000704730B54FF4806404F132044FF0000572
:103C20004FF0000150E700BF90F0000F04BF0021EB
:103C3000704730B54FF4806404F1320410F0004551
:103C400048BF40424FF000013EE700BF42004FEA4C
:103C5000E2014FEA31014FEA02701FBF12F07F43C9
:103C600093F07F4F81F06051704792F0000F14BFC6
:103C700093F07F4F704730B54FF4607401F000450A
:103C800021F0004120E700BF50EA010208BF704761
:103C900030B54FF000050AE050EA010208BF704756
:103CA00030B511F0004502D5404261EB41014FF4BF
:103CB000806404F132045FEA915C3FF4DCAE4FF0C3
:103CC00003025FEADC0C18BF03325FEADC0C18BFAA
:103CD000033202EBDC02C2F1200300FA03FC20FAFB
:103CE00002F001FA03FE40EA0E0021FA02F1144448
:103CF000C1E600BF70B54FF0FF0C4CF4E06C1CEA5D
:103D000011541DBF1CEA135594EA0C0F95EA0C0FD1
:103D100000F0DEF82C4481EA030621EA4C5123EA44
:103D20004C5350EA013518BF52EA033541F4801173
:103D300043F4801338D0A0FB02CE4FF00005E1FB26
:103D400002E506F00042E0FB03E54FF00006E1FB70
:103D500003569CF0000F18BF4EF0010EA4F1FF04B3
:103D6000B6F5007F64F5407404D25FEA4E0E6D41F3
:103D700046EB060642EAC62141EA55514FEAC52004
:103D800040EA5E504FEACE2EB4F1FD0C88BFBCF580
:103D9000E06F1ED8BEF1004F08BF5FEA500E50F131
:103DA000000041EB045170BD06F0004646EA0101F7
:103DB00040EA020081EA0301B4EB5C04C2BFD4EB29
:103DC0000C0541EA045170BD41F480114FF0000E22
:103DD000013C00F3AB8014F1360FDEBF002001F090
:103DE000004170BDC4F10004203C35DA0C341BDC0A
:103DF00004F11404C4F1200500FA05F320FA04F0DC
:103E000001FA05F240EA020001F0004221F000410F
:103E100010EBD37021FA04F642EB06015EEA430E82
:103E200008BF20EAD37070BDC4F10C04C4F12005B2
:103E300000FA04F320FA05F001FA04F240EA020065
:103E400001F0004110EBD37041F100015EEA430E36
:103E500008BF20EAD37070BDC4F1200500FA05F256
:103E60004EEA020E20FA04F301FA05F243EA0203D5
:103E700021FA04F001F0004121FA04F220EA0200E4
:103E800000EBD3705EEA430E08BF20EAD37070BD2A
:103E900094F0000F0FD101F00046400041EB01010A
:103EA00011F4801F08BF013CF7D041EA060195F0EC
:103EB000000F18BF704703F00046520043EB0303A6
:103EC00013F4801F08BF013DF7D043EA0603704793
:103ED00094EA0C0F0CEA135518BF95EA0C0F0CD09E
:103EE00050EA410618BF52EA4306D1D181EA0301E4
:103EF00001F000414FF0000070BD50EA410606BFDE
:103F00001046194652EA430619D094EA0C0F02D122
:103F100050EA013613D195EA0C0F05D152EA033667
:103F20001CBF104619460AD181EA030101F0004185
:103F300041F0FE4141F470014FF0000070BD41F0CE
:103F4000FE4141F4780170BD70B54FF0FF0C4CF4A8
:103F5000E06C1CEA11541DBF1CEA135594EA0C0FC7
:103F600095EA0C0F00F0A7F8A4EB050481EA030E14
:103F700052EA03354FEA013100F088804FEA0333FB
:103F80004FF0805545EA131343EA12634FEA0222C9
:103F900045EA111545EA10654FEA00260EF000418A
:103FA0009D4208BF964244F1FD0404F5407402D2DC
:103FB0005B084FEA3202B61A65EB03055B084FEA6D
:103FC00032024FF480104FF4002CB6EB020E75EB6A
:103FD000030E22BFB61A754640EA0C005B084FEA92
:103FE0003202B6EB020E75EB030E22BFB61A75460F
:103FF00040EA5C005B084FEA3202B6EB020E75EB5A
:10400000030E22BFB61A754640EA9C005B084FEAD1
:104010003202B6EB020E75EB030E22BFB61A7546DE
:1040200040EADC0055EA060E18D04FEA051545EACD
:1040300016754FEA06164FEAC30343EA52734FEA76
:10404000C2025FEA1C1CC0D111F4801F0BD141EAEF
:1040500000014FF000004FF0004CB6E711F4801F54
:1040600004BF01430020B4F1FD0C88BFBCF5E06F34
:104070003FF6AFAEB5EB030C04BFB6EB020C5FEA44
:10408000500C50F1000041EB045170BD0EF0004E99
:104090004EEA113114EB5C04C2BFD4EB0C0541EACB
:1040A000045170BD41F480114FF0000E013C90E6C8
:1040B00045EA060E8DE60CEA135594EA0C0F08BF8C
:1040C00095EA0C0F3FF43BAF94EA0C0F0AD150EA8B
:1040D00001347FF434AF95EA0C0F7FF425AF10461E
:1040E00019462CE795EA0C0F06D152EA03353FF446
:1040F000FDAE1046194622E750EA410618BF52EAC3
:1041000043067FF4C5AE50EA41047FF40DAF52EA96
:1041100043057FF4EBAE12E74FF0FF3C06E000BF33
:104120004FF0010C02E000BF4FF0010C4DF804CD40
:104130004FEA410C7FEA6C5C4FEA430C18BF7FEA00
:104140006C5C1BD001B050EA410C0CBF52EA430C2E
:1041500091EA030F02BF90EA020F0020704710F1AE
:10416000000F91EA030F58BF994208BF90422CBF3D
:10417000D8176FEAE37040F0010070474FEA410C36
:104180007FEA6C5C02D150EA013C07D14FEA430C54
:104190007FEA6C5CD6D152EA033CD3D05DF8040BC5
:1041A000704700BF8446104662468C4619466346F7
:1041B00000E000BF01B5FFF7B7FF002848BF10F1CE
:1041C000000F01BD4DF808EDFFF7F4FF0CBF012013
:1041D00000205DF808FB00BF4DF808EDFFF7EAFF8F
:1041E00034BF012000205DF808FB00BF4DF808ED4A
:1041F000FFF7E0FF94BF012000205DF808FB00BF3F
:104200004DF808EDFFF7CEFF94BF012000205DF8C8
:1042100008FB00BF4DF808EDFFF7C4FF34BF0120D5
:1042200000205DF808FB00BF4FEA410C7FEA6C5CA0
:1042300002D150EA013C0AD14FEA430C7FEA6C5CA0
:1042400002D152EA033C02D14FF0000070474FF018
:10425000010070474A0011D212F5001211D20DD59B
:104260006FF47873B3EB62520ED44FEAC12343F07C
:10427000004343EA505323FA02F070474FF0000026
:10428000704750EA013002D14FF0FF3070474FF0D5
:104290000000704780F0004002E000BF81F0004164
:1042A00042001FBF5FEA410392EA030F7FEA226CDC
:1042B0007FEA236C6AD04FEA1262D2EB1363C1BF6C
:1042C000D218414048404140B8BF5B42192B88BFDB
:1042D000704710F0004F40F4000020F07F4018BFFE
:1042E000404211F0004F41F4000121F07F4118BF1E
:1042F000494292EA030F3FD0A2F1010241FA03FCC6
:1043000010EB0C00C3F1200301FA03F100F00043AD
:1043100002D5494260EB4000B0F5000F13D3B0F175
:10432000807F06D340084FEA310102F10102FE2AE4
:1043300051D2B1F1004F40EBC25008BF20F0010054
:1043400040EA03007047490040EB000010F4000F02
:10435000A2F10102EDD1B0FA80FCACF1080CB2EB95
:104360000C0200FA0CF0AABF00EBC25052421843F4
:10437000BCBFD0401843704792F0000F81F4000199
:1043800006BF80F400000132013BB5E74FEA41036C
:104390007FEA226C18BF7FEA236C21D092EA030FD8
:1043A00004D092F0000F08BF0846704790EA010F52
:1043B0001CBF0020704712F07F4F04D1400028BF7F
:1043C00040F00040704712F100723CBF00F5000061
:1043D000704700F0004343F0FE4040F40000704797
:1043E0007FEA226216BF08467FEA23630146420243
:1043F00006BF5FEA412390EA010F40F48000704756
:104400004FF0000304E000BF10F0004348BF4042FB
:104410005FEA000C08BF704743F0964301464FF037
:1044200000001CE050EA010208BF70474FF0000393
:104430000AE000BF50EA010208BF704711F00043D4
:1044400002D5404261EB41015FEA010C02BF8446A4
:104450000146002043F0B64308BFA3F18053A3F503
:104460000003BCFA8CF2083AA3EBC25310DB01FA4A
:1044700002FC634400FA02FCC2F12002BCF1004FCE
:1044800020FA02F243EB020008BF20F0010070475F
:1044900002F1200201FA02FCC2F1200250EA4C00B3
:1044A00021FA02F243EB020008BF20EADC707047F9
:1044B00010B5054C13462CB10A4601460220AFF355
:1044C000008010BD204610BD0000000070B50E4BEE
:1044D0000E4CE41AA41000251E46A54204D056F83E
:1044E000253098470135F8E700F0FCF9084C094BF6
:1044F000E41AA41000251E46A54204D056F8253023
:1045000098470135F8E770BDF0480000F04800001A
:10451000F8480000F0480000034613F8012B002A79
:10452000FBD1181A013870476869004572726F72C2
:104530000A0D00FF348004404000000012112208E0
:10454000300202050702131021072F02020507029D
:10455000180000003480044080000000263AFFFF6D
:10456000FF0206000000253BFFFFFF0206000000DF
:1045700019000000288004404000000004FFFFFFF5
:10458000FF0500000000031AFFFFFF050500000003
:104590004A0000000000000000000000EF080000DA
:1045A00015090000A9080000ED080000AD08000092
:1045B000B9080000D70800002000000040000000FB
:1045C000600D0A6E616E006F766600696E6600FFB0
:1045D0004008FE4340A004404408FE4344A0044079
:1045E0000018FE4300C004403000FE4330900440F9
:1045F0003400FE43349004401C18FE431CC00440A9
:104600001018FE4310C004400818FE4308C00440C0
:104610000C18FE430CC004400C10FE430CB00440C8
:104620001010FE4310B004401810FE4318B00440B0
:104630001C10FE431CB004401410FE4314B0044090
:104640000418FE4304C004400010FE4300B00440C0
:104650000008FE4300A004400408FE4304A00440F8
:104660000C08FE430CA004400808FE4308A00440C8
:104670001418FE4314C004401818FE4318C0044028
:104680000410FE4304B004400810FE4308B0044088
:104690006820FE4368D004401400FE431490044098
:1046A0003800FE43389004403C00FE433C900440F8
:1046B0004000FE43409004404808FE4348A00440A8
:1046C0004C08FE434CA004402808FE4328A00440A8
:1046D0002C08FE432CA004406020FE4360D0044020
:1046E0006420FE4364D004402010FE4320B0044008
:1046F0002410FE4324B004402810FE4328B0044098
:104700002C10FE432CB004404400FE43449004406F
:104710007000FE43709004407400FE4374900440A7
:104720006800FE43689004405008FE4350A00440D7
:104730005808FE4358A004405C08FE435CA00440B7
:104740005408FE4354A004402018FE4320C00440F7
:104750002418FE4324C004401008FE4310A0044067
:104760001408FE4314A004403818FE4338C0044027
:104770003418FE4334C004403018FE4330C00440B7
:104780003C18FE433CC004402C18FE432CC004409F
:104790002820FE4328D004402C20FE432CD0044087
:1047A0000020FE4300D004400420FE4304D0044017
:1047B0000820FE4308D004400C20FE430CD00440E7
:1047C0001020FE4310D004401420FE4314D00440B7
:1047D0000000000000000000312C0000292C000027
:1047E000252C0000212C00001D2C0000192C00009D
:1047F000152C0000112C00000015191500010000F7
:104800009608FF1F1200000000020000C008FF1FF2
:1048100043000000000300001A09FF1F0000000011
:1048200001030904A808FF1F000000000203090497
:104830000409FF1F00000000030309041E09FF1FF5
:104840000000000000000000000000000000000068
:104850003C80044000100000041A0000FF7F0000AC
:104860000F0E0000753900000C0827FF0002000041
:104870000002000000020000000000000B071CFF07
:104880000002000000020000000200000000000022
:104890000D0E1B00000200000002000000020000DC
:1048A0000A020906141715160F1A2D00000200003F
:1048B00000020000000200000002000000020000F0
:1048C00000020000000200000002000000020000E0
:1048D00000020000000300000101020204040808B5
:1048E00010012000F8B500BFF8BC08BC9E46704718
:0848F000350400006D08000012
:0448F800F8B500BF50
:1048FC000000000000007A4400007A449C4500004F
:10490C0000000000E80300000000000000600E4002
:10491C0074450000000000000000000000000000D2
:10492C00000000000000000000000000000000007B
:10493C00000000000000000000000000000000006B
:10494C00000000000000000000000000000000005B
:10495C00000000000000000000000000000000004B
:10496C0000000000000000009C450000000000005A
:10497C00E803000000000000006006403445000021
:10498C00000000000000000000000000000000001B
:10499C00000000000000000000000000000000000B
:1049AC0000000000000000000000000000000000FB
:1049BC0000000000000000000000000000000000EB
:1049CC0000000000000000000000000000000000DB
:1049DC00000000009C45000000000000E8030000FF
:1049EC00000000000070064054450000000000006C
:1049FC0000000000000000000000000000000000AB
:104A0C00000000000000000000000000000000009A
:104A1C00000000000000000000000000000000008A
:104A2C00000000000000000000000000000000007A
:104A3C00000000000000000000000000000000006A
:104A4C00D847000000000000E80300000000000050
:104A5C00FFFFFFFF0A041201100102000040C01604
:104A6C0083047702010203011803540065006500FA
:104A7C006E00730079006400750069006E006F00B1
:104A8C0009024300020100C03209040000010202C5
:104A9C000100052400100105240101010424020673
:104AAC0005240600010705820310004009040100DB
:104ABC00020A0000000705030240000007058402FB
:104ACC004000000016035500530042002000530024
:104ADC0065007200690061006C00040309040C039A
:104AEC0000000000000000000000000000000000BA
:104AFC000000000000C00240504800000000000010
:104B0C000000000000000000000000000000000099
:104B1C000000000000000000000000000000000089
:104B2C000000000000000000000000000000000079
:044B3C000000000075
:00000001FF
