:1000000000800020BD010000A90800007508000064
:1000100075080000750800007508000075080000EC
:10002000750800007508000075080000A9080000A8
:10003000A908000075080000511C0000151D0000F3
:10004000A9080000A9080000A9080000A9080000EC
:10005000A9080000A9080000A9080000A9080000DC
:10006000A9080000A9080000A9080000A9080000CC
:10007000A9080000A9080000A9080000A9080000BC
:10008000A9080000A9080000A9080000A9080000AC
:10009000A9080000A9080000A9080000A90800009C
:1000A000A9080000A9080000A9080000A90800008C
:1000B000A9080000A9080000A9080000A90800007C
:1000C000A9080000A9080000A9080000A90800006C
:1000D000A9080000A9080000A9080000A90800005C
:1000E000A9080000A9080000A9080000A90800004C
:1000F000A9080000051E0000A9080000211F00003B
:10010000A90800003D200000A9080000A90800007F
:10011000A9080000A9080000A9080000A90800001B
:10012000A9080000A9080000A9080000A90800000B
:10013000A9080000A9080000A9080000A9080000FB
:10014000A9080000A9080000A9080000A9080000EB
:10015000A9080000A9080000A9080000A9080000DB
:10016000A9080000110C0000A9080000A90800005F
:10017000A9080000A9080000A9080000A9080000BB
:10018000A9080000A9080000A9080000A9080000AB
:10019000A9080000A9080000A9080000A90800009B
:1001A000A9080000A9080000A9080000A90800008B
:1001B000A9080000A9080000A9080000564B4CF24D
:1001C000205210B51A804DF628121A8000BF00BFC9
:1001D00000F06EFB514B4FF010621A60504A9A606B
:1001E000504ADA60504A136813F4807301BF4F49D4
:1001F0000B604FF4A85313604D4B4E491A7810070B
:1002000042BF1A7842F008021A704B4B2A221A7029
:100210004A4A4B4B8B4204D252F8040F43F8040B6A
:10022000F8E7484B484A0021934202D243F8041BA6
:10023000FAE7464A4648002350F8231042F82310B4
:1002400001336F2BF8D1434B434A802103F8011B44
:100250009342FBD1414B3D4A1A60414B8A221A70AE
:10026000A3F5805324225A70A0221A709A7991071C
:10027000FCD59A79D206FCD43A4A937903F00C0360
:10028000082B384BF9D105221A7143225A719A79F9
:100290009406FCD533498A79324B5006FBD5324A55
:1002A0004FF0817111600521516020221A709A79F6
:1002B00002F00C020C2AFAD12C4B2D4A1A602D4B5D
:1002C0002D4A1A6000225A60072243F8042C2B4A58
:1002D000C3F80C2D62B600F06FFB144B1B68DA07F5
:1002E00005D5274800F022FB264B274A1A60274BEA
:1002F0001B785B0609D5234C234B22689A4204D114
:100300001F4800F013FB0023236001F051FF00F0B1
:10031000D5FA00F00DFAFEE70E20054030800440CB
:10032000823F04000100002B10D0034014D0034092
:1003300002D007403C88FF1F00E007406C2500000A
:100340001C87FF1F3C88FF1F3C8BFF1F0082FF1F85
:100350000000000000E400E05FE400E008ED00E0E1
:1003600000500640004006404480044004800440A1
:10037000C010050014E000E03F190100000020203B
:10038000D228985D1CE00340A5C3945A00F00740B2
:10039000FFFFFFFFFFFFFFFFFFFFFFFFFFFFFFFF6D
:1003A000FFFFFFFFFFFFFFFFFFFFFFFFFFFFFFFF5D
:1003B000FFFFFFFFFFFFFFFFFFFFFFFFFFFFFFFF4D
:1003C000FFFFFFFFFFFFFFFFFFFFFFFFFFFFFFFF3D
:1003D000FFFFFFFFFFFFFFFFFFFFFFFFFFFFFFFF2D
:1003E000FFFFFFFFFFFFFFFFFFFFFFFFFFFFFFFF1D
:1003F000FFFFFFFFFFFFFFFFFFFFFFFFFFFFFFFF0D
:10040000FFFFFFFFFFFFFFFFFFFFFFFFDEF9FFFF23
:1004100010B5054C237833B9044B13B10448AFF33E
:1004200000800123237010BD3C88FF1F00000000E6
:1004300070250000084B10B51BB108490848AFF300
:1004400000800848036803B910BD074B002BFBD0A0
:10045000BDE81040184700BF000000004088FF1FA3
:10046000702500003C88FF1F000000007047FFFF60
:100470001FB51221194801F08BFA194800F070F8E5
:1004800001F060FA30B101F01BFAC1B2154800F07A
:100490000FF9F5E71449134800F020F90446D8B9DC
:1004A0001249684600F0ACF80E49684600F00EF9B3
:1004B00001460B4800F034F8094800F051F868464E
:1004C00000F05EF80A4907482346152200F018F9A3
:1004D0000549044800F0B4F804B010BD52240000EF
:1004E0002487FF1F5888FF1F722400006524000026
:1004F0006888FF1F10B5064C0649204600F080F8BA
:100500002046054A0549BDE8104001F037BE00BF4E
:100510005888FF1F722400001C87FF1F8105000000
:100520002DE9F04100258C688AB0074688462E46A2
:1005300094B12B46212201A9404600F0E1F83B6826
:10054000202C22465B6828BF202201A9384615448A
:10055000A41A98470644EBE730460AB0BDE8F0819C
:1005600007B5064B1B88ADF80430036802225B68B0
:1005700001A9984703B05DF804FB00BF7324000095
:1005800010B50446006801F039FE204610BD38B5AC
:1005900004460D460068013101F0E4FE10B184E824
:1005A0002100012038BD43688B4210B5044606D2B5
:1005B000FFF7EDFF20B1A3680BB92268137001208B
:1005C00010BDF8B504460F46154622B9036803B1BD
:1005D0001A7000230BE01146FFF7E5FF064640B90D
:1005E000206810B101F00AFE266000236360A3605A
:1005F00004E0A5603946206801F0D6FE2046F8BD2B
:1006000038B50023044603604360836003730D46DE
:1006100039B1084601F0D0FE294602462046FFF7D0
:10062000D0FF204638BD38B5054608460C4601F0D7
:10063000C3FE214602462846BDE83840FFF7C1BF49
:1006400010B5044611B1FFF7EEFF00E0A1602046AF
:1006500010BD2DE9F843036885688B4204460E46B9
:10066000904606D85A19914203D2C3EB01090127DB
:1006700000E00027B8F1000F17D045442946204676
:10068000FFF791FF88B1A06823684FB1424603EBA2
:100690000901184400F054F8236800225A5503E079
:1006A0003146184401F080FEA5602046BDE8F8837D
:1006B00013B500238DF80410012201A904468DF81A
:1006C0000530FFF7C6FF204602B010BD10B58A689E
:1006D00009680446FFF7BDFF204610BD826808B5D3
:1006E0000B4612B919B9012008BD11B90368187871
:1006F00002E0006801F04EFEB0FA80F0400908BD4B
:1007000070B50E469AB191B185689D4202D800231A
:100710000B7070BD541EED1A0168AC4228BF2C4608
:1007200019442246304601F04FFE0023335570BD78
:1007300008B5FFF79BFEFFF79BFE01F01BFAFAE7F7
:10074000844641EA000313F003036DD1403A41D3DC
:1007500051F8043B40F8043B51F8043B40F8043B9B
:1007600051F8043B40F8043B51F8043B40F8043B8B
:1007700051F8043B40F8043B51F8043B40F8043B7B
:1007800051F8043B40F8043B51F8043B40F8043B6B
:1007900051F8043B40F8043B51F8043B40F8043B5B
:1007A00051F8043B40F8043B51F8043B40F8043B4B
:1007B00051F8043B40F8043B51F8043B40F8043B3B
:1007C00051F8043B40F8043B51F8043B40F8043B2B
:1007D000403ABDD2303211D351F8043B40F8043BCB
:1007E00051F8043B40F8043B51F8043B40F8043B0B
:1007F00051F8043B40F8043B103AEDD20C3205D3DB
:1008000051F8043B40F8043B043AF9D2043208D0D2
:10081000D2071CBF11F8013B00F8013B01D30B8844
:1008200003806046704700BF082A13D38B078DD022
:1008300010F003038AD0C3F10403D21ADB071CBFF4
:1008400011F8013B00F8013B80D331F8023B20F85E
:10085000023B7BE7043AD9D3013A11F8013B00F897
:10086000013BF9D20B7803704B7843708B7883701F
:100870006046704708B50B4D2C462B68580301D5D0
:1008800000F0C6F92368590501D501F0BBFA2368C9
:100890001A0501D501F044FB2368DB04EDD501F016
:1008A000CDFBEAE73480044008B5FFF7E3FFFFFF24
:1008B000014B10221A807047002005407047FFFF4F
:1008C000094908B50B6868B16A461844A2F5805218
:1008D000904206D301F066FC0C2303604FF0FF301A
:1008E00008BD0860184608BD2087FF1F30B50346C5
:1008F0000020B3FBF2F402FB1433092B94BF303316
:100900003733DBB20B5423460CB10130F1E70A1840
:1009100023465470C41AA34206DACC5C1578CD5431
:1009200002F801490133F5E7084630BD044B05499B
:1009300000221A600A60044A106010221A60704790
:1009400014D0034004D0034000D0034072B60C4BD7
:100950000C4A0D491B681268096862B6490102D544
:10096000322B88BF0132C3F58C33482003F23F138A
:10097000B3FBF0F34FF47A7000FB0230704700BF16
:1009800018E000E07C88FF1F04ED00E038B5044665
:10099000FFF7DCFF054624B938BD013C0AD005F558
:1009A0007A75FFF7D3FF401BB0F57A7FF5D201F0DF
:1009B000E1F8F6E738BDFFFF214B4FF4000210B518
:1009C0001A604FF080721A604FF000721A604FF098
:1009D00080621A604FF000621A601A4B1A4A1B4C70
:1009E000002048F6FF711860596028231360936057
:1009F000136193611362936213639363092222600C
:100A000004F58054043420606160A360236144F8DD
:100A1000042C04F5FE2420600D4801600D490B6094
:100A20008B600D4B1A6001F081F91920FFF7AEFFC2
:100A300000F086FE40F21310BDE81040FFF7A6BF9D
:100A400008E100E0048003400C8003400080034084
:100A500008800B400C800B4000800B40431E032B92
:100A600014D872B60A4951F8230068B170B4094C21
:100A7000058834F81320466841F82360521B24F897
:100A8000132062B670BC704762B670470020704792
:100A9000D888FF1F248BFF1F013803280BD872B69C
:100AA000074B53F8203043B100205B680130002B26
:100AB000FBD162B67047002070471846F9E700BFC7
:100AC0002C89FF1F30B472B62B4A13781D0706D548
:100AD0002A4B196A002936D0996A002941D05378E7
:100AE0001C0706D5254B196C00293ED0996C0029AE
:100AF00039D09378190705D5204B196E002936D0C7
:100B0000996E89B1D3781B0707D51C4BD3F8802089
:100B10007AB3D3F8882011213AB162B6184B00227B
:100B20001A7030BC00F0AABE0D21154C154D22786C
:100B300043F8315003EBC1030830013A586022708A
:100B400062B630BC704704220D4C0F4D217843F83B
:100B5000325003EBC20308304A1E5860227062B65E
:100B6000EFE70521E1E70921DFE70822ECE70C22A6
:100B7000EAE71022E8E700BFA02400000080FF1F82
:100B80005589FF1FC800400088004000431E032B0A
:100B90001DD81B4A400140F0100030B4104472B61A
:100BA000184CE25C032A1BD8DFE802F0021215178A
:100BB00003220D88E25410F0080F14BFC8238823C5
:100BC00043EA054308310360416062B630BC7047B8
:100BD00008300222EDE70522EBE708300422E8E7BF
:100BE000094A52F8230038B1084A52F823004160FC
:100BF00042F8231062B6E9E742F82310034AF7E708
:100C00000080FF1F6489FF1F2C89FF1F3C89FF1F85
:100C10002DE9F04FB54CB64E87B046E0B54F4FEAE0
:100C2000930B07EBCB08013DD8F8041003F0080341
:100C3000EDB2A1F1080003F0FF02002B40F010819B
:100C400057F83B301B0C1FFA83FE21F808EC002BF1
:100C500000F0FD80A84B21F8062C41F8042C53F835
:100C60002520002A00F0DF82DFF8CCA25AF82530D8
:100C70005860DFF8C8924AF8250039F815309E44CC
:100C800029F815E000F0DCFD002800F0C5829B4942
:100C90009B4B18F0080F00F1080018BF0B46C8F86E
:100CA000040047F83B30082323702578EDB269072C
:100CB00019D5944B1B78A3B193490A7802F0FF032E
:100CC00022B1013BDBB20B7003B900BE8F490A7839
:100CD00002F0FF032AB1013BDBB20B70002B00F0E6
:100CE00071820423237005F0080303F0FF02002B38
:100CF00000F0DC803378DBB21D098FD19B087D4D7D
:100D000055F8332005EBC301C2F38302013A496869
:100D10000C2A00F29880DFE802F08C8C969696966A
:100D200096964D96969607000868DFF8F4E14A68B3
:100D3000DFF80CB2764FCEF80420CEF8000082B275
:100D400040F281600021DFF8B49145F833904FF014
:100D5000010C8242CBF800102961A96187F800C01C
:100D6000DFF8909100F2F080B2F5D06F80F08F83C1
:100D7000B2F5817F00F0218300F2A882802A00F082
:100D80006283822A40F02083BEF8043003F07F03A0
:100D9000042B00F219835F4A5F489B001A440170DC
:100DA000417013789B0740F17A8480F800C04FF0BF
:100DB000020C4DE3DFF888B1DBF8003073B3DFF8E5
:100DC00084A1534F554ABAF8001097F800E0107804
:100DD00040298C4640F0020928BF4FF0400CBEF17C
:100DE000000F8EF0010E87F800E0CCEB01010CBF84
:100DF0008827C82705EBC90E89B280F0010047EAB1
:100E00000C47CEF80430AAF8001045F83970634456
:100E10001070002900F04581CBF80030404B1A8853
:100E2000B2F5A06F0FD13F4A9978117000225A7025
:100E300009E03B4A108842F22102904200F03681DC
:100E40002E4A45F83320384A012313702BE72B49EB
:100E50002B4B18F0080F18BF0B4647F83B3022E722
:100E600000F00CFD3148324A50F82510002900F0FE
:100E700013824B6812F805C040F8253001F10803D1
:100E8000C8F80430BCF1030F05D8DFE80CF02C02E1
:100E900029260223535518F0080F0A880CBF88230F
:100EA000C82343EA024347F83B30FCE6E80700F179
:100EB0008C81290600F10082AA0706D51D4A0B493C
:100EC00013780220DBB213700870EB0602D5074BD3
:100ED00010221A7007B0BDE8F08F04235355DAE7EB
:100EE00005235355D7E703235355D4E78020074004
:100EF000902007400080FF1FD888FF1FC8004000D7
:100F0000880040006089FF1FE988FF1F6889FF1F74
:100F1000E888FF1FC02007405889FF1F5489FF1F22
:100F20004C89FF1F98200740942007402C89FF1F01
:100F30006489FF1F882007408488FF1F248BFF1FC0
:100F40008088FF1F9488FF1F42F221039A4200F01D
:100F5000358100F2D980B2F5086F00F0B382B2F5A6
:100F6000106F40F03182B24AD9F820309EF802105A
:100F700011701A0600F14383AB6AAE4A1B0600F1FA
:100F800039832B6BAB4A180600F14E83AB6BA94A31
:100F9000190600F144832B6CA64A1B0600F13A8324
:100FA000AB6CA44A180600F130832B6DA14A1906D8
:100FB00000F16483AB6D9F4A1B0600F15A832B6ED0
:100FC0009C4A180600F15083AB6E9A4A190600F14C
:100FD00046832B6F974A1B0600F13C83AB6F954A03
:100FE000180600F13283D5F88030924A190600F1D4
:100FF0002683D5F888308F4A1B0600F11A83D5F86E
:1010000090308C4A180600F14483D5F89830894A0C
:10101000190600F1388300230193874B0293874B15
:101020000393874B0593DFF860A2864BDFF85C9251
:101030000493029B186830B1D0F8048000F01EFCC5
:1010400040460028F8D1039B1868029B1A460023EB
:101050001360019B1A4600234AF8223030B1D0F8C1
:10106000048000F00BFC40460028F8D1039A049B52
:10107000114600220A60059A1B781146002241F8A9
:10108000042B019A0591023B4FF0000129F8121040
:10109000032B00F23F81DFE813F08B0139018B0154
:1010A0003901BCF1400F18BF0023B5E6664A0F783E
:1010B0004878177050708F78C8789770D070106823
:1010C0000F79177186284F7989799171577108BF07
:1010D0005E4A5F4F04BF0F2111705E4A3878117865
:1010E000002881F0010E41F0020182F800E00CBFFF
:1010F0008822C82245F8312005EBC10180F00100AB
:10110000002238704A609BE642F221239A4240F066
:10111000E781DFF87C91504B504A9EF80200D9F8E5
:1011200000E0C3F800E00191CDF808C01070002184
:10113000029B03918A4689460846464A92F800E097
:101140004EF0020C05EBCC08002BC8F804000CBFD5
:101150008820C82040EA0A0A9DF8043045F83CA0DF
:101160008EF001003B701070DFF8C8C0DFF8E0803F
:10117000DFF8E0A0002940F02E81B9F1400F1DD129
:1011800040F0020005EBC005039B6B60019DDFF89A
:10119000A4C0002D40F036810D0445F088084CF8BD
:1011A00030809DF808503D7082F800E00B444029E3
:1011B00004D100212A4ACBF800301180294A0123AA
:1011C000137040E600F0B2FC8BE51A4B254821492C
:1011D0001A614FF0020E80F800E0234F0A70234995
:1011E00019609960224E234D234C9A610D2139706C
:1011F000FF213170DFF89CE0297022701F4D204ADA
:101200008EF800109F27012406F8047C5D600470AE
:10121000DA6007B0BDE8F08F1A4A47F83B00137850
:10122000013313703FE543F82500DFF85CA020E5AB
:101230006089FF1F0080FF1FD888FF1F2C89FF1FB8
:101240003C89FF1F6489FF1F2C8BFF1FE988FF1F4C
:10125000E888FF1F5489FF1F348BFF1F7889FF1F09
:101260009488FF1F94200740C0200740880040005A
:101270008820074080200740982007409888FF1F5B
:10128000EC88FF1F5589FF1F8488FF1F248BFF1FD9
:101290007C88FF1F8C200740535D032B00F2CC801D
:1012A00001A151F823F000BFA70C0000A70C00001B
:1012B0000713000001130000BE49BF4B80220D2020
:1012C00008701A70AA077FF500AEF7E540F2023306
:1012D0009A4240F0FC80BEF8042002F07F02042A0B
:1012E00072D8BEF80230002B6ED1B2490193920041
:1012F0001144CDF808C00A7842F002020A7016E7DD
:1013000001235355CFE400235355CCE4049B4FF005
:1013100001021A70029A019B04320292039A04326B
:101320000392049A01330132042B019304927FF457
:1013300080AEDFF8B492DFF8B4A299F800309F4A8B
:1013400000218AF8001013701B0700F10A8199F838
:1013500001309B4ADFF89882137018074FF00002A3
:101360002A63AA6300F1E88099F80230954ADFF811
:101370008082137019074FF000022A65AA6500F1F8
:101380000381914A99F80330137000222A67AA67F3
:101390001A07DFF85C9200F1B8803B7802930022D4
:1013A00083F001030193C5F89020C5F89820BEE6AC
:1013B000049B4FF000021A70ACE7BEF8042002F064
:1013C0007F02042A40F291807A4B0F221A707F4AE2
:1013D0000123137037E540297FF6D2AE40F00200BA
:1013E0000CEBC002039B5360019AC2B1784A9DF88E
:1013F000085088F8005040398AF800E040334CF833
:101400003020D7E69DF808303B700D04039B82F82E
:1014100000E045F0C8050B444CF83050C7E69DF895
:10142000083088F80030039B6A4A8AF800E04039A7
:1014300040334CF83020BDE618F0080F0CBF0223F3
:10144000032353552FE464484FF0020C01704170A0
:10145000BEF80610614580F06181604A92F800E0B4
:101460004EF0020C05EBCC034029894628BF4FF013
:101470004009586000EB0903039300230193012303
:10148000C9EB01014FEA094A0293C82062E6544BB6
:101490005868002898D0BEF80210BEF804C003E0D7
:1014A0000C33586800288FD01A888A42F8D15A889D
:1014B0006245F5D1090A03290CBF90F800C0B3F8C2
:1014C00008C0C5E7474B44481B780370C0E7B2F536
:1014D000A06F7FF479AF002301930123029326E6E6
:1014E00042F221339A42F6D06EE7BEF80230002B6A
:1014F0007FF46AAF2F49019392001144CDF808C0E0
:101500000A7822F002020A7011E600F099F9002828
:1015100000F0D08008302F4BC9F88400C9F8803023
:1015200000F08EF9002800F0BD800830284BC5F887
:101530008C00C5F8883030E700F082F9002800F010
:10154000D6800830234BC8F84400C8F8403000F07B
:1015500077F9002800F0C48008301D4BE864AB64C4
:1015600002E700F06DF9002800F0B3800830194B55
:1015700068622B6200F064F9002800F0A380083054
:10158000134BE862AB62E2E600F05AF9002800F083
:10159000BD8008300F4BC8F86400C8F8603000F018
:1015A0004FF9002800F0AB800830094BE866AB66C5
:1015B000E7E600BFC020074080200740C420074066
:1015C000C8200740CC200740D02007409420074087
:1015D000C8004000880040005889FF1F5489FF1F41
:1015E000A42400006089FF1FA02400005589FF1F6C
:1015F0000080FF1FD06A083800F040F9C1E4D9F834
:101600002400083800F03AF9B6E4D06C083800F04D
:1016100035F9CAE4506C083800F030F9C0E4D06BFA
:10162000083800F02BF9B6E4506B083800F026F9C2
:10163000ACE4D2F88C00083800F020F9DFE4D2F8EE
:101640008400083800F01AF9D3E4D06F083800F0AD
:1016500015F9C8E4506F083800F010F9BEE4D06EF8
:10166000083800F00BF9B4E4506E083800F006F9C1
:10167000AAE4D06D083800F001F9A0E4506D0838F4
:1016800000F0FCF896E4D2F89C00083800F0F6F878
:10169000C1E4D2F89400083800F0F0F8B5E44FF057
:1016A000020CD5E69AF80030C5F8880001338AF8B4
:1016B000003072E69AF80030C9F8800001338AF8E9
:1016C00000302DE79AF80030A86201338AF8003024
:1016D0003DE69AF80030286201338AF8003049E785
:1016E0009AF80030A86401338AF800303CE69AF892
:1016F0000030C8F8400001338AF8003027E79AF834
:101700000030A86601338AF800303AE69AF80030D3
:10171000C8F8600001338AF8003040E7BCF1400FA0
:10172000E14628BF4FF0400900EB09030393002373
:1017300001930123C9EB0C014FEA094A0293FCE42F
:10174000F8B500F0E1FC294B29482A4C2A4F2B4DD3
:10175000DFF8BCC0DFF8BCE0294E00221A605A60F6
:101760009A60DA601A615A619A61DA611A625A62A1
:101770009A62DA621A635A639A63DA631A645A6481
:101780009A64DA641A655A659A65DA651A665A6661
:101790009A66DA661A675A679A67DA67C3F880202A
:1017A0000168C3F8842041F480210160C3F307215C
:1017B0002170C3F30740134938701B0E2B70FF23B1
:1017C0008CF80030104D8EF8003010480B7001235B
:1017D000337084F8642070264FF40074102207F8E8
:1017E0002C3C2E70046081F8F820F8BD0080FF1FAB
:1017F000348004409C200740B0200740B4200740BC
:10180000942007401020074049E400E008E100E090
:10181000802007408820074000F0A2B800F076B88A
:1018200000F04EB800F08EB800F052B900F02CB9BC
:101830000846114600F0ACB8084600F019B97047E8
:1018400010B572B60B480268B2FA82F10B2902DDBC
:1018500062B6002010BD4FF00043CB4022EA0302E5
:10186000026062B6044C48234B43E0180022E25069
:10187000426010BD3487FF1FBC83FF1F0C4B482202
:10188000C31AB3FBF2F30B2B11D80A4A127822B118
:10189000094A12780AB1FFF715B972B607494FF035
:1018A000004222FA03F30A681A430A6062B67047DC
:1018B000BC83FF1F5589FF1F6089FF1F3487FF1FEF
:1018C00010B5104C23686BB1206843885A1C034440
:1018D0001C7A03889A4212D3FFF7D0FF094B0022EB
:1018E0001A600DE0084B1B7813B94FF0FF3010BDA4
:1018F0000320FFF7B3F820600028E5D1F5E7428028
:10190000204610BD7489FF1F6089FF1F10B50B4C66
:10191000236813B122686AB902E0094B1B7813B936
:101920004FF0FF3010BD0320FFF798F8206000282B
:10193000F0D1F5E753881344187A10BD7489FF1F5E
:101940006089FF1F044B9888044B1A681AB11388EA
:1019500052889B1A18447047248BFF1F7489FF1FFD
:1019600010B5094B1B786BB1084C206818B1FFF714
:1019700085FF002323600320FFF770F810B1FFF705
:101980007DFFF8E710BD00BF6089FF1F7489FF1F4E
:101990002DE9F84F314DDFF8D490012382460C46F3
:1019A0002B700E464F46002E53D0D9F800303BBB6B
:1019B000DFF8B0B048F60148294B1B7803F0FF016F
:1019C0000BB9297015E00420FFF766F8072807D83F
:1019D00001232B70FFF734FF386088B91F4B187054
:1019E000B8F1010802D09BF8003033B11D4B012241
:1019F0001A704FF0FF30BDE8F88F00F0BBF8DBE75E
:101A0000184B0021197039684B88C3F14000B0426F
:101A100028BF304603EB000E0B44A1F802E0361A53
:101A200007330AEB0008C24504D01AF8010B03F88B
:101A3000010FF8E74B883F2B06D940230B80042089
:101A4000FFF7A4F800233B60074B05221A70C2463B
:101A5000A9E72E702046BDE8F88F00BF6989FF1FF7
:101A60006089FF1F7089FF1F6889FF1F6C89FF1F36
:101A700007B502AB012103F8010D1846FFF788FFF7
:101A800003B05DF804FBFFFF38B50E4C0E4D01238B
:101A900023702B687BB90D4B1B7813B90020207085
:101AA00038BD0420FEF7F8FF0728F7D8FFF7C8FE77
:101AB00028600028F2D02B68588800232370C0F1DA
:101AC000400038BD6989FF1F6C89FF1F6089FF1FB7
:101AD0002DE9F041114B1B78F3B1114F114B3C68CC
:101AE000114D01261E7098464CB1002663882E7059
:101AF000214623800420FFF749F83E6009E0FFF704
:101B00009FFE014620B104202C70FFF73FF800E053
:101B10002E70002388F80030BDE8F0816089FF1F37
:101B20006C89FF1F6989FF1F6889FF1F38B50E4B3D
:101B30001B7803F0FF05ABB90C4C216831B14B8821
:101B40000B800420FFF722F8256038BDFFF778FEF0
:101B5000014620B10420BDE83840FFF717B8044B18
:101B600001221A7038BD00BF6989FF1F6C89FF1FF1
:101B70006889FF1F38B51E4C2378002B36D101230E
:101B80002370FFF7DFFE08B1FFF759FE00F02AF9D6
:101B900008B100F0C7F800F0B3F908B100F0C3F8DD
:101BA00000F03CFA08B100F0BFF800232370EFF317
:101BB0000583DBB9EFF3108272B60E4D286810B1C1
:101BC0000D4C217811B18AB962B638BD012323705A
:101BD00043692B600BB1996101E008490B6002B9C0
:101BE00062B60025457783689847257038BD00BFE9
:101BF0007989FF1F8C89FF1F9089FF1F8889FF1F2C
:101C0000EFF3108072B6B0FA80F04009704700B16F
:101C100062B67047F8B50C4E0C4F0025FFF7F0FF89
:101C2000346802466CB1636933600BB19D6100E0BA
:101C30003B601046FFF7EBFF6577A36820469847A7
:101C4000ECE7FFF7E4FFF8BD7C89FF1F8089FF1FE9
:101C5000FFF7E0BF15490B6830B513B98360C36067
:101C600009E004681A68944207D20025121B8360B9
:101C7000C560D8601A60086015E002681C68996841
:101C8000121B026061B10C68A2420B46F5D2816062
:101C9000C968C160D860C168A21A88601A6002E091
:101CA0008160C36098600223037530BD8489FF1F83
:101CB00070B5164D2C680026BCB1236813B1013BEA
:101CC000236012E0A26802B1D36020692A60036831
:101CD00026751B6822460021984763681BB1236064
:101CE0002046FFF7B7FF2C68E6E7FFF789FF084BB0
:101CF00000221C681A60FFF78AFF2CB1A5682046F5
:101D0000FFF7A8FF2C46F8E770BD00BF8489FF1FCE
:101D10009489FF1F024A136801331360FFF7C8BF9D
:101D20007C88FF1F704770477047FFFF10B5204B3E
:101D30002048214960221A70E1225A701F4B204A24
:101D40001C78204B082C01D1012402E00A2C03D17D
:101D500019240460132005E00C2C0CBF15243D242D
:101D600004601220086014601860174B17491B7834
:101D7000174A03B101230B601360164B164A1978FA
:101D8000164B012901D880210BE0042901D88421B8
:101D900007E0082901D8852103E0102994BF862196
:101DA0008721116019600E4B01221A7010BD00BF0F
:101DB0000040074008B003400CB003403887FF1FC5
:101DC00008B00B400CB00B409989FF1F20B00340B6
:101DD00020B00B403987FF1F24B0034024B00B40D4
:101DE0009889FF1F054B1878054B1A78C0B2D3B2FB
:101DF000984238BF4030C01A704700BF228AFF1F88
:101E0000A189FF1FF0B534490B7913F0300F2FD0A3
:101E100072B68B7D03F0FF0423B9CB7940234B745A
:101E200062B625E062B62D482D4A037812782D4F10
:101E3000DBB2D2B20546581C4028CE7928BF00201C
:101E40009042F6B21CBF3E540346601E10F0FF04E1
:101E5000F1D1D9B229702449096849B1934236BFFA
:101E6000C2F140029B1A9B18272BC4BF01230B70A1
:101E7000194AD178C9B20D061ED513791C061BD597
:101E80001A4B1B481D7803781A4EEDB2DBB2AB42F9
:101E90000AD00133402B28BF00231479F45CE4B24C
:101EA000D471147D072CF2D9DBB203700A4B1A7976
:101EB000100644BF7C22DA7049060CD5064B1A790D
:101EC000520608D50C4A002111700C4A126802B162
:101ED00011703C22DA70F0BD00A00640228AFF1F7C
:101EE000A189FF1FE289FF1F9C89FF1F288AFF1F0E
:101EF000238AFF1FA289FF1FA089FF1F248AFF1FBB
:101F0000054B1878054B1A78C0B2D3B2984238BF47
:101F10004030C01A704700BF9A8AFF1F318AFF1FE6
:101F2000F0B534490B7913F0300F2FD072B68B7D9A
:101F300003F0FF0423B9CB7940234B7462B625E04C
:101F400062B62D482D4A037812782D4FDBB2D2B2FB
:101F50000546581C4028CE7928BF00209042F6B292
:101F60001CBF3E540346601E10F0FF04F1D1D9B2ED
:101F700029702449096849B1934236BFC2F1400231
:101F80009B1A9B18272BC4BF01230B70194AD178C9
:101F9000C9B20D061ED513791C061BD51A4B1B485A
:101FA0001D7803781A4EEDB2DBB2AB420AD0013392
:101FB000282B28BF00231479F45CE4B2D471147D7B
:101FC000072CF2D9DBB203700A4B1A79100644BF12
:101FD0007C22DA7049060CD5064B1A79520608D5D0
:101FE0000C4A002111700C4A126802B111703C2297
:101FF000DA70F0BD00B006409A8AFF1F318AFF1FD9
:102000005A8AFF1F2C8AFF1FA08AFF1F9B8AFF1F6F
:10201000328AFF1F308AFF1F9C8AFF1F054B1878EA
:10202000054B1A78C0B2D3B2984238BF4030C01ABC
:10203000704700BF128BFF1FA98AFF1F10B5284BE6
:102040001A79920620D52749DA790B782648013388
:1020500000783F2BC8BF0023834218BF2348D2B269
:102060001EBFC254DAB20A70214A116861B1214A16
:102070001278D2B2934236BFC2F140029B1A9B182B
:10208000272BC4BF01230B701549CA78D2B214069E
:1020900016D50B79180613D5174B164C18782378DC
:1020A000DBB2984202D16C23CB7009E00133282BBC
:1020B00028BF00231148C05CDBB2C0B2C8712370D6
:1020C00051060CD5064B1A79520608D50C4A002148
:1020D00011700C4A126802B111702C22DA7010BD16
:1020E00000C00640128BFF1FA98AFF1FD28AFF1F64
:1020F000A48AFF1F138BFF1F188BFF1FAA8AFF1FC5
:10210000A88AFF1F148BFF1F1FB572B6154B7022D4
:102110001A70154A412111700F2102F8011C80220A
:102120001A701A781206FCD5104B186862B6104B5C
:10213000984298BF0A2301AC98BF58430A2221460F
:10214000FEF7D4FB0B4A0023E15C21B101330A2BDB
:1021500022F8021BF8D1084A01335B00137004B067
:1021600010BD00BF0000024007000240080002400E
:102170007F969800C487FF1FC287FF1F0B4601464A
:10218000184600F001B8FFFF10B5054C13462CB1FE
:102190000A4601460220AFF3008010BD204610BD64
:1021A00000000000014B1868704700BF3888FF1F0F
:1021B00070B50E4B0E4CE41AA41000251E46A54225
:1021C00004D056F8253098470135F8E700F0C4F9F7
:1021D000084C094BE41AA41000251E46A54204D061
:1021E00056F8253098470135F8E770BD64250000A2
:1021F000642500006C25000064250000024B0146A8
:10220000186800F003B800BF3888FF1F38B50546CE
:10221000002946D051F8043C0C1F002BB8BFE4182D
:1022200000F0E5F81F4A1368114613B963601460A3
:1022300032E0A3420ED92268A018834204BF186876
:102240005B68636004BF121822600C6024E0A24245
:1022500003D813465A68002AF9D118681918A14200
:102260000BD12168014458188242196014D11068BA
:1022700052685A60014419600EE002D90C232B60A9
:102280000AE021686018824204BF106852686260E8
:1022900004BF091821605C602846BDE8384000F0A2
:1022A000A7B838BD208BFF1F70B5CD1C25F00305E6
:1022B00008350C2D38BF0C25002D064601DBA94240
:1022C00002D90C23336046E000F091F8234B1C68E0
:1022D0001A462146A1B10B685B1B0ED40B2B03D908
:1022E0000B60CC18CD501EE08C420DBF63684B686C
:1022F0006360136018BF0C4615E00C464968E9E7B7
:10230000174C23681BB9304600F034F8206029468A
:10231000304600F02FF8431C18D0C41C24F00304EE
:10232000A0420DD12560304600F062F804F10B00A8
:10233000231D20F00700C31A0ED05A42E25070BD90
:10234000211A304600F016F80130EBD10C2333602F
:10235000304600F04DF8002070BD00BF208BFF1FFD
:102360001C8BFF1F024B0A460146186800F041B85B
:102370003888FF1F38B5064C002305460846236001
:10238000FEF79EFA431C02D1236803B12B6038BDCF
:10239000388BFF1F10F8012B11F8013B012A28BFD1
:1023A0009A42F7D0D01A7047034611F8012B03F870
:1023B000012B002AF9D17047034613F8012B002A9C
:1023C000FBD1181A0138704710B5034642B111F815
:1023D000014B03F8014B013A002CF7D11A4400E0FD
:1023E00010BD934202D003F8014BFAE710BD7047CD
:1023F0007047F8B5074615460E4621B91146BDE8A7
:10240000F840FFF751BF1AB9FFF700FF2846F8BDA3
:1024100000F015F885420ED929463846FFF744FFEB
:10242000044650B131462A46FEF78AF9314638460D
:10243000FFF7ECFE01E03046F8BD2046F8BD51F84C
:10244000040C0028BEBF091851F8043CC018043819
:10245000704748656C6C6F2066726F6D20417264C6
:1024600075696E6F00486F772061726520796F75AE
:102470002C20000D0AFFFFFF0000000000000000FC
:1024800039180000311800002D180000291800002C
:1024900025180000211800001D1800001918000060
:1024A00000151915000100003A87FF1F12000000F7
:1024B000000200006487FF1F4300000000030000CB
:1024C000BE87FF1F00000000010309044C87FF1FA7
:1024D0000000000002030904A887FF1F000000009D
:1024E00003030904C287FF1F000000000000000072
:1024F00000000000000000000000000000000000DC
:1025000000000000000000000000000000000000CB
:1025100000000000000000000000000000000000BB
:1025200000000000000000000000000000000000AB
:10253000000000000000000000000000000000009B
:10254000000000000000000000000000000000008B
:102550000000000000000000F8B500BFF8BC08BC97
:0C2560009E46704735040000F5040000A2
:04256C00F8B500BFFF
:10257000000000003C8BFF1F8024000000000000D2
:10258000E803000000000000FFFFFFFF0A04120143
:10259000100102000040C01683047502010203010D
:1025A00018035400650065006E0073007900640034
:1025B000750069006E006F0009024300020100C04F
:1025C0003209040000010202010005240010010587
:1025D00024010101042402060524060001070582E6
:1025E0000310004009040100020A0000000705036F
:1025F0000240000007058402400000001603550059
:102600005300420020005300650072006900610021
:102610006C00040309040C0300000000000000002B
:1026200000000000000000000000000000000000AA
:10263000F8240000182500003825000000000000E4
:10264000000000000000000000000000000000008A
:10265000000000000000000000000000000000007A
:10266000000000000000000000000000000000006A
:10267000000000000000000000000000000000005A
:10268000000000000000000000000000D887FF1FCD
:00000001FF
