:1000000000000320D1010000C9180000951800006D
:10001000951800009518000095180000951800002C
:10002000951800009518000095180000C9180000E8
:10003000C918000095180000492B00000D2C000085
:10004000C9180000C9180000C9180000C91800002C
:10005000C9180000C9180000C9180000C91800001C
:10006000C9180000C9180000C9180000C91800000C
:10007000C9180000C9180000C9180000C9180000FC
:10008000C9180000C9180000C9180000C9180000EC
:10009000C9180000C9180000C9180000C9180000DC
:1000A00099140000A5140000C9180000C918000028
:1000B000C9180000C9180000C9180000012D00006F
:1000C000C91800001D2E0000C9180000392F0000BB
:1000D000C918000025300000C9180000C918000028
:1000E000C9180000C9180000C9180000C91800008C
:1000F000C9180000C9180000C9180000C91800007C
:10010000C9180000C9180000C9180000C91800006B
:10011000C91800003D1D0000C9180000C9180000E2
:10012000C9180000C9180000C9180000C91800004B
:10013000C9180000C9180000C9180000C91800003B
:10014000C9180000C918000011310000C9180000CA
:10015000C9180000C9180000C9180000C91800001B
:10016000C9180000C9180000B1140000C918000027
:10017000C9180000C9180000C9180000C9180000FB
:10018000C9180000C9180000C9180000C9180000EB
:10019000C9180000C9180000FD310000C91800008E
:1001A000C9180000C9180000C9180000BD140000DB
:1001B000C9180000C9180000C9180000C9180000BB
:1001C000C9180000C9180000C9180000C9180000AB
:1001D0005C4B4CF2205210B51A804DF628121A8052
:1001E00000BF00BF01F074FB574B4FF030621A6044
:1001F000564A9A60564ADA60564B4FF470021A60BB
:10020000554B564A1A60564B1A78110748BF1A7850
:10021000544944BF42F008021A70534BAA221A7084
:10022000524A534B8B4204D252F8040F43F8040B4A
:10023000F8E7504B504A0021934202D243F8041B86
:10024000FAE74E4A4E48002350F8231042F8231094
:100250000133742BF8D14B4B4B4A802103F8011B1F
:100260009342FBD1494B454A1A60494B8A221A7086
:10027000A3F5805324225A70A0221A709A7992070B
:10028000FCD59A79D406FCD4424A937903F00C0346
:10029000082BFAD1404B60221A70404A1378802B09
:1002A000FCD13C4B01221A715D225A719A79900659
:1002B000FCD59979374A4906FBD5394B394919603C
:1002C0000021596020231370937903F00C030C2B49
:1002D000FAD1354B354A1A60354A364C136813F457
:1002E000807302BF23604FF4A8531360324B334A2C
:1002F0001A6000225A60072243F8042C304AC3F8DF
:100300000C2D62B601F0F0FB2368DA0705D52D4805
:1003100001F052FB2C4B2D4A1A602D4B1B785B06CB
:1003200009D5294C294B22689A4204D1254801F06D
:1003300043FB0023236003F045F801F0CFFA01F0FE
:10034000E5F9FEE70E20054030800440823F0400BE
:100350000100002B88ED00E0002008E0030000858C
:1003600002D00740B012FF1F00E007402841000004
:100370003007FF1FB012FF1F4C18FF1F0002FF1FA6
:100380000000000000E400E064E400E008ED00E0AC
:10039000005006400040064001E0074003E00740EF
:1003A000448004400000060204800440C01007009E
:1003B00010D0034014D0034014E000E01FBF02003F
:1003C00000002020E3E3C05D1CE00340A5C3945A75
:1003D00000F00740FFFFFFFFFFFFFFFFFFFFFFFFF2
:1003E000FFFFFFFFFFFFFFFFFFFFFFFFFFFFFFFF1D
:1003F000FFFFFFFFFFFFFFFFFFFFFFFFFFFFFFFF0D
:10040000FFFFFFFFFFFFFFFFFFFFFFFFDEF9FFFF23
:1004100010B5054C237833B9044B13B10448AFF33E
:1004200000800123237010BDB012FF1F00000000E8
:100430002C410000084B10B51BB108490848AFF328
:1004400000800848036803B910BD074B002BFBD0A0
:10045000BDE81040184700BF00000000B412FF1FA5
:100460002C410000B012FF1F000000000020704768
:100470000369D3F83801D3F83431C01A7047704794
:100480000269D2F84432B3F5817F09D8D2F84432F8
:10049000581C1344C2F8440283F83C1101207047F1
:1004A000012303710020704738B50A4B03600369CC
:1004B00093F84822022A044609D1D3F8745235B180
:1004C000284601F009F90821284601F073FA204670
:1004D00038BD00BF243D000038B514460269D2F88B
:1004E0004432B3F5817F05461AD8D2F84432D2F8A7
:1004F0004402C3F581730133A34202F59E7238BFF3
:100500001C4610443CBF01222A71224601F006F924
:100510002A69D2F844322344C2F84432204638BD16
:1005200001230371002038BD00F11002074B43F88E
:10053000221043119B0003F1604303F5614300F077
:100540001F00012202FA00F0186070470002FF1F2E
:1005500010B5044601F092FA2368C01A10BD026873
:10056000938B9BB243F00203938370470268938B93
:100570009BB243F0080393837047FFFF002210B53E
:1005800002710273064A02604FF47A74054A84606D
:100590004FF42774417304FB0121016110BD00BFBA
:1005A000243D00003407FF1F30B5094C00232244CE
:1005B0001D5D854206D1D55C8D4203D1044A1344AA
:1005C000D87830BD0433202BF2D1002030BD00BFDD
:1005D000403D0000F8B5C3681B789B0604460D46F5
:1005E00000F1A780836880211970C36812211970F7
:1005F00090F84932012B03D01AB980F8482200E064
:100600001A46531E012B00F2968015B94FF08071E7
:1006100003E0012D03D14FF00071484B09E0022D9A
:1006200002D14FF4806103E0032D03D14FF000614C
:10063000434B1960022A78D1D4F8746246B9082075
:1006400001F0B6F93146074600F0F2FFC4F87472C3
:10065000D4F874626EB13379202B0AD1304601F0A0
:100660003BF80821304601F0A5F90023C4F87432A4
:100670005BE0ADB93046FFF779FFD4F87432314909
:100680001879FFF751FFD4F87402FFF768FFD4F828
:1006900074321B7903F1804303F504331D703BE092
:1006A000012D06D13046FFF761FFD4F87432264998
:1006B00007E0022D17D13046FFF758FFD4F8743207
:1006C00022491879FFF730FFD4F87402FFF747FF8B
:1006D000D4F874321B7903F1804303F5043300220C
:1006E0001A70932219E0032D18D1D4F87402FFF781
:1006F0003DFFD4F8743216491879FFF715FFD4F886
:100700007402FFF72CFFD4F874321B7903F1804395
:1007100003F5043300221A7092221A70002384F821
:100720005E32022384F8483205E0012084F8480252
:10073000F8BD0020F8BD0120F8BD00BF00E100E0D9
:1007400008E100E099140000A5140000B1140000B5
:10075000BD140000F0B54FF47A74B1FBF4F3B2FBB2
:10076000F4F21D4C1B02B3FBF2F2002354F82350A9
:10077000194EB2EB052F03DB0133372BF6D100E026
:100780003BB35D1E56F8237056F82540A2EB0424B7
:10079000002CA2EB0722B8BF6442002AB8BF524225
:1007A000944216DC0D4A4368525D1A7056F82530A3
:1007B000B1FBF3F3C0F85032094B826999428FBF05
:1007C0000423084BB1FBF3F1C9B28CBF1370117055
:1007D000F0BD1D46E6E700BF643D0000403E00005E
:1007E000FF6BDC02001BB7002DE9F84F9DF82CB021
:1007F0009DF828709DF8309005468A4614461E469E
:10080000BBF1000F06D0B9F1000F03D0C3681B780D
:100810009B0618D4012221465046FFF7C5FE95F8E5
:100820004A329C42804611D1BBF1000F67D00222B0
:1008300031465046FFF7B8FE95F84B329E420446CB
:1008400008D0002835D10020BDE8F88FB8F1000F9E
:100850000BD1ECE7B9F1000F55D0B8F1000FF2D091
:100860000028F0D00120BDE8F88FBBF1000F09D0BF
:1008700095F84C3295F84A02002B14BF0221002152
:1008800001F0CAF84FEA082303F4E06317B943F014
:10089000640301E043F003031C4A02EBC402526804
:1008A0001360012385F84A4285F84C7285F8983226
:1008B000BDE7B9F1000F09D095F84C3295F84B021D
:1008C000002B14BF0221002101F0A6F8240204F439
:1008D000E06417B944F0640401E044F003040B4BF6
:1008E00003EBC6035B681C60012385F84B6285F847
:1008F0004C7285F89932B8F1000FA4D0B2E7B8F184
:10090000000FBFD193E70028E0D19CE7883E0000AC
:10091000F0B585B0044617469DF828009DF82C20B8
:100920009DF830600D4611B9DFF8CCE008E00129F0
:1009300002D1DFF8C4E00CE0022906D1DFF8BCE008
:10094000DEF8001041F0400107E0032907D1DFF88D
:10095000ACE0DEF8001041F08001CEF8001000217C
:1009600084F8551284F84972616917B920230B7015
:1009700015E0002814BF282720270F70276801D012
:10098000984201D9590000E04100C9B23970E169CB
:1009900020B198428CBF40005800C0B2087012B914
:1009A00094F84A22D2B216B994F84B62F6B294F88F
:1009B0009932029394F8983201939DF83430009361
:1009C000294633462046FFF70FFF0E9A0949204675
:1009D000FFF7C0FE9DF83C2029462046FFF7FAFDB0
:1009E00094F84922A3680AB9802200E0C0221A7054
:1009F00005B0F0BD00879303348004402880044094
:100A0000F7B504460E4615461F4601F037F801902B
:100A10000DB9D4F8785201F031F8A36801901A7832
:100A2000920602D5B4221A702BE025B101A8FFF777
:100A30008FFD85420CD9E3681B7803F0200303F097
:100A4000FF02002BF1D1A36884F84922B0221A706A
:100A5000A3681B7803F0200303F0FF058BB906237E
:100A600084F85532D4F8903201331EBFD4F8903256
:100A70000133C4F89032D4F87032002B3CD0984740
:100A80003AE01F4B1B784BB994F84832013B012BDD
:100A900004D805E01B4B1B78834217DA01252BE0B5
:100AA00000F034FF032E0FD801A353F826F000BF47
:100AB000C90A0000950A0000C10A0000C50A00002A
:100AC000114BE8E7114BE6E7114BE4E70F2802DC96
:100AD00001253D7010E01038C0B2032E09D8DFE8C0
:100AE00006F008020406074B04E0074B02E0074B40
:100AF00000E0074B1870D1E7284603B0F0BD00BFF7
:100B00000813FF1F19E400E04AE400E05BE400E0A2
:100B100018E400E00369490083F83C1103690122ED
:100B2000C3F844220022027183F8552270472DE950
:100B3000F7431D4600238DF80330D0F844320446B5
:100B40001646002B00F0F7800DB9D0F87852A26954
:100B5000137843F050031370A269137803F0DF0396
:100B60001370E36812221A7020460DF103032A461F
:100B7000FFF746FF002800F0DE8094F8483213B1FA
:100B80009DF80320D2B100F079FF02AF082347F8A7
:100B9000040D84F8546284F8553204F23B180026A0
:100BA0004FF00209D4F844329E4262D2002D48D060
:100BB0003846FFF7CDFC854243D85AE0591E01293B
:100BC00000F2B9800821022B84F8551284F854628F
:100BD000C4F840222DD1D4F84432042B29D9D4F8BA
:100BE000741201200D6884F85E02D4F84432EA7170
:100BF00004F59F76A8802E600D68A8600868033B06
:100C00005D429BB2C3830968C560CB82D4F874325D
:100C100020691968B0F1804F8A718A8208611A6868
:100C2000C0F086809168002900F082801B68002255
:100C30009A61A368F0221A70236994F83C211A7013
:100C400079E0236918F8012F1A70E3681B78980778
:100C500006D4002DF9D03846FFF77AFC8542F4D847
:100C6000E36883F8009055B33846FFF771FC85427E
:100C700025D894F85432012BA36801D1802200E0DA
:100C8000B0221A70D4F844329E420FD2012384F865
:100C90005532D4F88032013302D1D4F870320AE0F0
:100CA000D4F880320133C4F88032F6E7002384F8A8
:100CB0005532D4F86032002B3DD098473BE0E268D3
:100CC0001378DBB2D90611D5042384F855321023EA
:100CD0001370A36880221A70D4F88C320133DCD0F0
:100CE000D4F88C320133C4F88C32D6E7DB071DD53B
:100CF00066B9022384F85532D4F88432013311D016
:100D0000D4F884320133C4F884320BE0032384F82E
:100D10005532D4F8883201331EBFD4F888320133FB
:100D2000C4F88832A36880221A70B6E7013639E722
:100D3000012191607AE703B0BDE8F083036993F87D
:100D40005532013B052B0AD8DFE803F007030507FE
:100D50000E07022070470320704704207047007977
:100D6000003018BF012070470120704773B504465A
:100D7000154600F083FE01900DB9D4F8785200F0CA
:100D80007DFE02AE46F8040D94F85532072B21D9AA
:100D9000002DF9D03046FFF7DBFB8542F4D801A8DF
:100DA000FFF7D6FB85420DD894F84832022B09D1C3
:100DB00094F85E3233B194F85532072BFBD80123F7
:100DC00084F8553294F85532072B06D9012384F85C
:100DD000553202E0002DF5D0E1E7F023013BFDD1D3
:100DE00094F85502B0FA80F0400902B070BDF8B531
:100DF000069E0C46154607461A46294633462046A7
:100E0000FFF795FE324629462046FFF7AFFF3846EA
:100E1000BDE8F840FFF792BFD0F83421D0F8383160
:100E20009A423FBFD0F834315A1CC0F83421C01860
:100E300034BF90F830004FF0FF3070470069FFF783
:100E4000EBBFD0F83421D0F838319A423DBFD0F80A
:100E50003431C01890F830004FF0FF30704700690F
:100E6000FFF7EFBFF8B5B6490B7804460133DBB2A4
:100E70000B70C068A3680578A6691A783778D2B273
:100E800012F0200FEDB2FFB20E4616D012F0100F86
:100E900094F85E2208D0022A00F0D28094F85E22F4
:100EA000032A40F0F680CBE0022A00F0DA8194F8C1
:100EB0005E22032A40F03882D3E115F0100F05F0CE
:100EC000400311D04FF0100E80F800E063B9A26922
:100ED000137843F050031370E36802221A700B7802
:100EE000013BDBB20B70F8BD03F0FF00002B47D0D5
:100EF00094F855320C2B04D1D4F86832002B40F012
:100F0000C48205F0040505F0FF01F5B10B2384F858
:100F100055320023C4F84432A368D0221A702369E2
:100F20001B785B0884F85632D4F86C3203B19847CA
:100F3000D4F844320BB984F83C31236994F83C214D
:100F40001A700123C4F8403211E0A269137843F00B
:100F5000200313700C2384F85532A368C4F83811A9
:100F6000C0221A7023691B785B0884F85632A26984
:100F7000137843F050031370E36802221A7041E0C3
:100F800002F0100202F0FF01F2B115F0010513D1D9
:100F9000D4F84022D4F844329A4207D2D4F84032EE
:100FA0005A1C2344C4F8402293F83C5123691D7015
:100FB000A368D0221A703AE0A368C0221A7023698D
:100FC0001B7884F8550232E094F855320C2B2ED160
:100FD00017F0500F1BD0A269137843F05003137021
:100FE000A269137803F0DF031370E36802221A701A
:100FF000D4F8683284F8551223B1C4F83411D4F807
:10100000380198473378013BDBB23370F8BD236970
:101010001A78D4F83831B3F5817FD2B207D8D4F832
:101020003831591C2344C4F8381183F83020A269A0
:10103000137843F050031370E36802221A70F8BD6E
:10104000D4F874321A68928B120600F1FA8094F880
:101050005E22032A0ED102781206FCD51A79394B8A
:101060001A70002384F85E32D4F84432013BC4F88D
:10107000403207E01A79344B1968012393400B4240
:10108000C0D025E1D4F840322269234493F83C31A2
:1010900071E794F85522082A6BD105F0100202F08E
:1010A000FF016AB10023042284F85E3284F85522DD
:1010B00010220270A26880211170C4F8403266E0EC
:1010C00015F0010523D084F85E12D4F8402262B9ED
:1010D000022284F85522D4F88422013211D0D4F8A7
:1010E00084220132C4F884220BE0032284F85522C2
:1010F000D4F8882201321EBFD4F888220132C4F805
:10110000882280221A70E36802221A70D9E0D4F88B
:1011100040220132C4F84022D4F844128A4215D346
:1011200094F8542284F85552012A0CBF8022B02230
:101130001A70E36802221A70D4F86032C3E000BF6C
:101140000813FF1F1C8000402C80004094F85E2292
:10115000012A97D1F121022284F85E221970D4F875
:1011600074321979BF4B1970236994F83D111970C5
:1011700075E094F85522092A48D1EF0615D50423C5
:1011800084F8553210230370A36880221A70E36834
:1011900002221A70D4F88C32013300F09280D4F815
:1011A0008C320133C4F88C328BE0E90710D502226F
:1011B000802184F855221970E3681A70D4F88432BB
:1011C00001337ED0D4F884320133C4F8843278E01D
:1011D00094F85E22012A0CD1E121022284F85E22D9
:1011E0001970D4F8743219799E4B197023691B78E1
:1011F00035E00A2284F85522D4F85822012A0CBF7F
:10120000E822E0221A7023691B78B5E694F855228B
:10121000012A13D194F85422012A0CBF8022B02253
:101220001A70E36802221A70D4F88032013348D071
:10123000D4F880320133C4F8803242E080221A7040
:101240004AE694F85E22022A7FF401AF1979864BB0
:101250001970A368F0211970032384F85E32E368E3
:101260008CE6D4F874321A681B79928B12F0800FD6
:1012700040F0A38094F85E22032A74D07B4A116860
:1012800001229A400A423FF4BDAE794A1370D4F865
:1012900074321A79744B1A70002384F85E32072373
:1012A00084F85532A36880221A70E36802221A700B
:1012B000D4F89432013304D0D4F894320133C4F812
:1012C0009432D4F87032002B3FF49CAE984799E6E4
:1012D000674B1A70D4F874321A79634B1A70002372
:1012E00084F85E32072384F85532D4F894320133FF
:1012F00004D0D4F894320133C4F89432EB0611D5FB
:10130000042384F85532D4F88C3201331EBFD4F84C
:101310008C320133C4F88C32E36810221A70002337
:10132000C4F84032A368ECE6D4F83821D4F8581257
:1013300002328A424BD094F85522012A03D194F804
:101340005D22002A43D0D4F83831D4F85822013332
:1013500093425AD294F85532012B3BD194F85D3226
:10136000002B52D136E0434A1370002384F85E32DA
:10137000A368B0221A70D4F85832013BC4F838314F
:10138000D4F838315A1CC4F8382122692344127821
:1013900083F8302094F85432012B05D13C23013BD3
:1013A000FDD1A36880221A70E36802221A7000231C
:1013B00084F85532D4F8643285E794F85E22022A24
:1013C0007FF458AF28490B70A368E82143E7E8226F
:1013D0001A70B8E7D4F838315A1CC4F83821226999
:1013E0002344127883F83020E36802221A7094F8BC
:1013F0005532DBB2012B7FF405AE94F85D22002A52
:101400007FF400AE84F85D32FCE5002384F85D32A1
:10141000A368B0221A70D4F838315A1CC4F83821A5
:1014200022692344127883F8302094F85432012B37
:1014300005D13C23013BFDD1A36880221A70E368EB
:1014400002221A7094F85532012B15D1D4F880324B
:1014500001331EBFD4F880320133C4F88032D4F88F
:1014600070320EE01B8000401F8000402C80004046
:101470001E8000401C800040002384F85532D4F8C0
:101480006432002BB3D09847B1E70022C4F834216E
:10149000D4F83801984734E500210148FFF7E2BC51
:1014A0003407FF1F01210148FFF7DCBCD009FF1FF3
:1014B00002210148FFF7D6BC6C0CFF1F0321014835
:1014C000FFF7D0BC080FFF1F38B5164B164D174C51
:1014D00018460021FFF752F82A462146184601F027
:1014E00058FF134B01211846FFF748F82A462146BA
:1014F000184601F04EFF0F4B02211846FFF73EF849
:101500002A462146184601F044FF0B4B032118469A
:10151000FFF734F82A4621461846BDE8384001F066
:1015200038BF00BFF412FF1F3007FF1FA9040000DF
:10153000CC12FF1FE012FF1F0C13FF1F30B501215B
:1015400087B00D2000F068FA00210D2000F044FA69
:101550000121212000F060FA0021212000F03CFA56
:10156000012305930E4B0F4D049312230024029385
:101570001323697B01932246234628690394009430
:10158000FFF7C6F92B69084AC3F8782221464FF4C1
:101590008072064800F05CF9054B1C6007B030BD56
:1015A000801A0600F412FF1F400D03002413FF1FD2
:1015B0002013FF1F13B501210D2000F00DFA184B69
:1015C000184C1A681848511C1960184901F0ECFFB2
:1015D00066212046FFF79EFA134802F009F81249E7
:1015E00002462046FEF778FF00232169627B0093C4
:1015F00020460123FFF7FBFB2046FFF79FFB014638
:1016000000B10121212000F0E7F900210D2000F0B8
:10161000E3F94FF4FA7002B0BDE8104000F04EBAA2
:101620002013FF1FF412FF1F2413FF1F773E00003B
:1016300030B572B6254C89B9016879B103790F2BA1
:101640000CD822881A41D20708D503F1007303F59C
:101650009063B1EB431F01D162B630BD21880023F6
:1016600041FA03F212F0010228D101259D402943DD
:10167000218062B6164DD9B201712C6844F0020483
:101680002C6055F8044C03F1007344F0020445F853
:10169000044C03F590630F4C5B0140F282452560DA
:1016A000A176A1772176E17703601A605A609A608B
:1016B000DA601A615A619A61DA6130BD0133102B28
:1016C000CED162B600220260037130BD2414FF1F28
:1016D000408004400080004003790F2B10D8094A55
:1016E000137072B608490279012303FA02F20B88DB
:1016F00023EA02030B8062B6102303710023036008
:10170000704700BF1A8000402414FF1F08B5FFF780
:1017100015FFFFF74FFF01F09BF9FAE7844641EA16
:10172000000313F003036DD1403A41D351F8043B59
:1017300040F8043B51F8043B40F8043B51F8043BAB
:1017400040F8043B51F8043B40F8043B51F8043B9B
:1017500040F8043B51F8043B40F8043B51F8043B8B
:1017600040F8043B51F8043B40F8043B51F8043B7B
:1017700040F8043B51F8043B40F8043B51F8043B6B
:1017800040F8043B51F8043B40F8043B51F8043B5B
:1017900040F8043B51F8043B40F8043B51F8043B4B
:1017A00040F8043B51F8043B40F8043B403ABDD2BA
:1017B000303211D351F8043B40F8043B51F8043B5C
:1017C00040F8043B51F8043B40F8043B51F8043B1B
:1017D00040F8043B103AEDD20C3205D351F8043BEB
:1017E00040F8043B043AF9D2043208D0D2071CBFB7
:1017F00011F8013B00F8013B01D30B8803806046E0
:10180000704700BF082A13D38B078DD010F0030355
:101810008AD0C3F10403D21ADB071CBF11F8013BC5
:1018200000F8013B80D331F8023B20F8023B7BE714
:10183000043AD9D3013A11F8013B00F8013BF9D23F
:101840000B7803704B7843708B78837060467047D9
:1018500001B5EAB1102A17DB00F0070333B1C3F179
:101860000803D21A013B00F8011BFBDCC9B241EAB4
:10187000012141EA01418C46D308013BE0E8021C0A
:10188000FBDC12F0070203D0013A00F8011BFBDC7D
:1018900001BD00BF08B50B4D2C462B68580301D580
:1018A00000F04CFA2368590501D501F029FA2368A4
:1018B0001A0501D501F0B2FA2368DB04EDD501F079
:1018C0003BFBEAE73480044008B5FFF7E3FFFFFF86
:1018D000014B10221A807047002005407047FFFF1F
:1018E000094908B50B6868B16A461844A2F5005268
:1018F000904206D301F060FD0C2303604FF0FF30EF
:1019000008BD0860184608BDA411FF1FEFF313803F
:10191000A8B9EFF31082A2B9EFF3058323B10F2B1F
:1019200005D9084A985C03E04FF4807000E0104647
:10193000EFF311832BB1984228BF184670474FF040
:10194000FF307047F0E300E0094B1A78802A0DD190
:10195000084A0949116002F5573202F2BD320021EE
:1019600011701A78802AFCD001207047002070473F
:1019700003E007404480044000002822094B1A7805
:10198000012A0DD102F1804202F5FC226021117082
:101990001A78802AFCD1044B044A1A60012070474F
:1019A0000020704703E00740448004400000060226
:1019B00001F02EBD01F034BD044B054900221A6030
:1019C0000A60044A106010221A60704714D0034065
:1019D00004D0034000D003403F2810B518D80D4B69
:1019E00053F8302092F880423CB1012311B182F8C3
:1019F000803010BD82F8003110BD03EBC0035B687E
:101A00001A6811B142F0030201E022F002021A60EA
:101A100010BD00BF883E00003F2810B52BD8164AE5
:101A200002EBC00301295B68144601D004290FD1E1
:101A300054F83020012082F880024FF4A2721A601C
:101A40001A6804290CBF42F0200222F0200211E0A3
:101A500052F83000002280F8802211B94FF48072D1
:101A600008E0022902D140F2031203E0032908BF73
:101A70004FF481721A6010BD883E000072B60C4BA4
:101A80000C4A0D491B681268096862B6490102D503
:101A9000322B88BF0132C3F52F33B42003F21F333A
:101AA000B3FBF0F34FF47A7000FB0230704700BFD5
:101AB00018E000E02814FF1F04ED00E038B50446EC
:101AC000FFF7DCFF054624B938BD013C0AD005F517
:101AD0007A75FFF7D3FF401BB0F57A7FF5D200F09F
:101AE000B7FFF6E738BDFFFF374B38494FF00062CC
:101AF00070B51A604FF080521A604FF000521A60B1
:101B00004FF080421A604FF000421A60304B314D66
:101B1000314C324E00224EF6FF701A605860282376
:101B20000B608B600B618B610B628B620B638B6351
:101B3000103101F501212B6023600B608B600B617C
:101B40008B610B628B620921316006F58056043689
:101B500032607060B360336146F8041C06F5FE26FF
:101B600032607060B360336146F8041C06F580563D
:101B7000326070601A482B6023600160A0F5E1209C
:101B8000A0F2D470016841F40071016050F8281C83
:101B900041F0007140F8281C12490A60124A47F6C9
:101BA000FF7111605360D360104B08221A6001F07E
:101BB0003BF81920FFF782FF00F058FE40F21310A7
:101BC000BDE87040FFF77ABF04E100E00C800340FD
:101BD000048003400C900B4014900B4000800340A5
:101BE00000900B4004900C4008900C4000900C407A
:101BF00030B472B62B4A13781D0706D52A4B196AE2
:101C0000002936D0996A002941D053781C0706D59F
:101C1000254B196C00293ED0996C002939D0937856
:101C2000190705D5204B196E002936D0996E89B158
:101C3000D3781B0707D51C4BD3F880207AB3D3F891
:101C4000882011213AB162B6184B00221A7030BCBC
:101C500000F0AABE0D21154C154D227843F83150E5
:101C600003EBC1030830013A5860227062B630BC01
:101C7000704704220D4C0F4D217843F8325003EB8E
:101C8000C20308304A1E5860227062B6EFE7052191
:101C9000E1E70921DFE70822ECE70C22EAE710225E
:101CA000E8E700BF884000000000FF1F0115FF1F8C
:101CB000C800400088004000431E032B1DD81B4A6B
:101CC000400140F0100030B4104472B6184CE25C91
:101CD000032A1BD8DFE802F00212151703220D8831
:101CE000E25410F0080F14BFC823882343EA0543C9
:101CF00008310360416062B630BC70470830022290
:101D0000EDE70522EBE708300422E8E7094A52F83C
:101D1000230038B1084A52F82300416042F82310EA
:101D200062B6E9E742F82310034AF7E70000FF1F15
:101D30001015FF1FD814FF1FE814FF1F2DE9F04FE7
:101D4000B54CB64E87B046E0B54F4FEA930B07EB64
:101D5000CB08013DD8F8041003F00803EDB2A1F15F
:101D6000080003F0FF02002B40F0108157F83B30D1
:101D70001B0C1FFA83FE21F808EC002B00F0FD80FD
:101D8000A84B21F8062C41F8042C53F82520002AF2
:101D900000F0DF82DFF8CCA25AF825305860DFF877
:101DA000C8924AF8250039F815309E4429F815E004
:101DB00000F0DCFD002800F0C5829B499B4B18F029
:101DC000080F00F1080018BF0B46C8F8040047F8D8
:101DD0003B30082323702578EDB2690719D5944B61
:101DE0001B78A3B193490A7802F0FF0322B1013BAB
:101DF000DBB20B7003B900BE8F490A7802F0FF0313
:101E00002AB1013BDBB20B70002B00F0718204237E
:101E1000237005F0080303F0FF02002B00F0DC80C4
:101E20003378DBB21D098FD19B087D4D55F83320E7
:101E300005EBC301C2F38302013A49680C2A00F2A0
:101E40009880DFE802F08C8C9696969696964D9642
:101E5000969607000868DFF8F4E14A68DFF80CB2EC
:101E6000764FCEF80420CEF8000082B240F28160B6
:101E70000021DFF8B49145F833904FF0010C824215
:101E8000CBF800102961A96187F800C0DFF89091B4
:101E900000F2F080B2F5D06F80F08F83B2F5817FD1
:101EA00000F0218300F2A882802A00F06283822A57
:101EB00040F02083BEF8043003F07F03042B00F2CF
:101EC00019835F4A5F489B001A4401704170137880
:101ED0009B0740F17A8480F800C04FF0020C4DE37C
:101EE000DFF888B1DBF8003073B3DFF884A1534F1B
:101EF000554ABAF8001097F800E0107840298C464F
:101F000040F0020928BF4FF0400CBEF1000F8EF0E8
:101F1000010E87F800E0CCEB01010CBF8827C82731
:101F200005EBC90E89B280F0010047EA0C47CEF8F4
:101F30000430AAF8001045F8397063441070002985
:101F400000F04581CBF80030404B1A88B2F5A06F05
:101F50000FD13F4A9978117000225A7009E03B4A2C
:101F6000108842F22102904200F036812E4A45F854
:101F70003320384A012313702BE72B492B4B18F0E1
:101F8000080F18BF0B4647F83B3022E700F00CFD66
:101F90003148324A50F82510002900F013824B686E
:101FA00012F805C040F8253001F10803C8F80430E4
:101FB000BCF1030F05D8DFE80CF02C022926022320
:101FC000535518F0080F0A880CBF8823C82343EA2A
:101FD000024347F83B30FCE6E80700F18C81290614
:101FE00000F10082AA0706D51D4A0B49137802208A
:101FF000DBB213700870EB0602D5074B10221A7083
:1020000007B0BDE8F08F04235355DAE70523535595
:10201000D7E703235355D4E780200740902007409B
:102020000000FF1F8414FF1FC8004000880040000C
:102030000C15FF1F9514FF1F1415FF1F9414FF1F8D
:10204000C02007400415FF1F0015FF1FF814FF1FD5
:102050009820074094200740D814FF1F1015FF1F39
:10206000882007403014FF1F3418FF1F2C14FF1F57
:102070004014FF1F42F221039A4200F0358100F222
:10208000D980B2F5086F00F0B382B2F5106F40F05E
:102090003182B24AD9F820309EF8021011701A0627
:1020A00000F14383AB6AAE4A1B0600F139832B6B08
:1020B000AB4A180600F14E83AB6BA94A190600F132
:1020C00044832B6CA64A1B0600F13A83AB6CA44AEE
:1020D000180600F130832B6DA14A190600F16483C4
:1020E000AB6D9F4A1B0600F15A832B6E9C4A180663
:1020F00000F15083AB6E9A4A190600F146832B6FAC
:10210000974A1B0600F13C83AB6F954A180600F115
:102110003283D5F88030924A190600F12683D5F82B
:1021200088308F4A1B0600F11A83D5F890308C4A0C
:10213000180600F14483D5F89830894A190600F151
:10214000388300230193874B0293874B0393874B7C
:102150000593DFF860A2864BDFF85C920493029B44
:10216000186830B1D0F8048000F01EFC404600280A
:10217000F8D1039B1868029B1A4600231360019B49
:102180001A4600234AF8223030B1D0F8048000F01B
:102190000BFC40460028F8D1039A049B114600220C
:1021A0000A60059A1B781146002241F8042B019A17
:1021B0000591023B4FF0000129F81210032B00F2A9
:1021C0003F81DFE813F08B0139018B013901BCF14C
:1021D000400F18BF0023B5E6664A0F78487817709D
:1021E00050708F78C8789770D07010680F79177119
:1021F00086284F7989799171577108BF5E4A5F4F80
:1022000004BF0F2111705E4A38781178002881F0E0
:10221000010E41F0020182F800E00CBF8822C822C2
:1022200045F8312005EBC10180F001000022387033
:102230004A609BE642F221239A4240F0E781DFF8B0
:102240007C91504B504A9EF80200D9F800E0C3F848
:1022500000E00191CDF808C010700021029B0391AD
:102260008A4689460846464A92F800E04EF0020C3B
:1022700005EBCC08002BC8F804000CBF8820C82050
:1022800040EA0A0A9DF8043045F83CA08EF00100AF
:102290003B701070DFF8C8C0DFF8E080DFF8E0A026
:1022A000002940F02E81B9F1400F1DD140F002000D
:1022B00005EBC005039B6B60019DDFF8A4C0002DFA
:1022C00040F036810D0445F088084CF830809DF8C8
:1022D00008503D7082F800E00B44402904D10021F1
:1022E0002A4ACBF800301180294A0123137040E6B6
:1022F00000F08AFB8BE51A4B254821491A614FF003
:10230000020E80F800E0234F0A702349196099609B
:10231000224E234D234C9A610D213970FF213170DB
:10232000DFF89CE0297022701F4D204A8EF80010C3
:102330009F27012406F8047C5D600470DA6007B012
:10234000BDE8F08F1A4A47F83B0013780133137049
:102350003FE543F82500DFF85CA020E50C15FF1FE2
:102360000000FF1F8414FF1FD814FF1FE814FF1F75
:102370001015FF1F3C18FF1F9514FF1F9414FF1F1B
:102380000015FF1F4418FF1F2015FF1F4014FF1FDB
:1023900094200740C0200740880040008820074064
:1023A00080200740982007404414FF1F9814FF1F07
:1023B0000115FF1F3014FF1F3418FF1F2814FF1FC3
:1023C0008C200740535D032B00F2CC8001A151F813
:1023D00023F000BFD31D0000D31D000033240000F4
:1023E0002D240000BE49BF4B80220D2008701A70BA
:1023F000AA077FF500AEF7E540F202339A4240F0BB
:10240000FC80BEF8042002F07F02042A72D8BEF8D5
:102410000230002B6ED1B249019392001144CDF8E5
:1024200008C00A7842F002020A7016E701235355E9
:10243000CFE400235355CCE4049B4FF001021A7003
:10244000029A019B04320292039A04320392049A84
:1024500001330132042B019304927FF480AEDFF844
:10246000B492DFF8B4A299F800309F4A00218AF8AC
:10247000001013701B0700F10A8199F801309B4A84
:10248000DFF89882137018074FF000022A63AA63DE
:1024900000F1E88099F80230954ADFF880821370E5
:1024A00019074FF000022A65AA6500F10381914ADD
:1024B00099F80330137000222A67AA671A07DFF819
:1024C0005C9200F1B8803B780293002283F0010314
:1024D0000193C5F89020C5F89820BEE6049B4FF004
:1024E00000021A70ACE7BEF8042002F07F02042A52
:1024F00040F291807A4B0F221A707F4A01231370A9
:1025000037E540297FF6D2AE40F002000CEBC00266
:10251000039B5360019AC2B1784A9DF8085088F82D
:10252000005040398AF800E040334CF83020D7E6BC
:102530009DF808303B700D04039B82F800E045F0E5
:10254000C8050B444CF83050C7E69DF8083088F8B1
:102550000030039B6A4A8AF800E0403940334CF867
:102560003020BDE618F0080F0CBF0223032353559B
:102570002FE464484FF0020C01704170BEF8061061
:10258000614580F06181604A92F800E04EF0020CF3
:1025900005EBCC034029894628BF4FF0400958601D
:1025A00000EB09030393002301930123C9EB01010D
:1025B0004FEA094A0293C82062E6544B5868002843
:1025C00098D0BEF80210BEF804C003E00C3358687F
:1025D00000288FD01A888A42F8D15A886245F5D1EE
:1025E000090A03290CBF90F800C0B3F808C0C5E77A
:1025F000474B44481B780370C0E7B2F5A06F7FF4E7
:1026000079AF002301930123029326E642F221339E
:102610009A42F6D06EE7BEF80230002B7FF46AAF24
:102620002F49019392001144CDF808C00A7822F096
:1026300002020A7011E600F099F9002800F0D0803B
:1026400008302F4BC9F88400C9F8803000F08EF9AB
:10265000002800F0BD800830284BC5F88C00C5F874
:10266000883030E700F082F9002800F0D68008308A
:10267000234BC8F84400C8F8403000F077F9002830
:1026800000F0C48008301D4BE864AB6402E700F042
:102690006DF9002800F0B3800830194B68622B6296
:1026A00000F064F9002800F0A3800830134BE862C2
:1026B000AB62E2E600F05AF9002800F0BD80083075
:1026C0000F4BC8F86400C8F8603000F04FF90028DC
:1026D00000F0AB800830094BE866AB66E7E600BF68
:1026E000C020074080200740C4200740C820074082
:1026F000CC200740D020074094200740C80040006D
:10270000880040000415FF1F0015FF1F8C400000CB
:102710000C15FF1F884000000115FF1F0000FF1F60
:10272000D06A083800F040F9C1E4D9F8240008382C
:1027300000F03AF9B6E4D06C083800F035F9CAE494
:10274000506C083800F030F9C0E4D06B083800F065
:102750002BF9B6E4506B083800F026F9ACE4D2F857
:102760008C00083800F020F9DFE4D2F88400083843
:1027700000F01AF9D3E4D06F083800F015F9C8E476
:10278000506F083800F010F9BEE4D06E083800F041
:102790000BF9B4E4506E083800F006F9AAE4D06DE5
:1027A000083800F001F9A0E4506D083800F0FCF89A
:1027B00096E4D2F89C00083800F0F6F8C1E4D2F8AC
:1027C0009400083800F0F0F8B5E44FF0020CD5E6BC
:1027D0009AF80030C5F8880001338AF8003072E6B4
:1027E0009AF80030C9F8800001338AF800302DE7EC
:1027F0009AF80030A86201338AF800303DE69AF872
:102800000030286201338AF8003049E79AF8003036
:10281000A86401338AF800303CE69AF80030C8F822
:10282000400001338AF8003027E79AF80030A866A4
:1028300001338AF800303AE69AF80030C8F86000B0
:1028400001338AF8003040E7BCF1400FE14628BF71
:102850004FF0400900EB0903039300230193012388
:10286000C9EB0C014FEA094A0293FCE42DE9F0415F
:1028700000F030FD314C324B3248DFF8E480324E0C
:10288000DFF8E0C0314F324DDFF8DCE000221A60A3
:102890005A609A60DA601A615A619A61DA611A6262
:1028A0005A629A62DA621A635A639A63DA631A6442
:1028B0005A649A64DA641A655A659A65DA651A6622
:1028C0005A669A66DA661A675A679A67DA67C3F8C9
:1028D00080202168C3F8842041F4802121600168B0
:1028E00041F040710160032188F80010A020C3F37B
:1028F00007218CF8000004F528343170C3F3074039
:10290000144938701B0E2B70CC34FF238EF8003026
:10291000114D0CF8B83C11480B70012306F8083C27
:10292000227070264FF40014102207F82C3C2E70F1
:10293000046081F8F820BDE8F08100BF34800440D5
:102940000000FF1F00D800409C200740B020074037
:10295000B42007401020074035E400E004E100E027
:1029600044210740402107408020074010B572B63F
:102970000B480268B2FA82F10B2902DD62B6002030
:1029800010BD4FF00043CB4022EA0302026062B662
:10299000044C48234B43E0180022E250426010BD33
:1029A000A811FF1FD003FF1F0C4B4822C31AB3FB13
:1029B000F2F30B2B11D80A4A127822B1094A127885
:1029C0000AB1FFF715B972B607494FF0004222FA73
:1029D00003F30A681A430A6062B67047D003FF1F08
:1029E0000115FF1F0C15FF1FA811FF1F044B98882E
:1029F000044B1A681AB1138852889B1A18447047FE
:102A00003418FF1F1C15FF1F38B50E4B1B7803F041
:102A1000FF05ABB90C4C216831B14B880B80042009
:102A2000FFF74AF9256038BDFFF7A0FF014620B146
:102A30000420BDE83840FFF73FB9044B01221A706B
:102A400038BD00BF1515FF1F1815FF1F1415FF1FF8
:102A500038B5254C2378002B45D101232370FFF78F
:102A6000C5FF08B100F074FC00F03AF908B100F0BD
:102A7000D5F800F0C3F908B100F0D1F800F04CFA35
:102A800008B100F0CDF800F0BDFA08B100F0C9F8C7
:102A900000F02EFB08B100F0C5F800F09FFB08B174
:102AA00000F0C1F800232370EFF30583DBB9EFF3E7
:102AB000108272B60D4D286810B10D4C217811B1FD
:102AC0008AB962B638BD0123237043692B600BB10C
:102AD000996101E007490B6002B962B600254577AC
:102AE00083689847257038BD2115FF1F3415FF1FD7
:102AF0003815FF1F3015FF1FEFF3108072B6B0FAC4
:102B000080F04009704700B162B67047F8B50C4ECE
:102B10000C4F0025FFF7F0FF346802466CB1636983
:102B200033600BB19D6100E03B601046FFF7EBFFA7
:102B30006577A36820469847ECE7FFF7E4FFF8BD08
:102B40002415FF1F2815FF1FFFF7E0BF15490B686D
:102B500030B513B98360C36009E004681A68944211
:102B600007D20025121B8360C560D8601A60086018
:102B700015E002681C689968121B026061B10C685C
:102B8000A2420B46F5D28160C968C160D860C168B5
:102B9000A21A88601A6002E08160C3609860022314
:102BA000037530BD2C15FF1F70B5164D2C6800261F
:102BB000BCB1236813B1013B236012E0A26802B1EB
:102BC000D36020692A60036826751B6822460021AD
:102BD000984763681BB123602046FFF7B7FF2C6856
:102BE000E6E7FFF789FF084B00221C681A60FFF731
:102BF0008AFF2CB1A5682046FFF7A8FF2C46F8E70E
:102C000070BD00BF2C15FF1F3C15FF1F024A136843
:102C100001331360FFF7C8BF2814FF1F70477047C8
:102C2000704770477047704710B5204B20482149C6
:102C300060221A70E1225A701F4B204A1C78204BE8
:102C4000082C01D1212402E00A2C03D1392404608C
:102C5000132005E00C2C0CBF35245D2404601220E9
:102C6000086014601860174B17491B78174A03B1A6
:102C700001230B601360164B164A1978164B012975
:102C800001D880210BE0042901D8842107E008291C
:102C900001D8852103E0102994BF86218721116086
:102CA00019600E4B01221A7010BD00BF0040074092
:102CB00008B003400CB00340AC11FF1F08B00B403C
:102CC0000CB00B404115FF1F20B0034020B00B405B
:102CD000AD11FF1F24B0034024B00B404015FF1F6F
:102CE000054B1878054B1A78C0B2D3B2984238BF5A
:102CF0004030C01A704700BFCA15FF1F4915FF1F9B
:102D0000F0B534490B7913F0300F2FD072B68B7DAC
:102D100003F0FF0423B9CB7940234B7462B625E05E
:102D200062B62D482D4A037812782D4FDBB2D2B20D
:102D30000546581C4028CE7928BF00209042F6B2A4
:102D40001CBF3E540346601E10F0FF04F1D1D9B2FF
:102D500029702449096849B1934236BFC2F1400243
:102D60009B1A9B18272BC4BF01230B70194AD178DB
:102D7000C9B20D061ED513791C061BD51A4B1B486C
:102D80001D7803781A4EEDB2DBB2AB420AD00133A4
:102D9000402B28BF00231479F45CE4B2D471147D75
:102DA000072CF2D9DBB203700A4B1A79100644BF24
:102DB0007C22DA7049060CD5064B1A79520608D5E2
:102DC0000C4A002111700C4A126802B111703C22A9
:102DD000DA70F0BD00A00640CA15FF1F4915FF1F9D
:102DE0008A15FF1F4415FF1FD015FF1FCB15FF1FAE
:102DF0004A15FF1F4815FF1FCC15FF1F054B1878FC
:102E0000054B1A78C0B2D3B2984238BF4030C01ACE
:102E1000704700BF4216FF1FD915FF1FF0B5344998
:102E20000B7913F0300F2FD072B68B7D03F0FF04B7
:102E300023B9CB7940234B7462B625E062B62D48A6
:102E40002D4A037812782D4FDBB2D2B20546581CBA
:102E50004028CE7928BF00209042F6B21CBF3E54D5
:102E60000346601E10F0FF04F1D1D9B22970244945
:102E7000096849B1934236BFC2F140029B1A9B18C0
:102E8000272BC4BF01230B70194AD178C9B20D0694
:102E90001ED513791C061BD51A4B1B481D780378C9
:102EA0001A4EEDB2DBB2AB420AD00133282B28BF59
:102EB00000231479F45CE4B2D471147D072CF2D9A8
:102EC000DBB203700A4B1A79100644BF7C22DA7019
:102ED00049060CD5064B1A79520608D50C4A002132
:102EE00011700C4A126802B111703C22DA70F0BD08
:102EF00000B006404216FF1FD915FF1F0216FF1F24
:102F0000D415FF1F4816FF1F4316FF1FDA15FF1FBA
:102F1000D815FF1F4416FF1F054B1878054B1A786C
:102F2000C0B2D3B2984238BF4030C01A704700BF19
:102F3000BA16FF1F5116FF1F10B5284B1A799206BB
:102F400020D52749DA790B782648013300783F2BC2
:102F5000C8BF0023834218BF2348D2B21EBFC25449
:102F6000DAB20A70214A116861B1214A1278D2B2EC
:102F7000934236BFC2F140029B1A9B18272BC4BF55
:102F800001230B701549CA78D2B2140616D50B79F5
:102F9000180613D5174B164C18782378DBB29842D5
:102FA00002D16C23CB7009E00133282B28BF00230A
:102FB0001148C05CDBB2C0B2C871237051060CD599
:102FC000064B1A79520608D50C4A002111700C4A9A
:102FD000126802B111702C22DA7010BD00C00640D8
:102FE000BA16FF1F5116FF1F7A16FF1F4C16FF1F40
:102FF000BB16FF1FC016FF1F5216FF1F5016FF1FE4
:10300000BC16FF1F054B1878054B1A78C0B2D3B217
:10301000984238BF4030C01A704700BF3217FF1FB8
:10302000C916FF1F10B5284B1A79920620D52749DB
:10303000DA790B782648013300783F2BC8BF00238C
:10304000834218BF2348D2B21EBFC254DAB20A70FC
:10305000214A116861B1214A1278D2B2934236BF37
:10306000C2F140029B1A9B18272BC4BF01230B708F
:103070001549CA78D2B2140616D50B79180613D59D
:10308000174B164C18782378DBB2984202D16C2388
:10309000CB7009E00133282B28BF00231148C05C06
:1030A000DBB2C0B2C871237051060CD5064B1A7939
:1030B000520608D50C4A002111700C4A126802B160
:1030C00011702C22DA7010BD00D006403217FF1F9D
:1030D000C916FF1FF216FF1FC416FF1F3317FF1F6D
:1030E0003817FF1FCA16FF1FC816FF1F3417FF1F10
:1030F000054B1878054B1A78C0B2D3B2984238BF46
:103100004030C01A704700BFAA17FF1F4117FF1FAA
:1031100010B5284B1A79920620D52749DA790B7811
:103120002648013300783F2BC8BF0023834218BFD5
:103130002348D2B21EBFC254DAB20A70214A1168C3
:1031400061B1214A1278D2B2934236BFC2F1400235
:103150009B1A9B18272BC4BF01230B701549CA78F3
:10316000D2B2140616D50B79180613D5174B164C88
:1031700018782378DBB2984202D16C23CB7009E037
:103180000133282B28BF00231148C05CDBB2C0B23A
:10319000C871237051060CD5064B1A79520608D512
:1031A0000C4A002111700C4A126802B111702C22D5
:1031B000DA7010BD00A00E40AA17FF1F4117FF1FB5
:1031C0006A17FF1F3C17FF1FAB17FF1FB017FF1F2A
:1031D0004217FF1F4017FF1FAC17FF1F054B187842
:1031E000054B1A78C0B2D3B2984238BF4030C01AEB
:1031F000704700BF2218FF1FB917FF1F10B5294BDA
:103200005A6892021FD52849DA680B78274801339B
:103210003F2B0078C8BF0023834204D02448D2B299
:10322000C254DAB20A70234A116861B1224A127894
:10323000D2B2934236BFC2F140029B1A9B18272B91
:10324000C4BF01230B70174A906804021AD5536853
:10325000190217D5194B184C19782378DBB299420B
:1032600006D1174B00221A60012243F8042C09E012
:103270000133282B28BF00231249C95CDBB2C9B235
:10328000D160237042020CD5064B5B685B0208D507
:103290000D4A002313700D4A126802B113700C4AD4
:1032A000136010BD00400C402218FF1FB917FF1F0C
:1032B000E217FF1FB417FF1F2318FF1F2818FF1F57
:1032C0005C018843BA17FF1FB817FF1F2418FF1FA0
:1032D0005801884330B585B072B6FEF735FB154B03
:1032E000154970221A70154A116080221A701A78D6
:1032F0001206FCD5124B1C68FEF740FB62B6114B60
:103300009C429CBF0A235C4301AD0A222946204609
:1033100000F01FF80C4A0023E95C21B101330A2BAD
:1033200022F8021BF8D1094A01335B00137005B083
:1033300030BD00BF00000240000007410400024011
:103340000C0002407F9698003812FF1F3612FF1FB4
:10335000704730B503460020B3FBF2F402FB143390
:10336000092B94BF30333733DBB20B5423460CB1F7
:103370000130F1E70A1823465470C41AA34206DA52
:10338000CC5C1578CD5402F801490133F5E70846C5
:1033900030BD0B460146184600F000B810B5054C8C
:1033A00013462CB10A4601460220AFF3008010BD3F
:1033B000204610BD00000000014B1868704700BF98
:1033C000AC12FF1F70B50E4B0E4CE41AA410002572
:1033D0001E46A54204D056F8253098470135F8E737
:1033E00000F098FE084C094BE41AA41000251E4674
:1033F000A54204D056F8253098470135F8E770BD4E
:103400002041000020410000284100002041000030
:10341000024B0146186800F059B800BFAC12FF1FFC
:10342000024B0146186800F003B800BFAC12FF1F42
:1034300038B50546002946D051F8043C0C1F002B36
:10344000B8BFE41800F0DCF81F4A1368114613B93E
:103450006360146032E0A3420ED92268A018834250
:1034600004BF18685B68636004BF121822600C60B8
:1034700024E0A24203D813465A68002AF9D11868FA
:103480001918A1420BD121680144581882421960D1
:1034900014D1106852685A60014419600EE002D9D4
:1034A0000C232B600AE021686018824204BF106878
:1034B0005268626004BF091821605C602846BDE85C
:1034C000384000F09EB838BD3018FF1F70B5CD1CD5
:1034D00025F0030508350C2D38BF0C25002D0646B8
:1034E00001DBA94202D90C23336046E000F088F8E2
:1034F000234B1C681A462146A1B10B685B1B0ED4F6
:103500000B2B03D90B60CC18CD501EE08C420DBFA5
:1035100063684B686360136018BF0C4615E00C4687
:103520004968E9E7174C23681BB9304600F02CF8CE
:1035300020602946304600F027F8431C18D0C41CF0
:1035400024F00304A0420DD12560304600F059F864
:1035500004F10B00231D20F00700C31A0ED05A42BD
:10356000E25070BD211A304600F00EF80130EBD168
:103570000C233360304600F044F8002070BD00BFDB
:103580003018FF1F2C18FF1F38B5064C00230546C6
:1035900008462360FEF7A4F9431C02D1236803B157
:1035A0002B6038BD4818FF1F0EB400B59CB04FF417
:1035B00002711DABADF81410029006906FF000413F
:1035C0000A48049107914FF6FF7153F8042BADF8A8
:1035D00016100068019302A900F094F8029B0022E3
:1035E0001A701CB05DF804EB03B07047AC12FF1FFB
:1035F000034613F8012B002AFBD1181A0138704733
:1036000070477047F8B5074615460E4621B9114672
:10361000BDE8F840FFF75ABF1AB9FFF709FF28467F
:10362000F8BD00F070FB85420ED929463846FFF7F9
:103630004DFF044650B131462A46FEF76FF8314639
:103640003846FFF7F5FE01E03046F8BD2046F8BDEC
:103650002DE9F0478E689E4282460C469146984678
:103660003ED88A8912F4906F3AD0256809696F1A9A
:103670006569022305EB450595FBF3F57B1C434487
:103680009D4238BF1D4653050FD52946FFF71EFF43
:10369000064698B13A462169FEF740F8A38923F41B
:1036A000906343F08003A38113E02A46FFF7AAFF4B
:1036B000064670B921695046FFF7BAFE0C23CAF8D6
:1036C0000030A38943F04003A3814FF0FF30BDE8F1
:1036D000F087266165613E44ED1B2660A560464685
:1036E000464528BF464632464946206800F0F0FA73
:1036F000A3689B1BA36023681E4426600020BDE8CE
:10370000F087FFFF2DE9F04F9DB0804603938B8932
:103710001C060D4616460DD50B695BB94021FFF717
:10372000D5FE2860286118B90C23C8F80030CDE018
:1037300040236B610023099320238DF82930DFF8A3
:103740009CB130238DF82A3037463C4614F8013BB3
:103750001BB9B7EB060910D003E0252BF9D027469B
:10376000F3E74B46324629464046FFF771FF0130EA
:1037700000F0A780099B4B4409933B78002B00F095
:10378000A08000234FF0FF32049307930592069325
:103790008DF853301A930126052221784E4800F007
:1037A00047FA671C049B38B14B4A801A06FA00F0AE
:1037B000184304903C46EFE7D90644BF20228DF819
:1037C00053201A0744BF2B228DF8532022782A2A2F
:1037D00003D0079A00210A200BE0039A111D1268FA
:1037E0000391002A10DA524243F00200079204903B
:1037F0000BE0274601343B78303B092B03D800FB14
:1038000002320121F5E701B107923B782E2B1ED140
:103810007B782A2B0AD1039B1A1D1B680392002B6D
:10382000B8BF4FF0FF330237059310E00023059334
:10383000781C19460A24074601303A78303A092A9A
:1038400003D804FB01210123F5E703B1059103220D
:103850003978224800F0ECF940B14023CBEB00006E
:1038600003FA00F0049B18430490013739781C4890
:103870008DF8281006227E1C00F0DAF988B1194B69
:1038800033B9039B073323F007030833039314E092
:1038900003AB00932A46144B04A94046AFF30080C3
:1038A00007E003AB00932A460F4B04A9404600F003
:1038B00093F8B0F1FF3F824603D0099B534409932C
:1038C00042E7AB895B0601D4099801E04FF0FF3075
:1038D0001DB0BDE8F08F00BFE0400000E6400000F2
:1038E000EA40000000000000513600002DE9F047DA
:1038F00091461F460A698B68DDF820809342B8BF65
:103900001346C9F8003091F8432006460C4612B120
:103910000133C9F800302368990642BFD9F8003056
:103920000233C9F80030256815F0060510D104F1FE
:10393000190A07E00123524639463046C047013094
:103940001AD00135E368D9F800209B1A9D42F1DBBB
:1039500094F843302268003318BF012392060FD534
:10396000E1185A1C302081F84300224494F8451095
:1039700082F84310023303E04FF0FF30BDE8F087D8
:1039800004F1430239463046C0470130F4D0226882
:10399000D9F80050E36802F00602042A08BF5D1B54
:1039A0002269A3680CBF25EAE57500259342C4BFD0
:1039B0009B1AED184FF000091A344D4509D0012328
:1039C000224639463046C0470130D5D009F10109B9
:1039D000F3E70020BDE8F0872DE9F04317460A7EA3
:1039E00085B06E2A984606460C460C9B01F1430EA4
:1039F00000F0AE8011D8632A22D009D8002A00F046
:103A0000BB80582A40F0CA8081F84520834955E0A0
:103A1000642A1ED0692A1CD0C0E0732A00F0B0804E
:103A200009D86F2A2ED0702A40F0B8800A6842F078
:103A300020020A603EE0752A24D0782A3AD0ADE010
:103A40001A6801F14205111D1960136884F84230AB
:103A5000A8E021681A6811F0800F02D0111D1960CA
:103A600008E011F0400F02F10401196002D0B2F930
:103A7000003000E01368002B3CDA2D225B4284F812
:103A8000432037E021681A6811F0800F02D0111D21
:103A9000196007E011F0400F02F10401196001D034
:103AA000138800E01368227E5C496F2A14BF0A2243
:103AB00008221BE078225A4984F8452022681868B9
:103AC00012F0800F00F104051D6003D1550601D5E9
:103AD000038800E00368D00744BF42F02002226060
:103AE0001BB9226822F0200222601022002084F8F4
:103AF000430001E049490A226568A560002D08DB02
:103B0000206820F0040020602BB9002D7DD175467F
:103B10000CE0002B79D07546B3FBF2F002FB1033BA
:103B2000CB5C05F8013D03460028F5D1082A0BD1EE
:103B30002368DA0708D5236962689A42DEBF30231A
:103B400005F8013C05F1FF35C5EB0E0323612EE0BE
:103B500008681A68496910F0800F03D0101D1860BA
:103B6000136808E010F0400F02F1040018601368B9
:103B700001D0198000E0196000232361754616E02A
:103B80001A68111D1960156862680021284600F046
:103B90004FF808B1401B6060636804E004F142051F
:103BA00084F8422001232361002384F84330CDF8B8
:103BB00000803B4603AA21463046FFF797FE0130BE
:103BC00002D14FF0FF3026E023692A4639463046BD
:103BD000C0470130F5D023689B0710D5002504F1BC
:103BE000190907E001234A4639463046C0470130EB
:103BF000E7D00135E368039A9B1A9D42F2DBE06847
:103C0000039B9842B8BF184605E00B7884F8423011
:103C100004F142058AE705B0BDE8F083F1400000F9
:103C200002410000FFFFFFFFFFFFFFFFFFFFFFFF5D
:103C300001F0FF01102A2BDB10F0070F08D010F85D
:103C4000013B013A8B422DD010F0070F42B3F6D161
:103C5000F0B441EA012141EA014122F007047FF07A
:103C600000070023F0E80256083C85EA010586EAD1
:103C7000010685FA47F5A3FA87F586FA47F6A5FA0D
:103C800087F68EB9EED1F0BC01F0FF0102F0070219
:103C900032B110F8013B013A83EA010313B1F8D1C4
:103CA0000020704701387047002D06BF35460338A5
:103CB000073815F0010F07D1013015F4807F02BFDE
:103CC000013015F4C03F0130F0BC0138704700BF2F
:103CD000884210B501EB020301D8421E0BE0984266
:103CE000FBD28118D21AD34204D013F8014D01F847
:103CF000014DF8E710BD994204D011F8014B02F8CC
:103D0000014FF8E710BD51F8040C0028BEBF091898
:103D100051F8043CC01804387047FFFF0000000051
:103D20000000000081040000D90400006D040000C0
:103D30007F040000710400003D0E00005F0E0000D3
:103D40000203040500070807001011020013120205
:103D50000021220501252602002F300203393802F6
:103D60000000000014000000160000001800000011
:103D70001A0000001C0000001E00000020000000CF
:103D80002200000024000000280000002C00000099
:103D90003000000034000000380000003C0000004B
:103DA00040000000440000004800000050000000F7
:103DB0005800000060000000680000007000000073
:103DC000800000008800000090000000A0000000BB
:103DD000B0000000C0000000E0000000F0000000A3
:103DE000000100002001000040010000600100000F
:103DF00080010000C0010000E0010000000200009E
:103E00004002000080020000000300008003000068
:103E1000C003000000040000800400000005000052
:103E200000060000800700000007000000080000F6
:103E300000090000000A0000000C0000000F000054
:103E400000010203040509060A070C0D430E451282
:103E50000F13141519161A174F1C1D551E221F2358
:103E6000242595262A272B2C2D2E322F3334353618
:103E7000373A3B3C3D3E3F48656C6C6F205468656B
:103E8000726520256400FFFF4008FE4340A0044007
:103E90004408FE4344A004400018FE4300C0044010
:103EA0003000FE43309004403400FE433490044020
:103EB0001C18FE431CC004401018FE4310C00440F0
:103EC0000818FE4308C004400C18FE430CC0044010
:103ED0000C10FE430CB004401010FE4310B0044020
:103EE0001810FE4318B004401C10FE431CB00440E0
:103EF0001410FE4314B004400418FE4304C00440F0
:103F00000010FE4300B004400008FE4300A004403F
:103F10000408FE4304A004400C08FE430CA0044027
:103F20000808FE4308A004401418FE4314C00440CF
:103F30001818FE4318C004400410FE4304B00440A7
:103F40000810FE4308B004406820FE4368D00440D7
:103F50001400FE43149004403800FE43389004409F
:103F60003C00FE433C9004404000FE43409004402F
:103F70004808FE4348A004404C08FE434CA00440BF
:103F80002808FE4328A004402C08FE432CA004402F
:103F90006020FE4360D004406420FE4364D00440AF
:103FA0002010FE4320B004402410FE4324B00440FF
:103FB0002810FE4328B004402C10FE432CB00440CF
:103FC0004400FE43449004407000FE43709004405F
:103FD0007400FE43749004406800FE4368900440FF
:103FE0005008FE4350A004405808FE4358A0044027
:103FF0005C08FE435CA004405408FE4354A0044007
:104000002018FE4320C004402418FE4324C004406E
:104010001008FE4310A004401408FE4314A00440FE
:104020003818FE4338C004403418FE4334C00440FE
:104030003018FE4330C004403C18FE433CC00440EE
:104040002C18FE432CC004402820FE4328D00440F6
:104050002C20FE432CD004400020FE4300D004401E
:104060000420FE4304D004400820FE4308D004404E
:104070000C20FE430CD004401020FE4310D004401E
:104080001420FE4314D0044000151915000100004F
:10409000AE11FF1F1200000000020000D811FF1F28
:1040A00043000000000300003212FF1F0000000068
:1040B00001030904C011FF1F0000000002030904EE
:1040C0001C12FF1F00000000030309043612FF1F2B
:1040D00000000000000000000000000000000000E0
:1040E000232D302B2000686C4C00656667454647E1
:1040F0000030313233343536373839414243444564
:1041000046003031323334353637383961626364D2
:10411000656600FFF8B500BFF8BC08BC9E46704756
:0841200035040000C914000081
:04412800F8B500BF27
:10412C00000000000060064001600640026006408E
:10413C0003600640046006400560064006600640C9
:10414C000760064008600640096006400A600640A9
:10415C000B600640000000000000000000000000A2
:10416C000000000000000000000000000000000043
:10417C000000000000000000000000000000000033
:10418C000000000000000000000000000000000023
:10419C000000000000000000000000000000000013
:1041AC000000000000000000000000000000000003
:1041BC0000000000000000000000000000000000F3
:1041CC0000000000000000000000000000000000E3
:1041DC0000000000000000000000000000000000D3
:1041EC0000000000000000000000000000000000C3
:1041FC0000000000000000000000000000000000B3
:10420C0000000000000000000000000000000000A2
:10421C000000000000000000000000000000000092
:10422C000000000000000000000000000000000082
:10423C000000000000000000000000000000000072
:10424C000000000000000000000000000000000062
:10425C000000000000000000000000000000000052
:10426C000000000000000000000000000000000042
:10427C000000000000000000000000000000000032
:10428C000000000000000000000000000000000022
:10429C000000000000000000000000000000000012
:1042AC000000000000000000000000000000000002
:1042BC0000000000000000000000000000000000F2
:1042CC0000000000000000000000000000000000E2
:1042DC0000000000000000000000000000000000D2
:1042EC0000000000000000000000000000000000C2
:1042FC0000000000000000000000000000000000B2
:10430C0000000000000000000000000000000000A1
:10431C000000000000000000000000000000000091
:10432C000000000000000000000000000000000081
:10433C000000000000000000000000000000000071
:10434C000000000000000000000000000000000061
:10435C000000000000000000000000000000000051
:10436C00000000000000000000000000010013121B
:10437C0000000000A0860100010000000000000009
:10438C000000000000000000000000000000000021
:10439C000000000000000000000000000000000011
:1043AC000000000000000000000000000000000001
:1043BC0000000000000000000000000000000000F1
:1043CC000070064001700640027006400370064003
:1043DC0004700640057006400670064007700640E3
:1043EC0008700640097006400A7006400B700640C3
:1043FC0000000000000000000000000000000000B1
:10440C0000000000000000000000000000000000A0
:10441C000000000000000000000000000000000090
:10442C000000000000000000000000000000000080
:10460C000000000000000000010025260000000052
:10461C00A086010001000000000000000000000066
:10462C00000000000000000000000000000000007E
:10463C00000000000000000000000000000000006E
:10464C00000000000000000000000000000000005E
:10465C0000000000000000000000000000600E40A0
:10466C0001600E4002600E4003600E4004600E407C
:10467C0005600E4006600E4007600E4008600E405C
:10468C0009600E400A600E400B600E4000000000F6
:10469C00000000000000000000000000000000000E
:1046AC0000000000000000000000000000000000FE
:1046BC0000000000000000000000000000000000EE
:1046CC0000000000000000000000000000000000DE
:1048AC00000000000100030400000000A0860100CD
:1048BC0001000000000000000000000000000000EB
:1048CC0000000000000000000000000000000000DC
:1048DC0000000000000000000000000000000000CC
:1048EC0000000000000000000000000000000000BC
:1048FC00000000000000000000700E4001700E402F
:10490C0002700E4003700E4004700E4005700E4095
:10491C0006700E4007700E4008700E4009700E4075
:10492C000A700E400B700E400000000000000000EA
:10493C00000000000000000000000000000000006B
:10494C00000000000000000000000000000000005B
:10495C00000000000000000000000000000000004B
:10496C00000000000000000000000000000000003B
:104B4C000100393800000000A086010001000000BF
:104B5C000000000000000000000000000000000049
:104B6C000000000000000000000000000000000039
:104B7C000000000000000000000000000000000029
:104B8C000000000000000000000000000000000019
:104B9C00000000004C18FF1FFFFFFFFF0A0412016A
:104BAC00100102000040C0168304770201020301C9
:104BBC0018035400650065006E00730079006400F2
:104BCC00750069006E006F0009024300020100C00D
:104BDC003209040000010202010005240010010545
:104BEC0024010101042402060524060001070582A4
:104BFC000310004009040100020A0000000705032D
:104C0C000240000007058402400000001603550016
:104C1C0053004200200053006500720069006100DF
:104C2C006C00040309040C030000000000000000E9
:104C3C000000000000000000000000000000000068
:104C4C000000000000000000000000000000000058
:104C5C000000000000000000000000000000000048
:104C6C000000000000000000000000000000000038
:104C7C000000000000000000000000000000000028
:104C8C000000000000000000000000000000000018
:104C9C000000000000000000000000004C12FF1F8C
:00000001FF
