:1000000000000320D1010000591D0000251D000043
:10001000251D0000251D0000251D0000251D0000D8
:10002000251D0000251D0000251D0000591D000094
:10003000591D0000251D00001D1B0000E11B0000D4
:10004000591D0000591D0000591D0000591D0000D8
:10005000591D0000591D0000591D0000591D0000C8
:10006000591D0000591D0000591D0000591D0000B8
:10007000591D0000591D0000591D0000591D0000A8
:10008000591D0000591D0000591D0000591D000098
:10009000591D0000591D0000591D0000591D000088
:1000A000591D0000591D0000591D0000591D000078
:1000B000591D0000591D0000591D0000F91D0000C8
:1000C000591D0000151F0000591D000031200000BF
:1000D000591D00001D210000591D0000591D000080
:1000E000591D0000591D0000591D0000591D000038
:1000F000591D0000591D0000591D0000591D000028
:10010000591D0000591D0000591D0000591D000017
:10011000591D0000110D0000591D0000591D00005F
:10012000591D0000591D0000591D0000591D0000F7
:10013000591D0000591D0000591D0000591D0000E7
:10014000591D0000591D000009220000591D000022
:10015000591D0000591D0000591D0000591D0000C7
:10016000591D0000591D0000591D0000591D0000B7
:10017000591D0000591D0000591D0000591D0000A7
:10018000591D0000591D0000591D0000591D000097
:10019000591D0000591D0000F5220000591D0000E6
:1001A000591D0000591D0000591D0000591D000077
:1001B000591D0000591D0000591D0000591D000067
:1001C000591D0000591D0000591D0000591D000057
:1001D0005C4B4CF2205210B51A804DF628121A8052
:1001E00000BF00BF01F0BCFD574B4FF030621A60FA
:1001F000564A9A60564ADA60564B4FF470021A60BB
:10020000554B564A1A60564B1A78110748BF1A7850
:10021000544944BF42F008021A70534BAA221A7084
:10022000524A534B8B4204D252F8040F43F8040B4A
:10023000F8E7504B504A0021934202D243F8041B86
:10024000FAE74E4A4E48002350F8231042F8231094
:100250000133742BF8D14B4B4B4A802103F8011B1F
:100260009342FBD1494B454A1A60494B8A221A7086
:10027000A3F5805324225A70A0221A709A7992070B
:10028000FCD59A79D406FCD4424A937903F00C0346
:10029000082BFAD1404B60221A70404A1378802B09
:1002A000FCD13C4B01221A715D225A719A79900659
:1002B000FCD59979374A4906FBD5394B394919603C
:1002C0000021596020231370937903F00C030C2B49
:1002D000FAD1354B354A1A60354A364C136813F457
:1002E000807302BF23604FF4A8531360324B334A2C
:1002F0001A6000225A60072243F8042C304AC3F8DF
:100300000C2D62B600F0DAFB2368DA0705D52D481C
:1003100000F02AF92C4B2D4A1A602D4B1B785B06F6
:1003200009D5294C294B22689A4204D1254800F06E
:100330001BF90023236002F0A9F801F017FD00F07B
:100340000BF9FEE70E20054030800440823F040098
:100350000100002B88ED00E0002008E0030000858C
:1003600002D00740DC07FF1F00E0074040270000E5
:100370003007FF1FDC07FF1F100CFF1F0002FF1FCD
:100380000000000000E400E064E400E008ED00E0AC
:10039000005006400040064001E0074003E00740EF
:1003A000448004400000060204800440C01007009E
:1003B00010D0034014D0034014E000E01FBF02003F
:1003C00000002020BC075F5E1CE00340A5C3945AD8
:1003D00000F00740FFFFFFFFFFFFFFFFFFFFFFFFF2
:1003E000FFFFFFFFFFFFFFFFFFFFFFFFFFFFFFFF1D
:1003F000FFFFFFFFFFFFFFFFFFFFFFFFFFFFFFFF0D
:10040000FFFFFFFFFFFFFFFFFFFFFFFFDEF9FFFF23
:1004100010B5054C237833B9044B13B10448AFF33E
:1004200000800123237010BDDC07FF1F00000000C7
:1004300044270000084B10B51BB108490848AFF32A
:1004400000800848036803B910BD074B002BFBD0A0
:10045000BDE81040184700BF00000000E007FF1F84
:1004600044270000DC07FF1F0000000007EE900A91
:100470009FED137AF8EEE76ADFED127AE6EE877AFF
:1004800082B0FDEEE77ACDED017A9DF9043013F1EB
:10049000320F03DB322BA8BF322301E06FF03103B0
:1004A00007EE903ADFED086A9FED087AF8EEE77AFA
:1004B000A7EEA67AFDEEC77A17EE900A02B0704753
:1004C000696FE03FF0A705C10AD7A3400020C644EA
:1004D00038B505460024AC420BDA60B2FFF7C6FF20
:1004E0000146172000F056F9642000F0D1FA0134DB
:1004F000F1E738BD002108B5084600F019F90021E0
:10050000012000F015F90121162000F011F99FEDEE
:10051000090A172000F046F80121162000F0E8F83B
:100520000C2000F031F8044B1868BDE80840FFF7D4
:10053000CFBF00BF00007A433007FF1F08B5054B4F
:1005400093F90000FFF792FFBDE80840014617202D
:1005500000F020B93007FF1F08B5FFF7CBFFFFF70A
:10056000EDFF01F05FFAFAE7044B054900221A603B
:100570000A60044A106010221A60704714D00340C9
:1005800004D0034000D0034020B11028034628BF08
:10059000102300E00123024A10781370704700BF57
:1005A0003407FF1F70B5A0F11005EDB2012D0DD974
:1005B000DFED3C7A3C4BB4EEE70AF1EE10FA47F679
:1005C00012224EBF022101211A4601E0374A0121C1
:1005D0009FED377A002322FA03F407EE904AF8EEF3
:1005E000E77A67EE877AB4EEE70AF1EE10FA02DAFC
:1005F0000133072BEFD1DA4007EE902AF8EEE77AC5
:100600004FF6FF7487EE807AF6EE007A77EE677A1F
:10061000FCEEE77A17EE902AA24228BF2246C41EBB
:10062000012C06D82348244D002404602C60234C60
:1006300032E017280CD8224CC44004F0010484F0A6
:1006400001062CB11F4C204806602660626024E041
:10065000A0F11D04012C06D81C481D4D0024046087
:100660002C601C4C18E00E2804D844F28414C440BA
:10067000E40702D42338032806D81748174D00246E
:1006800004602C60164C07E0012D09D81548164D62
:10069000002404602C60154C226043EAC10303600F
:1006A00070BD00BFC0E1E440008793030024F40064
:1006B00000008037009003400490034008900340FE
:1006C0006006F000048003400080034000800B407F
:1006D00004800B4008800B4000900B4004900B40BE
:1006E00008900B4000900C4004900C4008900C4087
:1006F0003F2810B518D80D4B53F8302092F880429F
:100700003CB1012311B182F8803010BD82F8003174
:1007100010BD03EBC0035B681A6811B142F003021D
:1007200001E022F002021A6010BD00BFD8240000D0
:100730003F2810B52BD8164A02EBC00301295B688D
:10074000144601D004290FD154F83020012082F83A
:1007500080024FF4A2721A601A6804290CBF42F09A
:10076000200222F0200211E052F83000002280F82E
:10077000802211B94FF4807208E0022902D140F2C0
:10078000031203E0032908BF4FF481721A6010BD01
:10079000D824000038B5A0F14203012B7A4B05465E
:1007A0001B7814D80B2B03D8C3F10C03994003E03A
:1007B0000C2B1CBF0C3B1941422D084603D1BDE850
:1007C000384001F077BABDE8384001F08FBA012413
:1007D000002904FA03F201DC002102E08A4204D875
:1007E0002146FFF785FF2146C8E0C21E012A01D835
:1007F000664A18E0A0F11D02012A01D8644A12E0FD
:100800000E2804D844F28412C240D20703D4A5F1C2
:100810002302032A01D85F4A05E0A5F11002012A4C
:1008200094BF5D4A5D4A126802FB011222FA03F38B
:10083000AA1E242A00F29A80DFE802F05B43493DB9
:100840002B676D1F2598989861988B9198983137F0
:10085000131998989898984F559898989873797F05
:1008600085004F4A136040F244424E4B7CE04E4AB2
:10087000136040F244424D4B76E04D4A136040F223
:1008800044424C4B70E04C4A136040F244424B4BA4
:100890006AE04B4A136040F244424A4B64E04A4AE1
:1008A000136040F24442494B5EE0494A136040F213
:1008B0004442484B58E0484A136040F24442474B98
:1008C00052E0474A13604FF45172464B4CE0464A9F
:1008D00013604FF45172454B46E0454A13604FF4A4
:1008E0005172444B40E0444A13604FF45172434B01
:1008F0003AE0434A136040F24442424B34E0424AF9
:10090000136040F24442414B2EE0414A136040F2F2
:100910004442404B28E0404A136040F244423F4B7F
:1009200022E03F4A13604FF451723E4B1CE03E4AB6
:1009300013604FF451723D4B16E03D4A13604FF483
:1009400051723C4B10E03C4A13604FF451723B4BE8
:100950000AE03B4A136040F244623A4B04E03A4AF0
:1009600013603A4B40F244621A6038BD7F29D4BF0D
:10097000002101212846FFF7BBFE01212846BDE8E2
:100980003840FFF7D5BE00BF3407FF1F0890034073
:1009900008800B4008900B4008900C4008800340F2
:1009A0001080034004B004401880034008B00440A5
:1009B000208003400CB004402880034010B0044065
:1009C0003080034010C004403880034014C004400D
:1009D0004080034018C00440488003401CC00440CD
:1009E000109003403090044018900340349004402D
:1009F00010800B4048A0044018800B404CA00440DD
:100A000010900B4000C0044018900B4004C00440FC
:100A100020900B4008C0044028900B400CC00440BC
:100A200030900B4020B0044038900B4024B004407C
:100A300040900B4028B0044048900B402CB004403C
:100A400010900C4000A0044018900C4004A00440FA
:100A500072B60C4B0C4A0D491B681268096862B6E5
:100A6000490102D5322B88BF0132C3F52F33B420A0
:100A700003F21F33B3FBF0F34FF47A7000FB023044
:100A8000704700BF18E000E0F807FF1F04ED00E02A
:100A900038B50446FFF7DCFF054624B938BD013CF4
:100AA0000AD005F57A75FFF7D3FF401BB0F57A7FC2
:100AB000F5D200F0B7FFF6E738BDFFFF374B3849F6
:100AC0004FF0006270B51A604FF080521A604FF01C
:100AD00000521A604FF080421A604FF000421A60D4
:100AE000304B314D314C324E00224EF6FF701A60C1
:100AF000586028230B608B600B618B610B628B62EB
:100B00000B638B63103101F501212B6023600B60B7
:100B10008B600B618B610B628B620921316006F582
:100B20008056043632607060B360336146F8041C4E
:100B300006F5FE2632607060B360336146F8041C2F
:100B400006F58056326070601A482B6023600160A1
:100B5000A0F5E120A0F2D470016841F400710160B9
:100B600050F8281C41F0007140F8281C12490A6016
:100B7000124A47F6FF7111605360D360104B082290
:100B80001A6001F03BF81920FFF782FF00F058FED1
:100B900040F21310BDE87040FFF77ABF04E100E0B7
:100BA0000C800340048003400C900B4014900B40D9
:100BB0000080034000900B4004900C4008900C40D3
:100BC00000900C4030B472B62B4A13781D0706D53E
:100BD0002A4B196A002936D0996A002941D05378E6
:100BE0001C0706D5254B196C00293ED0996C0029AD
:100BF00039D09378190705D5204B196E002936D0C6
:100C0000996E89B1D3781B0707D51C4BD3F8802088
:100C10007AB3D3F8882011213AB162B6184B00227A
:100C20001A7030BC00F0AABE0D21154C154D22786B
:100C300043F8315003EBC1030830013A5860227089
:100C400062B630BC704704220D4C0F4D217843F83A
:100C5000325003EBC20308304A1E5860227062B65D
:100C6000EFE70521E1E70921DFE70822ECE70C22A5
:100C7000EAE71022E8E700BFD82600000000FF1FC7
:100C8000D108FF1FC800400088004000431E032B0E
:100C90001DD81B4A400140F0100030B4104472B619
:100CA000184CE25C032A1BD8DFE802F00212151789
:100CB00003220D88E25410F0080F14BFC8238823C4
:100CC00043EA054308310360416062B630BC7047B7
:100CD00008300222EDE70522EBE708300422E8E7BE
:100CE000094A52F8230038B1084A52F823004160FB
:100CF00042F8231062B6E9E742F82310034AF7E707
:100D00000000FF1FE008FF1FA808FF1FB808FF1F13
:100D10002DE9F04FB54CB64E87B046E0B54F4FEADF
:100D2000930B07EBCB08013DD8F8041003F0080340
:100D3000EDB2A1F1080003F0FF02002B40F010819A
:100D400057F83B301B0C1FFA83FE21F808EC002BF0
:100D500000F0FD80A84B21F8062C41F8042C53F834
:100D60002520002A00F0DF82DFF8CCA25AF82530D7
:100D70005860DFF8C8924AF8250039F815309E44CB
:100D800029F815E000F0DCFD002800F0C5829B4941
:100D90009B4B18F0080F00F1080018BF0B46C8F86D
:100DA000040047F83B30082323702578EDB269072B
:100DB00019D5944B1B78A3B193490A7802F0FF032D
:100DC00022B1013BDBB20B7003B900BE8F490A7838
:100DD00002F0FF032AB1013BDBB20B70002B00F0E5
:100DE00071820423237005F0080303F0FF02002B37
:100DF00000F0DC803378DBB21D098FD19B087D4D7C
:100E000055F8332005EBC301C2F38302013A496868
:100E10000C2A00F29880DFE802F08C8C9696969669
:100E200096964D96969607000868DFF8F4E14A68B2
:100E3000DFF80CB2764FCEF80420CEF8000082B274
:100E400040F281600021DFF8B49145F833904FF013
:100E5000010C8242CBF800102961A96187F800C01B
:100E6000DFF8909100F2F080B2F5D06F80F08F83C0
:100E7000B2F5817F00F0218300F2A882802A00F081
:100E80006283822A40F02083BEF8043003F07F039F
:100E9000042B00F219835F4A5F489B001A440170DB
:100EA000417013789B0740F17A8480F800C04FF0BE
:100EB000020C4DE3DFF888B1DBF8003073B3DFF8E4
:100EC00084A1534F554ABAF8001097F800E0107803
:100ED00040298C4640F0020928BF4FF0400CBEF17B
:100EE000000F8EF0010E87F800E0CCEB01010CBF83
:100EF0008827C82705EBC90E89B280F0010047EAB0
:100F00000C47CEF80430AAF8001045F83970634455
:100F10001070002900F04581CBF80030404B1A8852
:100F2000B2F5A06F0FD13F4A9978117000225A7024
:100F300009E03B4A108842F22102904200F03681DB
:100F40002E4A45F83320384A012313702BE72B49EA
:100F50002B4B18F0080F18BF0B4647F83B3022E721
:100F600000F00CFD3148324A50F82510002900F0FD
:100F700013824B6812F805C040F8253001F10803D0
:100F8000C8F80430BCF1030F05D8DFE80CF02C02E0
:100F900029260223535518F0080F0A880CBF88230E
:100FA000C82343EA024347F83B30FCE6E80700F178
:100FB0008C81290600F10082AA0706D51D4A0B493B
:100FC00013780220DBB213700870EB0602D5074BD2
:100FD00010221A7007B0BDE8F08F04235355DAE7EA
:100FE00005235355D7E703235355D4E78020074003
:100FF000902007400000FF1F5408FF1FC80040005A
:1010000088004000DC08FF1F6508FF1FE408FF1F81
:101010006408FF1FC0200740D408FF1FD008FF1F2F
:10102000C808FF1F9820074094200740A808FF1F0A
:10103000E008FF1F882007400008FF1FFA0BFF1F72
:10104000FC07FF1F1008FF1F42F221039A4200F025
:10105000358100F2D980B2F5086F00F0B382B2F5A5
:10106000106F40F03182B24AD9F820309EF8021059
:1010700011701A0600F14383AB6AAE4A1B0600F1F9
:1010800039832B6BAB4A180600F14E83AB6BA94A30
:10109000190600F144832B6CA64A1B0600F13A8323
:1010A000AB6CA44A180600F130832B6DA14A1906D7
:1010B00000F16483AB6D9F4A1B0600F15A832B6ECF
:1010C0009C4A180600F15083AB6E9A4A190600F14B
:1010D00046832B6F974A1B0600F13C83AB6F954A02
:1010E000180600F13283D5F88030924A190600F1D3
:1010F0002683D5F888308F4A1B0600F11A83D5F86D
:1011000090308C4A180600F14483D5F89830894A0B
:10111000190600F1388300230193874B0293874B14
:101120000393874B0593DFF860A2864BDFF85C9250
:101130000493029B186830B1D0F8048000F01EFCC4
:1011400040460028F8D1039B1868029B1A460023EA
:101150001360019B1A4600234AF8223030B1D0F8C0
:10116000048000F00BFC40460028F8D1039A049B51
:10117000114600220A60059A1B781146002241F8A8
:10118000042B019A0591023B4FF0000129F812103F
:10119000032B00F23F81DFE813F08B0139018B0153
:1011A0003901BCF1400F18BF0023B5E6664A0F783D
:1011B0004878177050708F78C8789770D070106822
:1011C0000F79177186284F7989799171577108BF06
:1011D0005E4A5F4F04BF0F2111705E4A3878117864
:1011E000002881F0010E41F0020182F800E00CBFFE
:1011F0008822C82245F8312005EBC10180F00100AA
:10120000002238704A609BE642F221239A4240F065
:10121000E781DFF87C91504B504A9EF80200D9F8E4
:1012200000E0C3F800E00191CDF808C01070002183
:10123000029B03918A4689460846464A92F800E096
:101240004EF0020C05EBCC08002BC8F804000CBFD4
:101250008820C82040EA0A0A9DF8043045F83CA0DE
:101260008EF001003B701070DFF8C8C0DFF8E0803E
:10127000DFF8E0A0002940F02E81B9F1400F1DD128
:1012800040F0020005EBC005039B6B60019DDFF899
:10129000A4C0002D40F036810D0445F088084CF8BC
:1012A00030809DF808503D7082F800E00B444029E2
:1012B00004D100212A4ACBF800301180294A0123A9
:1012C000137040E600F08AFB8BE51A4B2548214954
:1012D0001A614FF0020E80F800E0234F0A70234994
:1012E00019609960224E234D234C9A610D2139706B
:1012F000FF213170DFF89CE0297022701F4D204AD9
:101300008EF800109F27012406F8047C5D600470AD
:10131000DA6007B0BDE8F08F1A4A47F83B0013784F
:10132000013313703FE543F82500DFF85CA020E5AA
:10133000DC08FF1F0000FF1F5408FF1FA808FF1F45
:10134000B808FF1FE008FF1F040CFF1F6508FF1F00
:101350006408FF1FD008FF1F0C0CFF1FF008FF1FC1
:101360001008FF1F94200740C0200740880040005D
:101370008820074080200740982007401408FF1F5E
:101380006808FF1FD108FF1F0008FF1FFA0BFF1F8F
:10139000F807FF1F8C200740535D032B00F2CC8021
:1013A00001A151F823F000BFA70D0000A70D000018
:1013B0000714000001140000BE49BF4B80220D201D
:1013C00008701A70AA077FF500AEF7E540F2023305
:1013D0009A4240F0FC80BEF8042002F07F02042A0A
:1013E00072D8BEF80230002B6ED1B2490193920040
:1013F0001144CDF808C00A7842F002020A7016E7DC
:1014000001235355CFE400235355CCE4049B4FF004
:1014100001021A70029A019B04320292039A04326A
:101420000392049A01330132042B019304927FF456
:1014300080AEDFF8B492DFF8B4A299F800309F4A8A
:1014400000218AF8001013701B0700F10A8199F837
:1014500001309B4ADFF89882137018074FF00002A2
:101460002A63AA6300F1E88099F80230954ADFF810
:101470008082137019074FF000022A65AA6500F1F7
:101480000381914A99F80330137000222A67AA67F2
:101490001A07DFF85C9200F1B8803B7802930022D3
:1014A00083F001030193C5F89020C5F89820BEE6AB
:1014B000049B4FF000021A70ACE7BEF8042002F063
:1014C0007F02042A40F291807A4B0F221A707F4AE1
:1014D0000123137037E540297FF6D2AE40F00200B9
:1014E0000CEBC002039B5360019AC2B1784A9DF88D
:1014F000085088F8005040398AF800E040334CF832
:101500003020D7E69DF808303B700D04039B82F82D
:1015100000E045F0C8050B444CF83050C7E69DF894
:10152000083088F80030039B6A4A8AF800E04039A6
:1015300040334CF83020BDE618F0080F0CBF0223F2
:10154000032353552FE464484FF0020C017041709F
:10155000BEF80610614580F06181604A92F800E0B3
:101560004EF0020C05EBCC034029894628BF4FF012
:101570004009586000EB0903039300230193012302
:10158000C9EB01014FEA094A0293C82062E6544BB5
:101590005868002898D0BEF80210BEF804C003E0D6
:1015A0000C33586800288FD01A888A42F8D15A889C
:1015B0006245F5D1090A03290CBF90F800C0B3F8C1
:1015C00008C0C5E7474B44481B780370C0E7B2F535
:1015D000A06F7FF479AF002301930123029326E6E5
:1015E00042F221339A42F6D06EE7BEF80230002B69
:1015F0007FF46AAF2F49019392001144CDF808C0DF
:101600000A7822F002020A7011E600F099F9002827
:1016100000F0D08008302F4BC9F88400C9F8803022
:1016200000F08EF9002800F0BD800830284BC5F886
:101630008C00C5F8883030E700F082F9002800F00F
:10164000D6800830234BC8F84400C8F8403000F07A
:1016500077F9002800F0C48008301D4BE864AB64C3
:1016600002E700F06DF9002800F0B3800830194B54
:1016700068622B6200F064F9002800F0A380083053
:10168000134BE862AB62E2E600F05AF9002800F082
:10169000BD8008300F4BC8F86400C8F8603000F017
:1016A0004FF9002800F0AB800830094BE866AB66C4
:1016B000E7E600BFC020074080200740C420074065
:1016C000C8200740CC200740D02007409420074086
:1016D000C800400088004000D408FF1FD008FF1F4A
:1016E000DC260000DC08FF1FD8260000D108FF1F01
:1016F0000000FF1FD06A083800F040F9C1E4D9F8B3
:101700002400083800F03AF9B6E4D06C083800F04C
:1017100035F9CAE4506C083800F030F9C0E4D06BF9
:10172000083800F02BF9B6E4506B083800F026F9C1
:10173000ACE4D2F88C00083800F020F9DFE4D2F8ED
:101740008400083800F01AF9D3E4D06F083800F0AC
:1017500015F9C8E4506F083800F010F9BEE4D06EF7
:10176000083800F00BF9B4E4506E083800F006F9C0
:10177000AAE4D06D083800F001F9A0E4506D0838F3
:1017800000F0FCF896E4D2F89C00083800F0F6F877
:10179000C1E4D2F89400083800F0F0F8B5E44FF056
:1017A000020CD5E69AF80030C5F8880001338AF8B3
:1017B000003072E69AF80030C9F8800001338AF8E8
:1017C00000302DE79AF80030A86201338AF8003023
:1017D0003DE69AF80030286201338AF8003049E784
:1017E0009AF80030A86401338AF800303CE69AF891
:1017F0000030C8F8400001338AF8003027E79AF833
:101800000030A86601338AF800303AE69AF80030D2
:10181000C8F8600001338AF8003040E7BCF1400F9F
:10182000E14628BF4FF0400900EB09030393002372
:1018300001930123C9EB0C014FEA094A0293FCE42E
:101840002DE9F04100F0C2FD314C324B3248DFF857
:10185000E480324EDFF8E0C0314F324DDFF8DCE09B
:1018600000221A605A609A60DA601A615A619A61BD
:10187000DA611A625A629A62DA621A635A639A6386
:10188000DA631A645A649A64DA641A655A659A6566
:10189000DA651A665A669A66DA661A675A679A6746
:1018A000DA67C3F880202168C3F8842041F48021DE
:1018B0002160016841F040710160032188F8001047
:1018C000A020C3F307218CF8000004F52834317000
:1018D000C3F30740144938701B0E2B70CC34FF2320
:1018E0008EF80030114D0CF8B83C11480B700123F4
:1018F00006F8083C227070264FF40014102207F8F6
:101900002C3C2E70046081F8F820BDE8F08100BF07
:10191000348004400000FF1F00D800409C20074096
:10192000B0200740B42007401020074035E400E015
:1019300004E100E0442107404021074080200740A7
:1019400010B572B60B480268B2FA82F10B2902DDBB
:1019500062B6002010BD4FF00043CB4022EA0302E4
:10196000026062B6044C48234B43E0180022E25068
:10197000426010BD3807FF1FD003FF1F0C4B4822E9
:10198000C31AB3FBF2F30B2B11D80A4A127822B117
:10199000094A12780AB1FFF715B972B607494FF034
:1019A000004222FA03F30A681A430A6062B67047DB
:1019B000D003FF1FD108FF1FDC08FF1F3807FF1FE0
:1019C000044B9888044B1A681AB1138852889B1AE2
:1019D00018447047FA0BFF1FEC08FF1F38B50E4B79
:1019E0001B7803F0FF05ABB90C4C216831B14B8873
:1019F0000B800420FFF74AF9256038BDFFF7A0FFF0
:101A0000014620B10420BDE83840FFF73FB9044B40
:101A100001221A7038BD00BFE508FF1FE808FF1F4C
:101A2000E408FF1F38B5254C2378002B45D101234E
:101A30002370FFF7C5FF08B100F006FD00F0CCF9F8
:101A400008B100F0D5F800F055FA08B100F0D1F86F
:101A500000F0DEFA08B100F0CDF800F04FFB08B15D
:101A600000F0C9F800F0C0FB08B100F0C5F800F0C4
:101A700031FC08B100F0C1F800232370EFF30583B7
:101A8000DBB9EFF3108272B60D4D286810B10D4C22
:101A9000217811B18AB962B638BD01232370436938
:101AA0002B600BB1996101E007490B6002B962B686
:101AB0000025457783689847257038BDF108FF1FDA
:101AC0000409FF1F0809FF1F0009FF1FEFF3108023
:101AD00072B6B0FA80F04009704700B162B6704744
:101AE000F8B50C4E0C4F0025FFF7F0FF34680246A6
:101AF0006CB1636933600BB19D6100E03B601046DF
:101B0000FFF7EBFF6577A36820469847ECE7FFF700
:101B1000E4FFF8BDF408FF1FF808FF1FFFF7E0BF60
:101B200015490B6830B513B98360C36009E00468D8
:101B30001A68944207D20025121B8360C560D860E2
:101B40001A60086015E002681C689968121B026040
:101B500061B10C68A2420B46F5D28160C968C160D0
:101B6000D860C168A21A88601A6002E08160C36010
:101B700098600223037530BDFC08FF1F70B5164D39
:101B80002C680026BCB1236813B1013B236012E02E
:101B9000A26802B1D36020692A60036826751B68B9
:101BA00022460021984763681BB123602046FFF757
:101BB000B7FF2C68E6E7FFF789FF084B00221C6897
:101BC0001A60FFF78AFF2CB1A5682046FFF7A8FF2F
:101BD0002C46F8E770BD00BFFC08FF1F0C09FF1F73
:101BE000024A136801331360FFF7C8BFF807FF1FED
:101BF00070477047704770477047704710B5204B6B
:101C00002048214960221A70E1225A701F4B204A55
:101C10001C78204B082C01D1212402E00A2C03D18E
:101C200039240460132005E00C2C0CBF35245D24FE
:101C300004601220086014601860174B17491B7865
:101C4000174A03B101230B601360164B164A19782B
:101C5000164B012901D880210BE0042901D88421E9
:101C600007E0082901D8852103E0102994BF8621C7
:101C70008721116019600E4B01221A7010BD00BF40
:101C80000040074008B003400CB003403C07FF1F72
:101C900008B00B400CB00B401109FF1F20B00340EF
:101CA00020B00B403D07FF1F24B0034024B00B4081
:101CB0001009FF1F094A136843F480531360084B4F
:101CC0001A78084B0AB1802200E0C0221A70064B35
:101CD00080F30C0000B21880704700BF2C800440D5
:101CE0001109FF1F21C00C4000C00C40094A1368B5
:101CF00043F400531360084B1A78084B0AB1802252
:101D000000E0C0221A70064B80F30C0000B218806D
:101D1000704700BF2C8004401109FF1F21D00C40E8
:101D200000D00C4008B50B4D2C462B68580301D54C
:101D3000FEF7EEFF2368590501D500F05DF8236832
:101D40001A0501D500F0E6F82368DB04EDD500F0B4
:101D50006FF9EAE73480044008B5FFF7E3FFFFFFBF
:101D6000014B10221A807047002005407047FFFF8A
:101D7000094B1A78802A0DD1084A0949116002F5E9
:101D8000573202F2BD32002111701A78802AFCD03D
:101D9000012070470020704703E007404480044062
:101DA00000002822094B1A78012A0DD102F1804245
:101DB00002F5FC22602111701A78802AFCD1044BB4
:101DC000044A1A60012070470020704703E0074072
:101DD0004480044000000602054B1878054B1A7831
:101DE000C0B2D3B2984238BF4030C01A704700BF6B
:101DF0009A09FF1F1909FF1FF0B534490B7913F039
:101E0000300F2FD072B68B7D03F0FF0423B9CB794E
:101E100040234B7462B625E062B62D482D4A037804
:101E200012782D4FDBB2D2B20546581C4028CE792D
:101E300028BF00209042F6B21CBF3E540346601EED
:101E400010F0FF04F1D1D9B229702449096849B1D1
:101E5000934236BFC2F140029B1A9B18272BC4BF86
:101E600001230B70194AD178C9B20D061ED513791A
:101E70001C061BD51A4B1B481D7803781A4EEDB271
:101E8000DBB2AB420AD00133402B28BF00231479C8
:101E9000F45CE4B2D471147D072CF2D9DBB2037088
:101EA0000A4B1A79100644BF7C22DA7049060CD519
:101EB000064B1A79520608D50C4A002111700C4ABB
:101EC000126802B111703C22DA70F0BD00A0064029
:101ED0009A09FF1F1909FF1F5A09FF1F1409FF1F45
:101EE000A009FF1F9B09FF1F1A09FF1F1809FF1FE9
:101EF0009C09FF1F054B1878054B1A78C0B2D3B266
:101F0000984238BF4030C01A704700BF120AFF1F06
:101F1000A909FF1FF0B534490B7913F0300F2FD00A
:101F200072B68B7D03F0FF0423B9CB7940234B7449
:101F300062B625E062B62D482D4A037812782D4FFF
:101F4000DBB2D2B20546581C4028CE7928BF00200B
:101F50009042F6B21CBF3E540346601E10F0FF04D0
:101F6000F1D1D9B229702449096849B1934236BFE9
:101F7000C2F140029B1A9B18272BC4BF01230B7090
:101F8000194AD178C9B20D061ED513791C061BD586
:101F90001A4B1B481D7803781A4EEDB2DBB2AB42E8
:101FA0000AD00133282B28BF00231479F45CE4B253
:101FB000D471147D072CF2D9DBB203700A4B1A7965
:101FC000100644BF7C22DA7049060CD5064B1A79FC
:101FD000520608D50C4A002111700C4A126802B151
:101FE00011703C22DA70F0BD00B00640120AFF1FEB
:101FF000A909FF1FD209FF1FA409FF1F180AFF1F0D
:10200000130AFF1FAA09FF1FA809FF1F140AFF1FB9
:10201000054B1878054B1A78C0B2D3B2984238BF36
:102020004030C01A704700BF8A0AFF1F210AFF1FF5
:1020300010B5284B1A79920620D52749DA790B7802
:102040002648013300783F2BC8BF0023834218BFC6
:102050002348D2B21EBFC254DAB20A70214A1168B4
:1020600061B1214A1278D2B2934236BFC2F1400226
:102070009B1A9B18272BC4BF01230B701549CA78E4
:10208000D2B2140616D50B79180613D5174B164C79
:1020900018782378DBB2984202D16C23CB7009E028
:1020A0000133282B28BF00231148C05CDBB2C0B22B
:1020B000C871237051060CD5064B1A79520608D503
:1020C0000C4A002111700C4A126802B111702C22C6
:1020D000DA7010BD00C006408A0AFF1F210AFF1FE8
:1020E0004A0AFF1F1C0AFF1F8B0AFF1F900AFF1FCF
:1020F000220AFF1F200AFF1F8C0AFF1F054B1878BA
:10210000054B1A78C0B2D3B2984238BF4030C01ADB
:10211000704700BF020BFF1F990AFF1F10B5284B25
:102120001A79920620D52749DA790B7826480133A7
:1021300000783F2BC8BF0023834218BF2348D2B288
:102140001EBFC254DAB20A70214A116861B1214A35
:102150001278D2B2934236BFC2F140029B1A9B184A
:10216000272BC4BF01230B701549CA78D2B21406BD
:1021700016D50B79180613D5174B164C18782378FB
:10218000DBB2984202D16C23CB7009E00133282BDB
:1021900028BF00231148C05CDBB2C0B2C8712370F5
:1021A00051060CD5064B1A79520608D50C4A002167
:1021B00011700C4A126802B111702C22DA7010BD35
:1021C00000D00640020BFF1F990AFF1FC20AFF1F23
:1021D000940AFF1F030BFF1F080BFF1F9A0AFF1F24
:1021E000980AFF1F040BFF1F054B1878054B1A7840
:1021F000C0B2D3B2984238BF4030C01A704700BF57
:102200007A0BFF1F110BFF1F10B5284B1A7992068E
:1022100020D52749DA790B782648013300783F2BFF
:10222000C8BF0023834218BF2348D2B21EBFC25486
:10223000DAB20A70214A116861B1214A1278D2B229
:10224000934236BFC2F140029B1A9B18272BC4BF92
:1022500001230B701549CA78D2B2140616D50B7932
:10226000180613D5174B164C18782378DBB2984212
:1022700002D16C23CB7009E00133282B28BF002347
:102280001148C05CDBB2C0B2C871237051060CD5D6
:10229000064B1A79520608D50C4A002111700C4AD7
:1022A000126802B111702C22DA7010BD00A00E402D
:1022B0007A0BFF1F110BFF1F3A0BFF1F0C0BFF1FA9
:1022C0007B0BFF1F800BFF1F120BFF1F100BFF1F4D
:1022D0007C0BFF1F054B1878054B1A78C0B2D3B2A0
:1022E000984238BF4030C01A704700BFF20BFF1F42
:1022F000890BFF1F10B5294B5A6892021FD5284938
:10230000DA680B78274801333F2B0078C8BF0023D9
:10231000834204D02448D2B2C254DAB20A70234AAB
:10232000116861B1224A1278D2B2934236BFC2F12B
:1023300040029B1A9B18272BC4BF01230B70174A1E
:10234000906804021AD55368190217D5194B184C16
:1023500019782378DBB2994206D1174B00221A6014
:10236000012243F8042C09E00133282B28BF002365
:102370001249C95CDBB2C9B2D160237042020CD5EC
:10238000064B5B685B0208D50D4A002313700D4AAB
:10239000126802B113700C4A136010BD00400C406B
:1023A000F20BFF1F890BFF1FB20BFF1F840BFF1FD8
:1023B000F30BFF1FF80BFF1F5C0188438A0BFF1F05
:1023C000880BFF1FF40BFF1F5801884330B585B001
:1023D00072B6FFF7CDFC154B154970221A70154ADD
:1023E000116080221A701A781206FCD5124B1C68F4
:1023F000FFF7D8FC62B6114B9C429CBF0A235C439A
:1024000001AD0A222946204600F01FF80C4A00239D
:10241000E95C21B101330A2B22F8021BF8D1094AE9
:1024200001335B00137005B030BD00BF00000240F7
:1024300000000741040002400C0002407F96980013
:10244000C807FF1FC607FF1F704730B503460020AF
:10245000B3FBF2F402FB1433092B94BF3033373350
:10246000DBB20B5423460CB10130F1E70A182346C6
:102470005470C41AA34206DACC5C1578CD5402F825
:1024800001490133F5E7084630BDFFFF70B50E4B3B
:102490000E4CE41AA41000251E46A54204D056F89E
:1024A000253098470135F8E700F042F9084C094B10
:1024B000E41AA41000251E46A54204D056F8253083
:1024C00098470135F8E770BD3C2700003C27000025
:1024D000402700003C2700004008FE4340A0044085
:1024E0004408FE4344A004400018FE4300C00440DA
:1024F0003000FE43309004403400FE4334900440EA
:102500001C18FE431CC004401018FE4310C00440B9
:102510000818FE4308C004400C18FE430CC00440D9
:102520000C10FE430CB004401010FE4310B00440E9
:102530001810FE4318B004401C10FE431CB00440A9
:102540001410FE4314B004400418FE4304C00440B9
:102550000010FE4300B004400008FE4300A0044009
:102560000408FE4304A004400C08FE430CA00440F1
:102570000808FE4308A004401418FE4314C0044099
:102580001818FE4318C004400410FE4304B0044071
:102590000810FE4308B004406820FE4368D00440A1
:1025A0001400FE43149004403800FE433890044069
:1025B0003C00FE433C9004404000FE4340900440F9
:1025C0004808FE4348A004404C08FE434CA0044089
:1025D0002808FE4328A004402C08FE432CA00440F9
:1025E0006020FE4360D004406420FE4364D0044079
:1025F0002010FE4320B004402410FE4324B00440C9
:102600002810FE4328B004402C10FE432CB0044098
:102610004400FE43449004407000FE437090044028
:102620007400FE43749004406800FE4368900440C8
:102630005008FE4350A004405808FE4358A00440F0
:102640005C08FE435CA004405408FE4354A00440D0
:102650002018FE4320C004402418FE4324C0044038
:102660001008FE4310A004401408FE4314A00440C8
:102670003818FE4338C004403418FE4334C00440C8
:102680003018FE4330C004403C18FE433CC00440B8
:102690002C18FE432CC004402820FE4328D00440C0
:1026A0002C20FE432CD004400020FE4300D00440E8
:1026B0000420FE4304D004400820FE4308D0044018
:1026C0000C20FE430CD004401020FE4310D00440E8
:1026D0001420FE4314D00440001519150001000019
:1026E0003E07FF1F12000000000200006807FF1FE6
:1026F0004300000000030000C207FF1F00000000AD
:10270000010309045007FF1F000000000203090431
:10271000AC07FF1F0000000003030904C607FF1FEA
:1027200000000000000000000000000000000000A9
:10273000F8B500BFF8BC08BC9E46704735040000E1
:04274000F8B500BF29
:102744000A00000008000000FFFFFFFF0A04120156
:10275400100102000040C016830477020102030145
:1027640018035400650065006E007300790064006E
:10277400750069006E006F0009024300020100C089
:1027840032090400000102020100052400100105C1
:102794002401010104240206052406000107058220
:1027A4000310004009040100020A000000070503A9
:1027B4000240000007058402400000001603550093
:1027C400530042002000530065007200690061005C
:1027D4006C00040309040C03000000000000000066
:0C27E400000000000000000000000000E9
:00000001FF
