:1000000000800020BD010000BD1A0000891A000018
:10001000891A0000891A0000891A0000891A000054
:10002000891A0000891A0000891A0000BD1A000010
:10003000BD1A0000891A0000BD18000081190000D7
:10004000BD1A0000BD1A0000BD1A0000BD1A000054
:10005000BD1A0000BD1A0000BD1A0000BD1A000044
:10006000BD1A0000BD1A0000BD1A0000BD1A000034
:10007000BD1A0000BD1A0000BD1A0000BD1A000024
:10008000BD1A0000BD1A0000BD1A0000BD1A000014
:10009000BD1A0000BD1A0000BD1A0000BD1A000004
:1000A000BD1A0000BD1A0000BD1A0000BD1A0000F4
:1000B000BD1A0000BD1A0000BD1A0000BD1A0000E4
:1000C000BD1A0000BD1A0000BD1A0000BD1A0000D4
:1000D000BD1A0000BD1A0000BD1A0000BD1A0000C4
:1000E000BD1A0000BD1A0000BD1A0000BD1A0000B4
:1000F000BD1A0000F51A0000BD1A0000111C000016
:10010000BD1A00002D1D0000BD1A0000BD1A000020
:10011000BD1A0000BD1A0000BD1A0000BD1A000083
:10012000BD1A0000BD1A0000BD1A0000BD1A000073
:10013000BD1A0000BD1A0000BD1A0000BD1A000063
:10014000BD1A0000BD1A0000BD1A0000BD1A000053
:10015000BD1A0000BD1A0000BD1A0000BD1A000043
:10016000BD1A0000F50A0000BD1A0000BD1A00000B
:10017000BD1A0000BD1A0000BD1A0000BD1A000023
:10018000BD1A0000BD1A0000BD1A0000BD1A000013
:10019000BD1A0000BD1A0000BD1A0000BD1A000003
:1001A000BD1A0000BD1A0000BD1A0000BD1A0000F3
:1001B000BD1A0000BD1A0000BD1A0000564B4CF2DB
:1001C000205210B51A804DF628121A8000BF00BFC9
:1001D00001F078FC514B4FF010621A60504A9A605F
:1001E000504ADA60504A136813F4807301BF4F49D4
:1001F0000B604FF4A85313604D4B4E491A7810070B
:1002000042BF1A7842F008021A704B4B2A221A7029
:100210004A4A4B4B8B4204D252F8040F43F8040B6A
:10022000F8E7484B484A0021934202D243F8041BA6
:10023000FAE7464A4648002350F8231042F82310B4
:1002400001336F2BF8D1434B434A802103F8011B44
:100250009342FBD1414B3D4A1A60414B8A221A70AE
:10026000A3F5805324225A70A0221A709A7991071C
:10027000FCD59A79D206FCD43A4A937903F00C0360
:10028000082B384BF9D105221A7143225A719A79F9
:100290009406FCD533498A79324B5006FBD5324A55
:1002A0004FF0817111600521516020221A709A79F6
:1002B00002F00C020C2AFAD12C4B2D4A1A602D4B5D
:1002C0002D4A1A6000225A60072243F8042C2B4A58
:1002D000C3F80C2D62B600F015FB144B1B68DA074F
:1002E00005D5274800F01CF9264B274A1A60274BF2
:1002F0001B785B0609D5234C234B22689A4204D114
:100300001F4800F00DF90023236002F0EBF801F024
:10031000DFFB00F0FDF8FEE70E20054030800440D2
:10032000823F04000100002B10D0034014D0034092
:1003300002D00740C887FF1F00E00740A826000042
:100340001C87FF1FC887FF1F948AFF1F0082FF1FA3
:100350000000000000E400E05FE400E008ED00E0E1
:1003600000500640004006404480044004800440A1
:10037000C010050014E000E03F190100000020203B
:100380000FEAA85D1CE00340A5C3945A00F00740A3
:10039000FFFFFFFFFFFFFFFFFFFFFFFFFFFFFFFF6D
:1003A000FFFFFFFFFFFFFFFFFFFFFFFFFFFFFFFF5D
:1003B000FFFFFFFFFFFFFFFFFFFFFFFFFFFFFFFF4D
:1003C000FFFFFFFFFFFFFFFFFFFFFFFFFFFFFFFF3D
:1003D000FFFFFFFFFFFFFFFFFFFFFFFFFFFFFFFF2D
:1003E000FFFFFFFFFFFFFFFFFFFFFFFFFFFFFFFF1D
:1003F000FFFFFFFFFFFFFFFFFFFFFFFFFFFFFFFF0D
:10040000FFFFFFFFFFFFFFFFFFFFFFFFDEF9FFFF23
:1004100010B5054C237833B9044B13B10448AFF33E
:1004200000800123237010BDC887FF1F000000005B
:10043000AC260000084B10B51BB108490848AFF3C3
:1004400000800848036803B910BD074B002BFBD0A0
:10045000BDE81040184700BF00000000CC87FF1F18
:10046000AC260000C887FF1F0000000008B501F09F
:10047000D9FD0E4901F02AFE0D4901F01DFD01F0E4
:10048000EBFF40B210F1640F03DB6428A8BF6420C7
:1004900001E06FF0630001F0C5FD064901F016FEB2
:1004A000054901F00BFD01F0D7FF08BD696FE03F82
:1004B000F0A705410AD7A34000E0BF44002108B5DA
:1004C000084600F0E1F80021012000F0DDF80121EC
:1004D000162000F0D9F80649172000F03FF8162042
:1004E000012100F0B1F80C20BDE8084000F028B868
:1004F00000007A4308B5054B93F90000FFF7B6FFFB
:10050000BDE808400146172000F0F0B81C87FF1F27
:1005100008B5FFF7D3FFFFF7EDFF01F061F9FAE748
:10052000044B054900221A600A60044A1060102238
:100530001A60704714D0034004D0034000D0034039
:1005400020B11028034628BF102300E00123024AEF
:1005500010781370704700BF2087FF1F2DE9F0410E
:10056000884605462C492D4E404601F04DFF47F682
:100570001223002816BF022701271E46002426FA50
:1005800004F001F04BFD4FF05E5101F09FFD01467C
:10059000404601F04DFF10B90134072CEFD126FA87
:1005A00004F001F03BFD414601F044FE4FF07C5168
:1005B00001F082FC01F076FF4FF6FF73984228BFEE
:1005C0001846EB1E012B06D8154B164900221A605F
:1005D0000A60154A18E0172D0CD8144BEB4003F0B5
:1005E000010383F001023BB1114B12491A600A600A
:1005F000114A09E0202D01D0192D0BD10F4B1049C4
:1006000000221A600A600F4A106044EAC7041C60A6
:10061000BDE8F081BDE8F0814054894000512502D9
:100620000090034004900340089003406006F000EF
:1006300000800340048003400880034000800B409A
:1006400004800B4008800B40212810B518D80D4BB2
:1006500053F8302092F880423CB1012311B182F866
:10066000803010BD82F8003110BD03EBC0035B6821
:100670001A6811B142F0030201E022F002021A608E
:1006800010BD00BF30250000212810B52BD8164A18
:1006900002EBC00301295B68144601D004290FD185
:1006A00054F83020012082F880024FF4A2721A60C0
:1006B0001A6804290CBF42F0200222F0200211E047
:1006C00052F83000002280F8802211B94FF4807275
:1006D00008E0022902D140F2031203E0032908BF17
:1006E0004FF481721A6010BD30250000282838B5FB
:1006F00004464D4B0FD11B780B2B03D8C3F10C03D1
:10070000994003E00C2B1CBF0C3B19410846BDE887
:10071000384001F09DB91A780125002905FA02F345
:1007200001DC002102E08B4204D82946FFF78CFF50
:10073000294674E00338C3B2012B01D83B4B06E0D5
:10074000202C01D0192C01D1394B00E0394B1B680A
:1007500003FB0113D3401D2859D8DFE800F03F45C3
:10076000392758581B215858585858585858582DF8
:10077000330F1558515858585858584B2E4A136033
:1007800040F244422D4B40E02D4A136040F2444277
:100790002C4B3AE02C4A136040F244422B4B34E09D
:1007A0002B4A136040F244422A4B2EE02A4A13603F
:1007B00040F24442294B28E0294A136040F2444267
:1007C000284B22E0284A136040F24442274B1CE0A9
:1007D000274A136040F24442264B16E0264A136033
:1007E0004FF45172254B10E0254A13604FF45172BB
:1007F000244B0AE0244A13604FF45172234B04E067
:10080000234A1360234B4FF451721A6038BD7F297D
:10081000D4BF002101212046FFF716FF0121204609
:10082000BDE83840FFF730BF2087FF1F0890034026
:1008300008800B40088003401080034004B004404F
:100840001880034008B00440208003400CB00440EE
:100850002880034010B004403080034010C00440A2
:100860003880034014C004404080034018C0044056
:10087000488003401CC00440109003403090044066
:10088000189003403490044010800B4048A004406E
:1008900018800B404CA0044072B60C4B0C4A0D491A
:1008A0001B681268096862B6490102D5322B88BFFD
:1008B0000132C3F58C33482003F23F13B3FBF0F34E
:1008C0004FF47A7000FB0230704700BF18E000E080
:1008D000E487FF1F04ED00E038B50446FFF7DCFFB6
:1008E000054624B938BD013C0AD005F57A75FFF7F5
:1008F000D3FF401BB0F57A7FF5D200F071FFF6E729
:1009000038BDFFFF214B4FF4000210B51A604FF0C5
:1009100080721A604FF000721A604FF080621A60A5
:100920004FF000621A601A4B1A4A1B4C002048F61E
:10093000FF711860596028231360936013619361FD
:1009400013629362136393630922226004F5805457
:10095000043420606160A360236144F8042C04F532
:10096000FE2420600D4801600D490B608B600D4B2B
:100970001A6001F011F81920FFF7AEFF00F052FEE7
:1009800040F21310BDE81040FFF7A6BF08E100E0F9
:10099000048003400C8003400080034008800B402B
:1009A0000C800B4000800B4030B472B62B4A137899
:1009B0001D0706D52A4B196A002936D0996A0029E5
:1009C00041D053781C0706D5254B196C00293ED021
:1009D000996C002939D09378190705D5204B196EE9
:1009E000002936D0996E89B1D3781B0707D51C4BE7
:1009F000D3F880207AB3D3F8882011213AB162B6B7
:100A0000184B00221A7030BC00F096BE0D21154C18
:100A1000154D227843F8315003EBC1030830013AF9
:100A20005860227062B630BC704704220D4C0F4DE6
:100A3000217843F8325003EBC20308304A1E586055
:100A4000227062B6EFE70521E1E70921DFE708221E
:100A5000ECE70C22EAE71022E8E700BF402600009E
:100A60000080FF1FBD88FF1FC800400088004000B5
:100A7000431E032B1DD81B4A400140F0100030B428
:100A8000104472B6184CE25C032A1BD8DFE802F06F
:100A90000212151703220D88E25410F0080F14BF3C
:100AA000C823882343EA054308310360416062B6E6
:100AB00030BC704708300222EDE70522EBE7083032
:100AC0000422E8E7094A52F8230038B1084A52F8EC
:100AD0002300416042F8231062B6E9E742F8231090
:100AE000034AF7E70080FF1FCC88FF1F9488FF1F91
:100AF000A488FF1F2DE9F04FB54CB64E87B046E0F5
:100B0000B54F4FEA930B07EBCB08013DD8F8041023
:100B100003F00803EDB2A1F1080003F0FF02002B7F
:100B200040F0108157F83B301B0C1FFA83FE21F870
:100B300008EC002B00F0FD80A84B21F8062C41F8B2
:100B4000042C53F82520002A00F0DF82DFF8CCA225
:100B50005AF825305860DFF8C8924AF8250039F86D
:100B600015309E4429F815E000F0C8FD002800F07B
:100B7000C5829B499B4B18F0080F00F1080018BF75
:100B80000B46C8F8040047F83B300823237025784B
:100B9000EDB2690719D5944B1B78A3B193490A7834
:100BA00002F0FF0322B1013BDBB20B7003B900BEC0
:100BB0008F490A7802F0FF032AB1013BDBB20B70C8
:100BC000002B00F071820423237005F0080303F06A
:100BD000FF02002B00F0DC803378DBB21D098FD1DF
:100BE0009B087D4D55F8332005EBC301C2F383020A
:100BF000013A49680C2A00F29880DFE802F08C8CF8
:100C00009696969696964D96969607000868DFF803
:100C1000F4E14A68DFF80CB2764FCEF80420CEF843
:100C2000000082B240F281600021DFF8B49145F803
:100C300033904FF0010C8242CBF800102961A9617A
:100C400087F800C0DFF8909100F2F080B2F5D06F25
:100C500080F08F83B2F5817F00F0218300F2A882BB
:100C6000802A00F06283822A40F02083BEF804309C
:100C700003F07F03042B00F219835F4A5F489B0057
:100C80001A440170417013789B0740F17A8480F810
:100C900000C04FF0020C4DE3DFF888B1DBF8003004
:100CA00073B3DFF884A1534F554ABAF8001097F890
:100CB00000E0107840298C4640F0020928BF4FF030
:100CC000400CBEF1000F8EF0010E87F800E0CCEB77
:100CD00001010CBF8827C82705EBC90E89B280F037
:100CE000010047EA0C47CEF80430AAF8001045F896
:100CF000397063441070002900F04581CBF8003052
:100D0000404B1A88B2F5A06F0FD13F4A9978117005
:100D100000225A7009E03B4A108842F221029042B8
:100D200000F036812E4A45F83320384A01231370EB
:100D30002BE72B492B4B18F0080F18BF0B4647F831
:100D40003B3022E700F0F8FC3148324A50F82510D9
:100D5000002900F013824B6812F805C040F82530D6
:100D600001F10803C8F80430BCF1030F05D8DFE82F
:100D70000CF02C0229260223535518F0080F0A887C
:100D80000CBF8823C82343EA024347F83B30FCE604
:100D9000E80700F18C81290600F10082AA0706D538
:100DA0001D4A0B4913780220DBB213700870EB0662
:100DB00002D5074B10221A7007B0BDE8F08F04234C
:100DC0005355DAE705235355D7E703235355D4E7A3
:100DD00080200740902007400080FF1F4088FF1FB1
:100DE000C800400088004000C888FF1F5188FF1FCE
:100DF000D088FF1F5088FF1FC0200740C088FF1FFA
:100E0000BC88FF1FB488FF1F98200740942007402C
:100E10009488FF1FCC88FF1F88200740EC87FF1FA6
:100E20007E8AFF1FE887FF1FFC87FF1F42F2210316
:100E30009A4200F0358100F2D980B2F5086F00F0D7
:100E4000B382B2F5106F40F03182B24AD9F8203047
:100E50009EF8021011701A0600F14383AB6AAE4A85
:100E60001B0600F139832B6BAB4A180600F14E8349
:100E7000AB6BA94A190600F144832B6CA64A1B06EA
:100E800000F13A83AB6CA44A180600F130832B6D55
:100E9000A14A190600F16483AB6D9F4A1B0600F15D
:100EA0005A832B6E9C4A180600F15083AB6E9A4A07
:100EB000190600F146832B6F974A1B0600F13C830D
:100EC000AB6F954A180600F13283D5F88030924A0C
:100ED000190600F12683D5F888308F4A1B0600F1E9
:100EE0001A83D5F890308C4A180600F14483D5F85F
:100EF0009830894A190600F1388300230193874B03
:100F00000293874B0393874B0593DFF860A2864BD0
:100F1000DFF85C920493029B186830B1D0F804802B
:100F200000F00AFC40460028F8D1039B1868029B99
:100F30001A4600231360019B1A4600234AF8223008
:100F400030B1D0F8048000F0F7FB40460028F8D11B
:100F5000039A049B114600220A60059A1B781146E9
:100F6000002241F8042B019A0591023B4FF0000149
:100F700029F81210032B00F23F81DFE813F08B01F8
:100F800039018B013901BCF1400F18BF0023B5E6D0
:100F9000664A0F784878177050708F78C8789770C5
:100FA000D07010680F79177186284F7989799171FF
:100FB000577108BF5E4A5F4F04BF0F2111705E4A30
:100FC00038781178002881F0010E41F0020182F892
:100FD00000E00CBF8822C82245F8312005EBC10192
:100FE00080F00100002238704A609BE642F2212323
:100FF0009A4240F0E781DFF87C91504B504A9EF8CE
:101000000200D9F800E0C3F800E00191CDF808C073
:1010100010700021029B03918A4689460846464A81
:1010200092F800E04EF0020C05EBCC08002BC8F85B
:1010300004000CBF8820C82040EA0A0A9DF804304A
:1010400045F83CA08EF001003B701070DFF8C8C07E
:10105000DFF8E080DFF8E0A0002940F02E81B9F150
:10106000400F1DD140F0020005EBC005039B6B60F3
:10107000019DDFF8A4C0002D40F036810D0445F03D
:1010800088084CF830809DF808503D7082F800E0E8
:101090000B44402904D100212A4ACBF800301180AA
:1010A000294A0123137040E600F076FB8BE51A4BCA
:1010B000254821491A614FF0020E80F800E0234FC5
:1010C0000A70234919609960224E234D234C9A617E
:1010D0000D213970FF213170DFF89CE029702270FA
:1010E0001F4D204A8EF800109F27012406F8047C2B
:1010F0005D600470DA6007B0BDE8F08F1A4A47F807
:101100003B001378013313703FE543F82500DFF807
:101110005CA020E5C888FF1F0080FF1F4088FF1FDC
:101120009488FF1FA488FF1FCC88FF1F888AFF1F99
:101130005188FF1F5088FF1FBC88FF1F908AFF1F28
:10114000DC88FF1FFC87FF1F94200740C02007405A
:1011500088004000882007408020074098200740F2
:101160000088FF1F5488FF1FBD88FF1FEC87FF1FEB
:101170007E8AFF1FE487FF1F8C200740535D032BEF
:1011800000F2CC8001A151F823F000BF8B0B0000CE
:101190008B0B0000EB110000E5110000BE49BF4BB6
:1011A00080220D2008701A70AA077FF500AEF7E5BF
:1011B00040F202339A4240F0FC80BEF8042002F074
:1011C0007F02042A72D8BEF80230002B6ED1B249D9
:1011D000019392001144CDF808C00A7842F002024F
:1011E0000A7016E701235355CFE400235355CCE48E
:1011F000049B4FF001021A70029A019B0432029282
:10120000039A04320392049A01330132042B0193AE
:1012100004927FF480AEDFF8B492DFF8B4A299F8BC
:1012200000309F4A00218AF8001013701B0700F15C
:101230000A8199F801309B4ADFF8988213701807E9
:101240004FF000022A63AA6300F1E88099F80230A7
:10125000954ADFF88082137019074FF000022A6563
:10126000AA6500F10381914A99F8033013700022B6
:101270002A67AA671A07DFF85C9200F1B8803B780A
:101280000293002283F001030193C5F89020C5F872
:101290009820BEE6049B4FF000021A70ACE7BEF83F
:1012A000042002F07F02042A40F291807A4B0F2240
:1012B0001A707F4A0123137037E540297FF6D2AEBA
:1012C00040F002000CEBC002039B5360019AC2B1D4
:1012D000784A9DF8085088F8005040398AF800E0B4
:1012E00040334CF83020D7E69DF808303B700D04B1
:1012F000039B82F800E045F0C8050B444CF83050E1
:10130000C7E69DF8083088F80030039B6A4A8AF8DF
:1013100000E0403940334CF83020BDE618F0080FAB
:101320000CBF0223032353552FE464484FF0020CF3
:1013300001704170BEF80610614580F06181604A1D
:1013400092F800E04EF0020C05EBCC0340298946F0
:1013500028BF4FF04009586000EB090303930023B6
:1013600001930123C9EB01014FEA094A0293C82006
:1013700062E6544B5868002898D0BEF80210BEF8B8
:1013800004C003E00C33586800288FD01A888A42C2
:10139000F8D15A886245F5D1090A03290CBF90F8A3
:1013A00000C0B3F808C0C5E7474B44481B7803703A
:1013B000C0E7B2F5A06F7FF479AF0023019301235A
:1013C000029326E642F221339A42F6D06EE7BEF847
:1013D0000230002B7FF46AAF2F4901939200114431
:1013E000CDF808C00A7822F002020A7011E600F077
:1013F00085F9002800F0D08008302F4BC9F8840010
:10140000C9F8803000F07AF9002800F0BD8008307B
:10141000284BC5F88C00C5F8883030E700F06EF92D
:10142000002800F0D6800830234BC8F84400C8F8E4
:10143000403000F063F9002800F0C48008301D4BF4
:10144000E864AB6402E700F059F9002800F0B380CB
:101450000830194B68622B6200F050F9002800F048
:10146000A3800830134BE862AB62E2E600F046F975
:10147000002800F0BD8008300F4BC8F86400C8F8A1
:10148000603000F03BF9002800F0AB800830094BD9
:10149000E866AB66E7E600BFC02007408020074053
:1014A000C4200740C8200740CC200740D020074078
:1014B00094200740C800400088004000C088FF1FFB
:1014C000BC88FF1F44260000C888FF1F402600007C
:1014D000BD88FF1F0080FF1FD06A083800F02CF97C
:1014E000C1E4D9F82400083800F026F9B6E4D06C3D
:1014F000083800F021F9CAE4506C083800F01CF9F3
:10150000C0E4D06B083800F017F9B6E4506B083827
:1015100000F012F9ACE4D2F88C00083800F00CF9B5
:10152000DFE4D2F88400083800F006F9D3E4D06F85
:10153000083800F001F9C8E4506F083800F0FCF8F2
:10154000BEE4D06E083800F0F7F8B4E4506E083806
:1015500000F0F2F8AAE4D06D083800F0EDF8A0E44D
:10156000506D083800F0E8F896E4D2F89C0008388E
:1015700000F0E2F8C1E4D2F89400083800F0DCF89A
:10158000B5E44FF0020CD5E69AF80030C5F88800B3
:1015900001338AF8003072E69AF80030C9F880000A
:1015A00001338AF800302DE79AF80030A862013341
:1015B0008AF800303DE69AF80030286201338AF854
:1015C000003049E79AF80030A86401338AF8003007
:1015D0003CE69AF80030C8F8400001338AF8003041
:1015E00027E79AF80030A86601338AF800303AE617
:1015F0009AF80030C8F8600001338AF8003040E7FC
:10160000BCF1400FE14628BF4FF0400900EB090351
:101610000393002301930123C9EB0C014FEA094A0C
:101620000293FCE4F8B500F0E7FB294B29482A4C6B
:101630002A4F2B4DDFF8BCC0DFF8BCE0294E00225A
:101640001A605A609A60DA601A615A619A61DA61C6
:101650001A625A629A62DA621A635A639A63DA63A6
:101660001A645A649A64DA641A655A659A65DA6586
:101670001A665A669A66DA661A675A679A67DA6766
:10168000C3F880200168C3F8842041F48021016000
:10169000C3F307212170C3F30740134938701B0EB1
:1016A0002B70FF238CF80030104D8EF8003010485E
:1016B0000B700123337084F8642070264FF400749B
:1016C000102207F82C3C2E70046081F8F820F8BD39
:1016D0000080FF1F348004409C200740B02007405A
:1016E000B4200740942007401020074049E400E060
:1016F00008E100E0802007408820074010B572B65E
:101700000B480268B2FA82F10B2902DD62B60020B2
:1017100010BD4FF00043CB4022EA0302026062B6E4
:10172000044C48234B43E0180022E250426010BDB5
:101730002487FF1FBC83FF1F0C4B4822C31AB3FB37
:10174000F2F30B2B11D80A4A127822B1094A127807
:101750000AB1FFF729B972B607494FF0004222FAE1
:1017600003F30A681A430A6062B67047BC83FF1F1E
:10177000BD88FF1FC888FF1F2487FF1F044B988860
:10178000044B1A681AB1138852889B1A1844704780
:101790007E8AFF1FD888FF1F38B50E4B1B7803F0D9
:1017A000FF05ABB90C4C216831B14B880B8004208C
:1017B000FFF75EF9256038BDFFF7A0FF014620B1B5
:1017C0000420BDE83840FFF753B9044B01221A70DA
:1017D00038BD00BFD188FF1FD488FF1FD088FF1FEE
:1017E00038B51E4C2378002B36D101232370FFF728
:1017F000C5FF08B100F03AFB00F06CF908B100F049
:10180000C7F800F0F5F908B100F0C3F800F07EFA6F
:1018100008B100F0BFF800232370EFF30583DBB9B4
:10182000EFF3108272B60E4D286810B10D4C21787E
:1018300011B18AB962B638BD0123237043692B60A8
:101840000BB1996101E008490B6002B962B600254D
:10185000457783689847257038BD00BFDD88FF1F36
:10186000F088FF1FF488FF1FEC88FF1FEFF3108044
:1018700072B6B0FA80F04009704700B162B67047A6
:10188000F8B50C4E0C4F0025FFF7F0FF3468024608
:101890006CB1636933600BB19D6100E03B60104641
:1018A000FFF7EBFF6577A36820469847ECE7FFF763
:1018B000E4FFF8BDE088FF1FE488FF1FFFF7E0BFEB
:1018C00015490B6830B513B98360C36009E004683B
:1018D0001A68944207D20025121B8360C560D86045
:1018E0001A60086015E002681C689968121B0260A3
:1018F00061B10C68A2420B46F5D28160C968C16033
:10190000D860C168A21A88601A6002E08160C36072
:1019100098600223037530BDE888FF1F70B5164D2F
:101920002C680026BCB1236813B1013B236012E090
:10193000A26802B1D36020692A60036826751B681B
:1019400022460021984763681BB123602046FFF7B9
:10195000B7FF2C68E6E7FFF789FF084B00221C68F9
:101960001A60FFF78AFF2CB1A5682046FFF7A8FF91
:101970002C46F8E770BD00BFE888FF1FF888FF1FFE
:10198000024A136801331360FFF7C8BFE487FF1FE3
:10199000704770477047FFFF10B5204B2048214922
:1019A00060221A70E1225A701F4B204A1C78204B8B
:1019B000082C01D1012402E00A2C03D1192404606F
:1019C000132005E00C2C0CBF15243D2404601220CC
:1019D000086014601860174B17491B78174A03B149
:1019E00001230B601360164B164A1978164B012918
:1019F00001D880210BE0042901D8842107E00829BF
:101A000001D8852103E0102994BF86218721116028
:101A100019600E4B01221A7010BD00BF0040074034
:101A200008B003400CB003402887FF1F08B00B40EC
:101A30000CB00B40FD88FF1F20B0034020B00B40CE
:101A40002987FF1F24B0034024B00B40FC88FF1FF0
:101A5000094A136843F480531360084B1A78084B03
:101A60000AB1802200E0C0221A70064B80F30C00FD
:101A700000B21880704700BF2C800440FD88FF1F13
:101A800021C00C4000C00C4008B50B4D2C462B6803
:101A9000580301D5FFF72EF82368590501D500F04A
:101AA00029F823681A0501D500F0B2F82368DB0491
:101AB000EDD500F03BF9EAE73480044008B5FFF7C4
:101AC000E3FFFFFF014B10221A8070470020054002
:101AD0007047FFFF054B1878054B1A78C0B2D3B298
:101AE000984238BF4030C01A704700BF8689FF1F38
:101AF0000589FF1FF0B534490B7913F0300F2FD053
:101B000072B68B7D03F0FF0423B9CB7940234B746D
:101B100062B625E062B62D482D4A037812782D4F23
:101B2000DBB2D2B20546581C4028CE7928BF00202F
:101B30009042F6B21CBF3E540346601E10F0FF04F4
:101B4000F1D1D9B229702449096849B1934236BF0D
:101B5000C2F140029B1A9B18272BC4BF01230B70B4
:101B6000194AD178C9B20D061ED513791C061BD5AA
:101B70001A4B1B481D7803781A4EEDB2DBB2AB420C
:101B80000AD00133402B28BF00231479F45CE4B25F
:101B9000D471147D072CF2D9DBB203700A4B1A7989
:101BA000100644BF7C22DA7049060CD5064B1A7920
:101BB000520608D50C4A002111700C4A126802B175
:101BC00011703C22DA70F0BD00A006408689FF1F2C
:101BD0000589FF1F4689FF1F0089FF1F8C89FF1F92
:101BE0008789FF1F0689FF1F0489FF1F8889FF1F40
:101BF000054B1878054B1A78C0B2D3B2984238BF5B
:101C00004030C01A704700BFFE89FF1F9589FF1F33
:101C1000F0B534490B7913F0300F2FD072B68B7DAD
:101C200003F0FF0423B9CB7940234B7462B625E05F
:101C300062B62D482D4A037812782D4FDBB2D2B20E
:101C40000546581C4028CE7928BF00209042F6B2A5
:101C50001CBF3E540346601E10F0FF04F1D1D9B200
:101C600029702449096849B1934236BFC2F1400244
:101C70009B1A9B18272BC4BF01230B70194AD178DC
:101C8000C9B20D061ED513791C061BD51A4B1B486D
:101C90001D7803781A4EEDB2DBB2AB420AD00133A5
:101CA000282B28BF00231479F45CE4B2D471147D8E
:101CB000072CF2D9DBB203700A4B1A79100644BF25
:101CC0007C22DA7049060CD5064B1A79520608D5E3
:101CD0000C4A002111700C4A126802B111703C22AA
:101CE000DA70F0BD00B00640FE89FF1F9589FF1F26
:101CF000BE89FF1F9089FF1F048AFF1FFF89FF1FF6
:101D00009689FF1F9489FF1F008AFF1F054B1878D3
:101D1000054B1A78C0B2D3B2984238BF4030C01ACF
:101D2000704700BF768AFF1F0D8AFF1F10B5284B32
:101D30001A79920620D52749DA790B78264801339B
:101D400000783F2BC8BF0023834218BF2348D2B27C
:101D50001EBFC254DAB20A70214A116861B1214A29
:101D60001278D2B2934236BFC2F140029B1A9B183E
:101D7000272BC4BF01230B701549CA78D2B21406B1
:101D800016D50B79180613D5174B164C18782378EF
:101D9000DBB2984202D16C23CB7009E00133282BCF
:101DA00028BF00231148C05CDBB2C0B2C8712370E9
:101DB00051060CD5064B1A79520608D50C4A00215B
:101DC00011700C4A126802B111702C22DA7010BD29
:101DD00000C00640768AFF1F0D8AFF1F368AFF1F4C
:101DE000088AFF1F778AFF1F7C8AFF1F0E8AFF1F4A
:101DF0000C8AFF1F788AFF1F1FB572B6154B702221
:101E00001A70154A412111700F2102F8011C80221D
:101E10001A701A781206FCD5104B186862B6104B6F
:101E2000984298BF0A2301AC98BF58430A22214622
:101E300000F01DF80B4A0023E15C21B101330A2BAD
:101E400022F8021BF8D1084A01335B00137004B07A
:101E500010BD00BF00000240070002400800024021
:101E60007F969800B487FF1FB287FF1F704730B579
:101E700003460020B3FBF2F402FB1433092B94BF9A
:101E800030333733DBB20B5423460CB10130F1E76A
:101E90000A1823465470C41AA34206DACC5C15789B
:101EA000CD5402F801490133F5E7084630BDFFFF84
:101EB00080F0004002E000BF81F0004142001FBFFF
:101EC0005FEA410392EA030F7FEA226C7FEA236C08
:101ED0006AD04FEA1262D2EB1363C1BFD2184140FD
:101EE00048404140B8BF5B42192B88BF704710F093
:101EF000004F40F4000020F07F4018BF404211F036
:101F0000004F41F4000121F07F4118BF494292EA9D
:101F1000030F3FD0A2F1010241FA03FC10EB0C00C9
:101F2000C3F1200301FA03F100F0004302D5494256
:101F300060EB4000B0F5000F13D3B0F1807F06D303
:101F400040084FEA310102F10102FE2A51D2B1F1FB
:101F5000004F40EBC25008BF20F0010040EA0300F0
:101F60007047490040EB000010F4000FA2F101029D
:101F7000EDD1B0FA80FCACF1080CB2EB0C0200FA27
:101F80000CF0AABF00EBC25052421843BCBFD04075
:101F90001843704792F0000F81F4000106BF80F4EF
:101FA00000000132013BB5E74FEA41037FEA226CB2
:101FB00018BF7FEA236C21D092EA030F04D092F07D
:101FC000000F08BF0846704790EA010F1CBF0020B1
:101FD000704712F07F4F04D1400028BF40F000400E
:101FE000704712F100723CBF00F50000704700F02E
:101FF000004343F0FE4040F4000070477FEA226255
:1020000016BF08467FEA23630146420206BF5FEA25
:10201000412390EA010F40F4800070474FF0000325
:1020200004E000BF10F0004348BF40425FEA000CEC
:1020300008BF704743F0964301464FF000001CE094
:1020400050EA010208BF70474FF000030AE000BFEA
:1020500050EA010208BF704711F0004302D5404228
:1020600061EB41015FEA010C02BF8446014600209A
:1020700043F0B64308BFA3F18053A3F50003BCFAB5
:102080008CF2083AA3EBC25310DB01FA02FC634462
:1020900000FA02FCC2F12002BCF1004F20FA02F269
:1020A00043EB020008BF20F00100704702F120025C
:1020B00001FA02FCC2F1200250EA4C0021FA02F2BD
:1020C00043EB020008BF20EADC7070474FF0FF0CC2
:1020D0001CEAD0521EBF1CEAD15392EA0C0F93EABD
:1020E0000C0F6FD01A4480EA010C400218BF5FEA5F
:1020F00041211ED04FF0006343EA501043EA5111D2
:10210000A0FB01310CF00040B1F5000F3EBF4900CB
:1021100041EAD3715B0040EA010062F17F02FD2ACF
:102120001DD8B3F1004F40EBC25008BF20F00100B2
:10213000704790F0000F0CF0004C08BF49024CEAC9
:10214000502040EA51207F3AC2BFD2F1FF0340EA5B
:10215000C250704740F400004FF00003013A5DDCCC
:1021600012F1190FDCBF00F000407047C2F100020D
:10217000410021FA02F1C2F1200200FA02FC5FEAFA
:10218000310040F1000053EA4C0308BF20EADC7044
:10219000704792F0000F00F0004C02BF400010F4B6
:1021A000000F013AF9D040EA0C0093F0000F01F063
:1021B000004C02BF490011F4000F013BF9D041EA85
:1021C0000C018FE70CEAD15392EA0C0F18BF93EA87
:1021D0000C0F0AD030F0004C18BF31F0004CD8D1B1
:1021E00080EA010000F00040704790F0000F17BF38
:1021F00090F0004F084691F0000F91F0004F14D07E
:1022000092EA0C0F01D142020FD193EA0C0F03D1D5
:102210004B0218BF084608D180EA010000F00040D8
:1022200040F0FE4040F40000704740F0FE4040F4B3
:10223000400070474FF0FF0C1CEAD0521EBF1CEA52
:10224000D15392EA0C0F93EA0C0F69D0A2EB030270
:1022500080EA010C49024FEA402037D04FF080530A
:1022600043EA111143EA10130CF000408B4238BFCF
:102270005B0042F17D024FF4000C8B4224BF5B1ADD
:1022800040EA0C00B3EB510F24BFA3EB510340EA2B
:102290005C00B3EB910F24BFA3EB910340EA9C00D9
:1022A000B3EBD10F24BFA3EBD10340EADC001B0149
:1022B00018BF5FEA1C1CE0D1FD2A3FF650AF8B42ED
:1022C00040EBC25008BF20F0010070470CF0004CFA
:1022D0004CEA50207F32C2BFD2F1FF0340EAC25025
:1022E000704740F400004FF00003013A37E792F0E6
:1022F000000F00F0004C02BF400010F4000F013A44
:10230000F9D040EA0C0093F0000F01F0004C02BF3E
:10231000490011F4000F013BF9D041EA0C0195E7A7
:102320000CEAD15392EA0C0F08D142027FF47DAF40
:1023300093EA0C0F7FF470AF084676E793EA0C0F30
:1023400004D14B023FF44CAF08466EE730F0004C2E
:1023500018BF31F0004CCAD130F000427FF45CAFBE
:1023600031F000437FF43CAF5FE700BF4FF0FF3C2C
:1023700006E000BF4FF0010C02E000BF4FF0010C7F
:102380004DF804CD4FEA40024FEA41037FEA226C48
:1023900018BF7FEA236C11D001B052EA530C18BF6A
:1023A00090EA010F58BFB2EB030088BFC81738BFCF
:1023B0006FEAE17018BF40F0010070477FEA226CBD
:1023C00002D15FEA402C05D17FEA236CE4D15FEAB9
:1023D000412CE1D05DF8040B704700BF84460846ED
:1023E0006146FFE70FB5FFF7C9FF002848BF10F1AE
:1023F000000F0FBD4DF808EDFFF7F4FF0CBF0120F3
:1024000000205DF808FB00BF4DF808EDFFF7EAFF7C
:1024100034BF012000205DF808FB00BF4DF808ED37
:10242000FFF7E0FF94BF012000205DF808FB00BF2C
:102430004DF808EDFFF7D2FF94BF012000205DF8B2
:1024400008FB00BF4DF808EDFFF7C8FF34BF0120BF
:1024500000205DF808FB00BF4FEA4002B2F1FE4FDA
:102460000FD34FF09E03B3EB12620DD94FEA002356
:1024700043F0004310F0004F23FA02F018BF40422F
:1024800070474FF00000704712F1610F01D1420216
:1024900005D110F0004008BF6FF0004070474FF0CA
:1024A0000000704742000ED2B2F1FE4F0BD34FF046
:1024B0009E03B3EB126209D44FEA002343F00043BA
:1024C00023FA02F070474FF00000704712F1610FDD
:1024D00001D1420202D14FF0FF3070474FF00000AF
:1024E000704700BF70B50E4B0E4CE41AA4100025C7
:1024F0001E46A54204D056F8253098470135F8E726
:1025000000F0CAF8084C094BE41AA41000251E4636
:10251000A54204D056F8253098470135F8E770BD3C
:10252000A4260000A4260000A8260000A42600007F
:102530004008FE4340A004404408FE4344A0044039
:102540000018FE4300C004403000FE4330900440B9
:102550003400FE43349004401C18FE431CC0044069
:102560001018FE4310C004400818FE4308C0044081
:102570000C18FE430CC004400C10FE430CB0044089
:102580001010FE4310B004401810FE4318B0044071
:102590001C10FE431CB004401410FE4314B0044051
:1025A0000418FE4304C004400010FE4300B0044081
:1025B0000008FE4300A004400408FE4304A00440B9
:1025C0000C08FE430CA004400808FE4308A0044089
:1025D0001418FE4314C004401818FE4318C00440E9
:1025E0000410FE4304B004400810FE4308B0044049
:1025F0001400FE43149004404C08FE434CA00440D9
:102600000420FE4304D004402410FE4324B00440C0
:102610002010FE4320B004402810FE4328B00440A0
:102620002C10FE432CB004400020FE4300D0044098
:102630004808FE4348A004401000FE4310900440A8
:1026400000151915000100002A87FF1F1200000065
:10265000000200005487FF1F430000000003000039
:10266000AE87FF1F00000000010309043C87FF1F25
:1026700000000000020309049887FF1F000000000B
:1026800003030904B287FF1F0000000000000000E0
:102690000000000000000000F8B500BFF8BC08BC56
:0826A0009E467047350400005E
:0426A800F8B500BFC2
:1026AC001E00000008000000FFFFFFFF0A041201DB
:1026BC00100102000040C0168304750201020301E0
:1026CC0018035400650065006E0073007900640007
:1026DC00750069006E006F0009024300020100C022
:1026EC00320904000001020201000524001001055A
:1026FC0024010101042402060524060001070582B9
:10270C000310004009040100020A00000007050341
:10271C00024000000705840240000000160355002B
:10272C0053004200200053006500720069006100F4
:10273C006C00040309040C030000000000000000FE
:0C274C0000000000000000000000000081
:00000001FF
